:100000000C945A000C9477000C9477000C947700B1
:100010000C9477000C9477000C9477000C94770084
:100020000C9477000C9477000C9477000C94770074
:100030000C9477000C9477000C9477000C94770064
:100040000C9477000C9477000C944C020C94810271
:100050000C9477000C9477000C9477000C94770044
:100060000C9477000C9477000C9477000C94770034
:100070000C941E030C9453030C9477000C9477009B
:100080000C9477000C9477000C9477000C94770014
:100090000C9477000C9477000C9477000C94770004
:1000A0000C9477000C9477000C9477000C947700F4
:1000B0000C94770011241FBECFEFD8E0DEBFCDBF78
:1000C00012E0A0E0B1E0E0E0F0E102C005900D92A6
:1000D000A639B107D9F724E0A6E9B2E001C01D9224
:1000E000A73FB207E1F70E9438020C94FE070C9478
:1000F00000008CE391E00E94010308958DE491E0FB
:100100000E9401030895CF92DF92EF92FF920F9326
:100110001F93CF93DF9300D000D01F92CDB7DEB7EF
:10012000F82E6B0180E691E00E94010385E791E0E3
:100130000E9401030F2D10E04AE0BE016F5F7F4F68
:10014000C8010E9401050E9401038BEC91E00E940E
:10015000010310161106C4F48601EF2CF12CEE0CED
:10016000FF1CEC0CFD1C8CE791E00E940103F801E0
:10017000819191918F010E9401038BEC91E00E948B
:1001800001030E151F0579F70F900F900F900F9038
:100190000F90DF91CF911F910F91FF90EF90DF9023
:1001A000CF900895AF92BF92CF92DF92EF92FF92DD
:1001B0000F931F93CF93DF93CDB7DEB727970FB67B
:1001C000F894DEBF0FBECDBF8C010E9401038BEC03
:1001D00091E00E94010380E29CE29A8389831B8262
:1001E000C8010E94D004BE016F5F7F4FC8010E940A
:1001F000BB045C0106E011E00F2EFCE3CF2EF1E022
:10020000DF2EF02DE12CF12CB8016D5F7F4FC50181
:100210000E94C004892B09F478010E5E1F4F0C1553
:100220001D0591F7E114F10431F483E891E00E9497
:1002300001038FEF87C0BE016F5F7F4F80E090E0CA
:100240000E94BB048C01892B09F469C0D12CD80110
:100250008C918823B9F1F7018081D81618F4F1E068
:10026000FD1528F486E991E00E94010337C0F801EA
:1002700001900020E9F73197CF01801B910B99275E
:1002800001968F3091052CF08CEA91E00E940103D9
:1002900025C00E949A03ED2DF0E0EE0FFF1F21E034
:1002A00030E02C0F3D1FE20FF31F948383830097F0
:1002B00029F48EEC91E00E94010310C0B8010E9465
:1002C000C904D394BE016F5F7F4F80E090E00E942D
:1002D000BB048C01892B09F0BACF22C0D7018C91C5
:1002E0008D1123C0FF24F39405C08AEE91E00E9493
:1002F00001031BC00D2D10E0101611065CF48C815B
:100300009D810E9432040230110524F08E819F816C
:100310000E94320481E0F11015C080E013C0D12C9E
:10032000F70180818D11E1CF03C0FF24F394E2CF68
:100330000180F281E02DBE016C5F7F4F8D2D09950C
:10034000F12CD8CF27960FB6F894DEBF0FBECDBFE5
:10035000DF91CF911F910F91FF90EF90DF90CF90A1
:10036000BF90AF90089593FF07C08BE092E00E948A
:10037000010320E038E01DC092FF07C086E292E052
:100380000E94010320E034E014C091FF07C083E421
:1003900092E00E94010320E032E00BC09C01222782
:1003A000317090FF06C082E692E00E94010320E0D7
:1003B00031E0C9010895FF920F931F93CF93DF930C
:1003C000EC010E941003892B09F447C00E94C80267
:1003D000182FF92E0E94B301009731F0812F9F2D25
:1003E0000E94B30182603EC01D3049F42091980202
:1003F000222319F01092980235C0188233C01830A9
:1004000011F01F3779F480919802882319F08150F8
:100410008093980280919802C80FD11D188281E0C4
:1004200090E020C01A30E1F080919802803570F49D
:1004300091E0980F90939802FE01E80FF11D108350
:10044000C90FD11D188281E090E00CC089E792E0CD
:100450000E94010381E090E005C081E090E002C0CD
:1004600081E090E0DF91CF911F910F91FF9008956F
:1004700078948DE490E00E94AD028DE490E00E94BB
:100480007F0383EA94E00E94DB01892BD1F783EAA2
:1004900094E00E94D200F5CF1F920F920FB60F92F8
:1004A00011242F933F934F935F938F939F93EF93D9
:1004B000FF932091C0003091C60028718091A00365
:1004C00090E001968F77992740919F0350E0841721
:1004D000950739F08093A003FC01ED55FC4F308364
:1004E00001C022E020939E03FF91EF919F918F9195
:1004F0005F914F913F912F910F900FBE0F901F90E2
:1005000018951F920F920FB60F9211248F939F93FD
:10051000EF93FF939091A2038091A103981779F034
:100520008091A10390E001968F7799278093A10392
:10053000FC01ED5DFB4F80818093C60005C0E1ECBE
:10054000F0E080818F7D8083FF91EF919F918F916B
:100550000F900FBE0F901F901895F8941092A20361
:100560001092A1031092A00310929F0378949923F4
:1005700024F422E02093C0009F779093C5008093DD
:10058000C40088E98093C10086E08093C20008958A
:10059000F8949091A00380919F03981304C07894DD
:1005A00080E091E00895789480919F0390E0019617
:1005B0008F77992780939F03FC01ED55FC4F208195
:1005C00080919E0390E0982F8827820F911D0895B7
:1005D0004091A20350E04F5F5F4F4F775527209126
:1005E000A10330E042175307D1F3FA01ED5DFB4F51
:1005F00080834093A203E1ECF0E0808180628083FD
:100600000895CF93DF93EC018881882331F0219600
:100610000E94E80289918111FBCFDF91CF9108956B
:10062000F8948091A00320919F03789490E08058E3
:100630009F4F821B91098F77992708951F920F92E0
:100640000FB60F9211242F933F934F935F938F9385
:100650009F93EF93FF932091C8003091CE002871B3
:1006600080919B0290E001968F77992740919A02A2
:1006700050E08417950739F080939B02FC01E25605
:10068000FD4F308301C022E020939902FF91EF914A
:100690009F918F915F914F913F912F910F900FBE3E
:1006A0000F901F9018951F920F920FB60F92112462
:1006B0008F939F93EF93FF9390919D0280919C0263
:1006C000981779F080919C0290E001968F77992796
:1006D00080939C02FC01E25EFC4F80818093CE00FF
:1006E00005C0E9ECF0E080818F7D8083FF91EF9180
:1006F0009F918F910F900FBE0F901F901895F894B7
:1007000010929D0210929C0210929B0210929A02EB
:100710007894992324F422E02093C8009F77909343
:10072000CD008093CC0088E98093C90086E0809357
:10073000CA0008950F931F93CF93DF9382309105E2
:1007400010F482E090E0E091F504F091F60420E0EE
:1007500030E0A0E0B0E0309719F140815181028192
:10076000138148175907C8F08417950769F4109743
:1007700031F012960C93129713961C9327C0009396
:10078000F5041093F60422C02115310519F0421723
:10079000530718F49A01BD01EF01DF01F801DBCF27
:1007A00021153105F9F0281B390B2430310580F46F
:1007B0008A819B816115710521F0FB0193838283FE
:1007C00004C09093F6048093F504FE01329644C071
:1007D000FE01E20FF31F8193919322503109398377
:1007E00028833AC02091F3043091F404232B41F480
:1007F00020910201309103013093F4042093F3041B
:1008000020910001309101012115310541F42DB7EE
:100810003EB74091040150910501241B350BE09136
:10082000F304F091F404E217F307A0F42E1B3F0B3E
:100830002817390778F0AC014E5F5F4F2417350752
:1008400048F04E0F5F1F5093F4044093F3048193DC
:10085000919302C0E0E0F0E0CF01DF91CF911F91D2
:100860000F910895CF93DF93009709F481C0FC01A5
:10087000329713821282A091F504B091F60410977A
:1008800081F420813181820F931F2091F3043091F4
:10089000F4042817390751F5F093F404E093F304B6
:1008A00067C0ED0120E030E0CE17DF0740F44A8159
:1008B0005B819E0141155105F1F0EA01F5CFD3832B
:1008C000C28340815181840F951FC817D90759F4FD
:1008D00088819981840F951F0296918380838A81F4
:1008E0009B81938382832115310529F4F093F604CB
:1008F000E093F5043DC0E901FB83EA8349915991F6
:10090000C40FD51FEC17FD0761F480819181840F1E
:10091000951F0296E90199838883828193819B8345
:100920008A83E0E0F0E012968D919C9113970097F6
:1009300019F0FD01DC01F7CF8D919C9111979D017C
:100940002E5F3F4F820F931F2091F3043091F404E8
:100950002817390769F4309729F41092F604109299
:10096000F50402C013821282B093F404A093F3043E
:10097000DF91CF91089546E952E00E94DA0408958C
:10098000FB01DC018D91019080190110D9F3990BC5
:100990000895FB01DC0101900D920020E1F708951C
:1009A000DC016C9161546A3108F060526F596D93AB
:1009B000C1F70895FA01A191B081009719F4109739
:1009C000E1F0CD01DC01CD010D90002011F4C0015A
:1009D00013C0FB012191222319F02015D9F7F3CF81
:1009E000FB012191201519F41E92119606C02223B5
:1009F000C1F70D900020A1F7D001FA01A193B083B7
:100A00000895BB274A3031F4992322F4BDE2909532
:100A100081959F4F0C940D05BB27FB015527AA27F5
:100A2000880F991FAA1FA41710F0A41B839550517B
:100A3000B9F7A05DAA3308F0A95DA193009779F7F3
:100A4000B111B1931192CB010C941D07ABE0B0E052
:100A5000ECE2F5E00C94C7076C017B018A01FC0114
:100A600017821682838181FFCCC1CE0101963C01A1
:100A7000F6019381F70193FD859193FF81917F01A9
:100A8000882309F4BAC1853239F493FD859193FF27
:100A900081917F01853229F4B60190E00E942D07F3
:100AA000E7CF912C212C312CFFE1F315D8F08B32BC
:100AB00079F038F4803279F08332A1F4232D20616B
:100AC0001DC08D3261F0803369F4232D216016C082
:100AD000832D8260382EE32DE4603E2E2AC0F32D54
:100AE000F8601DC037FC2DC020ED280F2A3040F0E3
:100AF0008E32B9F436FC81C1232D2064322E19C008
:100B000036FE06C08AE0989E200D1124922E11C058
:100B1000EAE02E9E200D1124222EF32DF0623F2EAE
:100B200008C08C3621F4832D8068382E02C08836A8
:100B300041F4F70193FD859193FF81917F0181112C
:100B4000B3CF982F9F7D9554933028F40C5F1F4F9F
:100B50009FE399830DC0833631F0833771F083357D
:100B600009F059C021C0F801808189830E5F1F4FB1
:100B700088248394912C530113C02801F2E04F0E76
:100B8000511CF801A080B18036FE03C0692D70E0D1
:100B900002C06FEF7FEFC5010E9412074C01820176
:100BA000F32DFF773F2E16C0280122E0420E511C84
:100BB000F801A080B18036FE03C0692D70E002C04C
:100BC0006FEF7FEFC5010E9407074C01F32DF0681E
:100BD0003F2E820133FC1BC0822D90E088169906BF
:100BE000B0F4B60180E290E00E942D072A94F4CF81
:100BF000F50137FC859137FE81915F01B60190E0E8
:100C00000E942D0721102A9421E0821A9108811454
:100C1000910471F7E8C0843611F0893641F5F80186
:100C200037FE07C060817181828193810C5F1F4F05
:100C300008C060817181072E000C880B990B0E5F34
:100C40001F4FF32DFF763F2E97FF09C0909580959B
:100C5000709561957F4F8F4F9F4FF0683F2E2AE030
:100C600030E0A3010E946907882E861845C08537A9
:100C700031F4232D2F7EB22E2AE030E025C0932DB3
:100C8000997FB92E8F36C1F018F4883579F0B5C048
:100C9000803719F0883721F0B0C0E92FE061BE2E0F
:100CA000B4FE0DC0FB2DF460BF2E09C034FE0AC097
:100CB000292F2660B22E06C028E030E005C020E1D2
:100CC00030E002C020E132E0F801B7FE07C06081E9
:100CD0007181828193810C5F1F4F06C06081718199
:100CE00080E090E00E5F1F4FA3010E946907882EED
:100CF0008618FB2DFF773F2E36FE0DC0232D2E7F4D
:100D0000A22E891458F434FE0BC032FC09C0832D86
:100D10008E7EA82E05C0B82CA32C03C0B82C01C011
:100D2000B92CA4FE0FC0FE01E80DF11D80818033B7
:100D300021F49A2D997EA92E09C0A2FE06C0B39473
:100D4000B39404C08A2D867809F0B394A3FC11C033
:100D5000A0FE06C0B21488F4280C922C9B180EC07A
:100D6000B21460F4B60180E290E00E942D07B394C3
:100D7000F7CFB21418F42B1802C0982C212CA4FE23
:100D800010C0B60180E390E00E942D07A2FE17C0BC
:100D9000A1FC03C088E790E002C088E590E0B601BE
:100DA0000CC08A2D867859F0A1FE02C08BE201C0EA
:100DB00080E2A7FC8DE2B60190E00E942D07891425
:100DC00038F4B60180E390E00E942D079A94F7CFA3
:100DD0008A94F301E80DF11D8081B60190E00E9434
:100DE0002D078110F5CF222009F442CEB60180E212
:100DF00090E00E942D072A94F6CFF6018681978114
:100E000002C08FEF9FEF2B96E2E10C94E307FC0109
:100E10000590615070400110D8F7809590958E0F25
:100E20009F1F0895FC016150704001900110D8F798
:100E3000809590958E0F9F1F0895DC01FC01672F10
:100E400071917723E1F7329704C07C916D937083A1
:100E50006291AE17BF07C8F308950F931F93CF9306
:100E6000DF93FB01238121FD03C08FEF9FEF2CC097
:100E700022FF16C0468157812481358142175307CE
:100E800044F4A081B1819D012F5F3F4F31832083C6
:100E90008C93268137812F5F3F4F3783268314C081
:100EA0008B01EC01FB010084F185E02D0995892B74
:100EB000E1F6D80116968D919C9117970196179699
:100EC0009C938E931697CE01DF91CF911F910F9136
:100ED0000895FA01AA27283051F1203181F1E894D0
:100EE0006F936E7F6E5F7F4F8F4F9F4FAF4FB1E01D
:100EF0003ED0B4E03CD0670F781F891F9A1FA11D18
:100F0000680F791F8A1F911DA11D6A0F711D811D18
:100F1000911DA11D20D009F468943F912AE0269FDD
:100F200011243019305D3193DEF6CF010895462F3C
:100F30004770405D4193B3E00FD0C9F7F6CF462F1D
:100F40004F70405D4A3318F0495D31FD4052419386
:100F500002D0A9F7EACFB4E0A69597958795779543
:100F60006795BA95C9F700976105710508959B01CA
:100F7000AC010A2E06945795479537952795BA9553
:100F8000C9F7620F731F841F951FA01D08952F922C
:100F90003F924F925F926F927F928F929F92AF9209
:100FA000BF92CF92DF92EF92FF920F931F93CF9356
:100FB000DF93CDB7DEB7CA1BDB0B0FB6F894DEBFED
:100FC0000FBECDBF09942A88398848885F846E8413
:100FD0007D848C849B84AA84B984C884DF80EE805D
:100FE000FD800C811B81AA81B981CE0FD11D0FB666
:100FF000F894DEBF0FBECDBFED010895F894FFCF8A
:101000000000F7042000007900766F6C7570000016
:101010000000000000000000007E00766F6C646F2E
:10102000776E00000000000000000283007365740A
:10103000766F6C000000000000000000766F6C7599
:10104000702064657465637465640D0A00766F6C66
:10105000646F776E2064657465637465640D0A005F
:10106000736574766F6C756D652064657465637403
:1010700065640D0A00617267633A200061726776E9
:101080003A2000556E6B6E6F776E20636F6D6D61E9
:101090006E64210D0A00546F6F206D616E792061BE
:1010A0007267756D656E7473210D0A004D6178204D
:1010B00061726720737472696E67206C656E677405
:1010C00068206578636565646564210D0A004D6577
:1010D0006D6F727920616C6C6F636174696F6E20E3
:1010E0006661696C6564210D0A00496E636F7272F6
:1010F000656374206E756D626572206F6620417243
:1011000067756D656E7473210D0A00554152545F09
:101110004652414D455F4552524F52206F636375B1
:10112000727265642100554152545F4F56455252C8
:10113000554E5F4552524F52206F63637572726510
:10114000642100554152545F4255464645525F4F17
:10115000564552464C4F57206F63637572726564F3
:101160002100554152545F4E4F5F44415441206F1E
:101170006363757272656421004C696E65206C65ED
:101180006E67746820657863656564732062756650
:06119000666572210000FB
:00000001FF
