S0120000566F6C4374726C5F46572E7372656350
S11300000C945A000C9477000C9477000C947700AD
S11300100C9477000C9477000C9477000C94770080
S11300200C9477000C9477000C9477000C94770070
S11300300C9477000C9477000C9477000C94770060
S11300400C9477000C9477000C94A3000C94D800C3
S11300500C9477000C9477000C9477000C94770040
S11300600C9477000C9477000C9477000C94770030
S11300700C94E8010C941D020C9477000C94770006
S11300800C9477000C9477000C9477000C94770010
S11300900C9477000C9477000C9477000C94770000
S11300A00C9477000C9477000C9477000C947700F0
S11300B00C94770011241FBECFEFD8E0DEBFCDBF74
S11300C011E0A0E0B1E0EAE5F5E002C005900D9290
S11300D0AA38B107D9F724E0AAE8B1E001C01D921B
S11300E0A731B207E1F70E9479000C94AB020C949B
S11300F00000809195030E943F01789481E890E08C
S11301000E94040181E890E00E94490287E993E09B
S11301100E949D01019751F487E993E00E945801E0
S11301208DE00E943F018AE00E943F010E949D02EF
S1130130892B61F30E946402809395039093960344
S11301400E948402E3CF1F920F920FB60F921124E4
S11301502F933F934F935F938F939F93EF93FF93CB
S11301602091C0003091C60028718091920290E0E5
S113017001968F7799274091910250E08417950753
S113018039F080939202FC01EB56FD4F308301C09D
S113019022E020939002FF91EF919F918F915F91C4
S11301A04F913F912F910F900FBE0F901F90189574
S11301B01F920F920FB60F9211248F939F93EF9378
S11301C0FF939091940280919302981779F0809113
S11301D0930290E001968F77992780939302FC0114
S11301E0EB5EFC4F80818093C60005C0E1ECF0E03B
S11301F080818F7D8083FF91EF919F918F910F90EC
S11302000FBE0F901F901895F894109294021092BC
S1130210930210929202109291027894992324F4FA
S113022022E02093C0009F779093C5008093C40080
S113023088E98093C10086E08093C2000895F89411
S11302409091920280919102981304C0789480E076
S113025091E0089578948091910290E001968F77CF
S1130260992780939102FC01EB56FD4F20818091E8
S1130270900290E0982F8827820F911D0895409155
S1130280940250E04F5F5F4F4F77552720919302C0
S113029030E042175307D1F3FA01EB5EFC4F808341
S11302A040939402E1ECF0E08081806280830895C1
S11302B0CF93DF93EC018881882331F021960E944B
S11302C03F0189918111FBCFDF91CF910895F8947B
S11302D08091920220919102789490E080589F4FEF
S11302E0821B91098F779927089593FF07C080E0B7
S11302F091E00E94580120E038E01DC092FF07C041
S11303008BE191E00E94580120E034E014C091FF99
S113031007C088E391E00E94580120E032E00BC05E
S11303209C012227317090FF06C087E591E00E946E
S1130330580120E031E0C9010895DF92EF92FF9265
S11303400F931F93CF93DF938C010E946701EC01FD
S1130350892BA9F10E941F01F82EE92E0E94750134
S1130360EC01892B31F08F2D9E2D0E947501EC013B
S113037026C08DE0F8120EC080918A01882329F0EE
S113038010928A01C1E0D0E01AC0F8011082C1E0E5
S1130390D0E015C080918A0188236CF091E0980F19
S11303A090938A01F801E80FF11DF082F801E90F3A
S11303B0F11D108204C08EE691E00E945801CE0126
S11303C0DF91CF911F910F91FF90EF90DF900895EF
S11303D01F920F920FB60F9211242F933F934F93B6
S11303E05F938F939F93EF93FF932091C800309175
S11303F0CE00287180918D0190E001968F77992726
S113040040918C0150E08417950739F080938D0159
S1130410FC01E057FE4F308301C022E020938B01A2
S1130420FF91EF919F918F915F914F913F912F9108
S11304300F900FBE0F901F9018951F920F920FB63A
S11304400F9211248F939F93EF93FF9390918F01B9
S113045080918E01981779F080918E0190E0019639
S11304608F77992780938E01FC01E05FFD4F808197
S11304708093CE0005C0E9ECF0E080818F7D80831D
S1130480FF91EF919F918F910F900FBE0F901F904E
S11304901895F89410928F0110928E0110928D018C
S11304A010928C017894992324F422E02093C800BC
S11304B09F779093CD008093CC0088E98093C90006
S11304C086E08093CA000895F89490918D018091FC
S11304D08C01981304C0789480E091E00895809191
S11304E08C0190E001968F77992780938C01789402
S11304F0FC01E057FE4F208180918B0190E0982F02
S11305008827820F911D089540918F0150E04F5F1D
S11305105F4F4F77552720918E0130E042175307E4
S1130520D1F3FA01E05FFD4F808340938F01E9EC42
S1130530F0E08081806280830895F89480918D0139
S113054020918C01789490E080589F4F821B9109F0
S10D05508F7799270895F894FFCFE0
S113055A554152545F4652414D455F4552524F529E
S113056A206F636375727265642100554152545F4A
S113057A4F56455252554E5F4552524F52206F6361
S113058A6375727265642100554152545F4255463F
S113059A4645525F4F564552464C4F57206F636348
S11305AA75727265642100554152545F4E4F5F441F
S11305BA415441206F6363757272656421004C690A
S11305CA6E65206C656E677468206578636565641A
S10D05DA73206275666665722100E5
S9030000FC
