:100000000C945A000C9477000C9477000C947700B1
:100010000C9477000C9477000C9477000C94770084
:100020000C9477000C9477000C9477000C94770074
:100030000C9477000C9477000C9477000C94770064
:100040000C9477000C9477000C94C5010C94FA0181
:100050000C9477000C9477000C9477000C94770044
:100060000C9477000C9477000C9477000C94770034
:100070000C9417030C944C030C9477000C947700A9
:100080000C9477000C9477000C9477000C94770014
:100090000C9477000C9477000C9477000C94770004
:1000A0000C9477000C9477000C9477000C947700F4
:1000B0000C94770011241FBECFEFD8E0DEBFCDBF78
:1000C00012E0A0E0B1E0E2EFFFE002C005900D9287
:1000D000AC37B107D9F724E0ACE7B2E001C01D921C
:1000E000AD3DB207E1F70E94B1010C94F7070C9403
:1000F00000008CE391E00E947A0208958DE491E083
:100100000E947A020895CF92DF92EF92FF920F93AE
:100110001F93CF93DF9300D000D01F92CDB7DEB7EF
:10012000F82E6B0180E691E00E947A0285E791E06B
:100130000E947A020F2D10E04AE0BE016F5F7F4FF0
:10014000C8010E94FA040E947A028DEC91E00E949C
:100150007A0210161106C4F48601EF2CF12CEE0C75
:10016000FF1CEC0CFD1C8CE791E00E947A02F80168
:10017000819191918F010E947A028DEC91E00E9411
:100180007A020E151F0579F70F900F900F900F90C0
:100190000F90DF91CF911F910F91FF90EF90DF9023
:1001A000CF900895AF92BF92CF92DF92EF92FF92DD
:1001B0000F931F93CF93DF93CDB7DEB727970FB67B
:1001C000F894DEBF0FBECDBF8C010E947A028DEC89
:1001D00091E00E947A0280E29CE29A8389831B82EA
:1001E000C8010E94C904BE016F5F7F4FC8010E9411
:1001F000B4045C0106E011E00F2EFCE3CF2EF1E029
:10020000DF2EF02DE12CF12CB8016D5F7F4FC50181
:100210000E94B904892B09F478010E5E1F4F0C155A
:100220001D0591F7E114F10431F483E891E00E9497
:100230007A028FEF85C0BE016F5F7F4F80E090E054
:100240000E94B4048C01892B09F463C0D12CD8011D
:100250008C91882399F1F7018081D81618F4F1E088
:10026000FD1528F488E991E00E947A0233C0F80174
:1002700001900020E9F73197CF01801B910B99275E
:1002800001968F3091052CF08EEA91E00E947A025F
:1002900021C00E949303ED2DF0E0EE0FFF1F21E03F
:1002A00030E02C0F3D1FE20FF31F948383830097F0
:1002B00009F443C0B8010E94C204D394BE016F5F29
:1002C0007F4F80E090E00E94B4048C01892B09F0FC
:1002D000BECF20C0D7018C918D1121C02EC080EDE2
:1002E00091E00E947A021BC00D2D10E0101611063D
:1002F0005CF48C819D810E942B040230110524F056
:100300008E819F810E942B0481E0F11019C080E052
:1003100017C0D12CF7011081D112E1CF03C0FF2407
:10032000F394E2CF0180F281E02DBE016C5F7F4F3C
:10033000812F0995D12EF12CD7CFFF24F394D4CF60
:1003400027960FB6F894DEBF0FBECDBFDF91CF91D9
:100350001F910F91FF90EF90DF90CF90BF90AF90E3
:100360000895789481E890E00E94260281E890E068
:100370000E94780389E894E00E94BF02892BD1F3A0
:1003800089E894E00E94D200F5CF1F920F920FB639
:100390000F9211242F933F934F935F938F939F93CB
:1003A000EF93FF932091C0003091C6002871809197
:1003B000860390E001968F7799274091850350E05E
:1003C0008417950739F080938603FC01E757FC4FAB
:1003D000308301C022E020938403FF91EF919F912D
:1003E0008F915F914F913F912F910F900FBE0F9082
:1003F0001F9018951F920F920FB60F9211248F9392
:100400009F93EF93FF9390918803809187039817B0
:1004100079F08091870390E001968F7799278093F8
:100420008703FC01E75FFB4F80818093C60005C016
:10043000E1ECF0E080818F7D8083FF91EF919F91CF
:100440008F910F900FBE0F901F901895F8941092F7
:100450008803109287031092860310928503789484
:10046000992324F422E02093C0009F779093C50045
:100470008093C40088E98093C10086E08093C20025
:100480000895F8949091860380918503981304C091
:10049000789480E091E0089578948091850390E0CD
:1004A00001968F77992780938503FC01E757FC4FCE
:1004B00020818091840390E0982F8827820F911DDE
:1004C00008954091880350E04F5F5F4F4F77552765
:1004D0002091870330E042175307D1F3FA01E75F19
:1004E000FB4F808340938803E1ECF0E080818062E1
:1004F00080830895CF93DF93EC018881882331F0C6
:1005000021960E94610289918111FBCFDF91CF91E9
:100510000895F8948091860320918503789490E063
:1005200080589F4F821B91098F779927089593FFD9
:1005300007C081EF91E00E947A0220E038E01DC000
:1005400092FF07C08CE092E00E947A0220E034E043
:1005500014C091FF07C089E292E00E947A0220E075
:1005600032E00BC09C012227317090FF06C088E466
:1005700092E00E947A0220E031E0C9010895DF9202
:10058000EF92FF920F931F93CF93DF938C010E9402
:100590008902EC01892B09F441C00E944102F82E26
:1005A000D92E0E949702EC01892B31F08F2D9D2DC1
:1005B0000E949702EC0132C08DE0F8120EC08091CB
:1005C0007E02882329F010927E02C1E0D0E026C08E
:1005D000F8011082C1E0D0E021C0F8E0FF1619F068
:1005E0008FE7F81206C080917E02815080937E02D0
:1005F00015C080917E02803568F491E0980F909349
:100600007E02F801E80FF11DF082F801E90FF11DFB
:10061000108204C08FE592E00E947A02CE01DF9141
:10062000CF911F910F91FF90EF90DF9008951F924F
:100630000F920FB60F9211242F933F934F935F9316
:100640008F939F93EF93FF932091C8003091CE003A
:1006500028718091810290E001968F7799274091CF
:10066000800250E08417950739F080938102FC01E5
:10067000EC57FD4F308301C022E020937F02FF91B1
:10068000EF919F918F915F914F913F912F910F909B
:100690000FBE0F901F9018951F920F920FB60F92DA
:1006A00011248F939F93EF93FF93909183028091F6
:1006B0008202981779F08091820290E001968F77FC
:1006C000992780938202FC01EC5FFC4F808180932C
:1006D000CE0005C0E9ECF0E080818F7D8083FF9142
:1006E000EF919F918F910F900FBE0F901F901895D3
:1006F000F89410928302109282021092810210925A
:1007000080027894992324F422E02093C8009F77F4
:100710009093CD008093CC0088E98093C90086E057
:100720008093CA0008950F931F93CF93DF93823075
:10073000910510F482E090E0E091DB04F091DC049C
:1007400020E030E0A0E0B0E0309719F14081518125
:100750000281138148175907C8F08417950769F477
:10076000109731F012960C93129713961C9327C092
:100770000093DB041093DC0422C02115310519F02D
:100780004217530718F49A01BD01EF01DF01F80188
:10079000DBCF21153105F9F0281B390B2430310549
:1007A00080F48A819B816115710521F0FB0193839F
:1007B000828304C09093DC048093DB04FE013296B4
:1007C00044C0FE01E20FF31F81939193225031093F
:1007D000398328833AC02091D9043091DA04232B3D
:1007E00041F420910201309103013093DA04209307
:1007F000D90420910001309101012115310541F406
:100800002DB73EB74091040150910501241B350BD3
:10081000E091D904F091DA04E217F307A0F42E1B5B
:100820003F0B2817390778F0AC014E5F5F4F241754
:10083000350748F04E0F5F1F5093DA044093D904F8
:100840008193919302C0E0E0F0E0CF01DF91CF917E
:100850001F910F910895CF93DF93009709F481C002
:10086000FC01329713821282A091DB04B091DC0468
:10087000109781F420813181820F931F2091D90438
:100880003091DA042817390751F5F093DA04E09330
:10089000D90467C0ED0120E030E0CE17DF0740F457
:1008A0004A815B819E0141155105F1F0EA01F5CFC6
:1008B000D383C28340815181840F951FC817D90704
:1008C00059F488819981840F951F029691838083C2
:1008D0008A819B81938382832115310529F4F093CA
:1008E000DC04E093DB043DC0E901FB83EA8349912A
:1008F0005991C40FD51FEC17FD0761F480819181D8
:10090000840F951F0296E9019983888382819381E0
:100910009B838A83E0E0F0E012968D919C9113977F
:10092000009719F0FD01DC01F7CF8D919C91119793
:100930009D012E5F3F4F820F931F2091D90430916C
:10094000DA042817390769F4309729F41092DC0487
:100950001092DB0402C013821282B093DA04A093D7
:10096000D904DF91CF9108954CE752E00E94D3045F
:100970000895FB01DC018D91019080190110D9F3DC
:10098000990B0895FB01DC0101900D920020E1F725
:100990000895DC016C9161546A3108F060526F591E
:1009A0006D93C1F70895FA01A191B081009719F4F0
:1009B0001097E1F0CD01DC01CD010D90002011F484
:1009C000C00113C0FB012191222319F02015D9F792
:1009D000F3CFFB012191201519F41E92119606C048
:1009E0002223C1F70D900020A1F7D001FA01A193B5
:1009F000B0830895BB274A3031F4992322F4BDE235
:100A0000909581959F4F0C940605BB27FB015527B8
:100A1000AA27880F991FAA1FA41710F0A41B83955B
:100A20005051B9F7A05DAA3308F0A95DA1930097D2
:100A300079F7B111B1931192CB010C941607ABE089
:100A4000B0E0E5E2F5E00C94C0076C017B018A019F
:100A5000FC0117821682838181FFCCC1CE010196F1
:100A60003C01F6019381F70193FD859193FF8191FC
:100A70007F01882309F4BAC1853239F493FD859149
:100A800093FF81917F01853229F4B60190E00E94A5
:100A90002607E7CF912C212C312CFFE1F315D8F05C
:100AA0008B3279F038F4803279F08332A1F4232D3F
:100AB00020611DC08D3261F0803369F4232D2160E7
:100AC00016C0832D8260382EE32DE4603E2E2AC0AE
:100AD000F32DF8601DC037FC2DC020ED280F2A3003
:100AE00040F08E32B9F436FC81C1232D2064322EC1
:100AF00019C036FE06C08AE0989E200D1124922E61
:100B000011C0EAE02E9E200D1124222EF32DF0625A
:100B10003F2E08C08C3621F4832D8068382E02C009
:100B2000883641F4F70193FD859193FF81917F0110
:100B30008111B3CF982F9F7D9554933028F40C5F8B
:100B40001F4F9FE399830DC0833631F0833771F0D7
:100B5000833509F059C021C0F801808189830E5F77
:100B60001F4F88248394912C530113C02801F2E075
:100B70004F0E511CF801A080B18036FE03C0692DD4
:100B800070E002C06FEF7FEFC5010E940B074C01C0
:100B90008201F32DFF773F2E16C0280122E0420E7E
:100BA000511CF801A080B18036FE03C0692D70E0B1
:100BB00002C06FEF7FEFC5010E9400074C01F32DCB
:100BC000F0683F2E820133FC1BC0822D90E0881616
:100BD0009906B0F4B60180E290E00E9426072A94BC
:100BE000F4CFF50137FC859137FE81915F01B601A5
:100BF00090E00E94260721102A9421E0821A910891
:100C00008114910471F7E8C0843611F0893641F5FA
:100C1000F80137FE07C060817181828193810C5F8A
:100C20001F4F08C060817181072E000C880B990B43
:100C30000E5F1F4FF32DFF763F2E97FF09C0909553
:100C40008095709561957F4F8F4F9F4FF0683F2E35
:100C50002AE030E0A3010E946207882E861845C072
:100C6000853731F4232D2F7EB22E2AE030E025C0C7
:100C7000932D997FB92E8F36C1F018F4883579F00D
:100C8000B5C0803719F0883721F0B0C0E92FE06196
:100C9000BE2EB4FE0DC0FB2DF460BF2E09C034FE85
:100CA0000AC0292F2660B22E06C028E030E005C019
:100CB00020E130E002C020E132E0F801B7FE07C0D9
:100CC00060817181828193810C5F1F4F06C06081BA
:100CD000718180E090E00E5F1F4FA3010E946207C8
:100CE000882E8618FB2DFF773F2E36FE0DC0232D54
:100CF0002E7FA22E891458F434FE0BC032FC09C09A
:100D0000832D8E7EA82E05C0B82CA32C03C0B82C32
:100D100001C0B92CA4FE0FC0FE01E80DF11D8081B9
:100D2000803321F49A2D997EA92E09C0A2FE06C017
:100D3000B394B39404C08A2D867809F0B394A3FCCD
:100D400011C0A0FE06C0B21488F4280C922C9B1887
:100D50000EC0B21460F4B60180E290E00E94260753
:100D6000B394F7CFB21418F42B1802C0982C212C8E
:100D7000A4FE10C0B60180E390E00E942607A2FE08
:100D800017C0A1FC03C088E790E002C088E590E0AE
:100D9000B6010CC08A2D867859F0A1FE02C08BE204
:100DA00001C080E2A7FC8DE2B60190E00E94260718
:100DB000891438F4B60180E390E00E9426079A94E3
:100DC000F7CF8A94F301E80DF11D8081B60190E020
:100DD0000E9426078110F5CF222009F442CEB601E9
:100DE00080E290E00E9426072A94F6CFF6018681E1
:100DF000978102C08FEF9FEF2B96E2E10C94DC0706
:100E0000FC010590615070400110D8F780959095D5
:100E10008E0F9F1F0895FC016150704001900110DA
:100E2000D8F7809590958E0F9F1F0895DC01FC01E7
:100E3000672F71917723E1F7329704C07C916D930E
:100E400070836291AE17BF07C8F308950F931F9385
:100E5000CF93DF93FB01238121FD03C08FEF9FEF31
:100E60002CC022FF16C0468157812481358142174C
:100E7000530744F4A081B1819D012F5F3F4F31831F
:100E800020838C93268137812F5F3F4F37832683C2
:100E900014C08B01EC01FB010084F185E02D099564
:100EA000892BE1F6D80116968D919C9117970196A2
:100EB00017969C938E931697CE01DF91CF911F9139
:100EC0000F910895FA01AA27283051F1203181F1BC
:100ED000E8946F936E7F6E5F7F4F8F4F9F4FAF4F42
:100EE000B1E03ED0B4E03CD0670F781F891F9A1F55
:100EF000A11D680F791F8A1F911DA11D6A0F711D09
:100F0000811D911DA11D20D009F468943F912AE014
:100F1000269F11243019305D3193DEF6CF010895FC
:100F2000462F4770405D4193B3E00FD0C9F7F6CF2D
:100F3000462F4F70405D4A3318F0495D31FD4052F5
:100F4000419302D0A9F7EACFB4E0A695979587958B
:100F500077956795BA95C9F700976105710508956A
:100F60009B01AC010A2E0694579547953795279516
:100F7000BA95C9F7620F731F841F951FA01D0895AE
:100F80002F923F924F925F926F927F928F929F9299
:100F9000AF92BF92CF92DF92EF92FF920F931F9387
:100FA000CF93DF93CDB7DEB7CA1BDB0B0FB6F89438
:100FB000DEBF0FBECDBF09942A88398848885F8478
:100FC0006E847D848C849B84AA84B984C884DF80E9
:100FD000EE80FD800C811B81AA81B981CE0FD11DCD
:100FE0000FB6F894DEBF0FBECDBFED010895F894A3
:020FF000FFCF31
:100FF2000000DD042000007900766F6C757000003F
:101002000000000000000000007E00766F6C646F3C
:10101200776E000000000000000001830073657419
:10102200766F6C756D65000000000000766F6C7560
:10103200702064657465637465640D0A00766F6C74
:10104200646F776E2064657465637465640D0A006D
:10105200736574766F6C756D652064657465637411
:1010620065640D6E00617267633A20006172677693
:101072003A20004E6F742076616C696420636F6D54
:101082006D616E64210D0A00546F6F206D616E797F
:1010920020617267756D656E7473210D0A004D6172
:1010A200782061726720737472696E67206C656E56
:1010B200677468206578636565646564210D0A005C
:1010C200496E636F7272656374206E756D626572CC
:1010D200206F6620417267756D656E7473210D0A0B
:1010E20000554152545F4652414D455F4552524F61
:1010F20052206F63637572726564210055415254C8
:101102005F4F56455252554E5F4552524F52206FD5
:10111200636375727265642100554152545F425592
:10112200464645525F4F564552464C4F57206F63D5
:101132006375727265642100554152545F4E4F5F70
:1011420044415441206F6363757272656421004C9F
:10115200696E65206C656E67746820657863656585
:0C116200647320627566666572210000EF
:00000001FF
