S0120000566F6C4374726C5F46572E7372656350
S11300000C9496000C94B3000C94B3000C94B300BD
S11300100C94B3000C94B3000C94B3000C94B30090
S11300200C94B3000C94B3000C94B3000C94FD082E
S11300300C94B3000C94B3000C94B3000C94B30070
S11300400C94B3000C94B3000C94140A0C94490A55
S11300500C94B3000C942E090C94B3000C94B300CC
S11300600C94B3000C94B3000C94B3000C94B30040
S11300700C94B3000C94B3000C94B3000C94B30030
S11300800C94B3000C94D5010C94B3000C94B300FD
S11300900C94B3000C94B3000C94B3000C94B30010
S11300A00C94B3000C94B3000C94B3000C94B30000
S11300B00C94B30036060906090609060900000077
S11300C00A0A000003070B100B10000000000107D0
S11300D0070D0D00000105030A0E18030A040900A8
S11300E0101C283001010003050C0F1E050C040B25
S11300F0001015252501010002050C1122050C052F
S11301000C000000000001010002050C1122050C86
S1130110050C0010102020010100010F15070B072A
S11301200B070B0F14000F140001000011241FBE55
S1130130CFEFD8E0DEBFCDBF13E0A0E0B1E0EAEA44
S1130140FEE102C005900D92A431B107D9F724E075
S1130150A4E1B3E001C01D92AA3AB207E1F70E94FC
S113016044090C94530F0C940000CF92DF92EF9249
S1130170FF920F931F93CF93DF9300D000D01F9271
S1130180CDB7DEB7F82E6B0182E491E00E94C90A74
S113019087E591E00E94C90A0F2D10E04AE0BE01F4
S11301A06F5F7F4FC8010E94560C0E94C90A8BEFF3
S11301B091E00E94C90A10161106C4F48601EF2CBE
S11301C0F12CEE0CFF1CEC0CFD1C8EE591E00E9462
S11301D0C90AF801819191918F010E94C90A8BEF9C
S11301E091E00E94C90A0E151F0579F70F900F9030
S11301F00F900F900F90DF91CF911F910F91FF906F
S1130200EF90DF90CF9008958091500381110CC03E
S11302101092950010929400E1E9F0E080818460EE
S1130220808381E0809350030895E1E9F0E08081C8
S11302308B7F808310925003089539B129B133FB29
S1130240882780F990E0880F991F22FB992790F95D
S1130250892B813039F0823019F0811105C009C031
S113026081E0089582E0089581E00E94EA088FEF1A
S1130270089580E008955B985A980895883C910504
S113028028F08132934020F480E0089581E00895BD
S113029082E008950E941D01813039F018F0823007
S11302A0A9F011C05B985A9A08950E943B012FE768
S11302B089EA93E0215080409040E1F700C00000BB
S11302C05B985A9A089581E00E94EA08089585E6A9
S11302D091E00E94C90A80914D0390914E030E94BF
S11302E03E01813029F488E791E00E94C90A08950B
S11302F08091500381110FC00E9404010E941D01CE
S1130300811103C00E944A01089581E00E94EA0815
S11303100E943B01089510929500109294000E944F
S11303204A0108950E941D01882319F0823021F0AA
S113033008955B9A5A9808950E943B012FE789EA31
S113034093E0215080409040E1F700C000005B9AA8
S11303505A9808958DE891E00E94C90A80914D034E
S113036090914E030E943E01823029F48EE991E07F
S11303700E94C90A08958091500381110FC00E9400
S113038004010E941D01811103C00E94920108957D
S113039081E00E94EA080E943B01089510929500B2
S11303A0109294000E94920108951F920F920FB62A
S11303B00F9211242F933F934F935F936F937F93E7
S11303C08F939F93AF93BF93EF93FF9398B184E080
S11303D0892788B90E943B010E941501FF91EF9182
S11303E0BF91AF919F918F917F916F915F914F9149
S11303F03F912F910F900FBE0F901F901895AF92C1
S1130400BF92CF92DF92EF92FF920F931F93CF93FD
S1130410DF93CDB7DEB727970FB6F894DEBF0FBED4
S1130420CDBF8C010E94C90A8BEF91E00E94C90ADA
S113043080E29CE29A8389831B82C8010E94250C76
S1130440BE016F5F7F4FC8010E94100C5C0106E083
S113045011E00F2EFCE3CF2EF1E0DF2EF02DE12C86
S1130460F12CB8016D5F7F4FC5010E94150C892BDB
S113047009F478010E5E1F4F0C151D0591F7E11468
S1130480F10431F483EB91E00E94C90A8FEF87C035
S1130490BE016F5F7F4F80E090E00E94100C8C01E2
S11304A0892B09F469C0D12CD8018C918823B9F126
S11304B0F7018081D81618F4F1E0FD1528F486ECD4
S11304C091E00E94C90A37C0F80101900020E9F7C1
S11304D03197CF01801B910B992701968F3091059D
S11304E02CF08CED91E00E94C90A25C00E94E60A16
S11304F0ED2DF0E0EE0FFF1F21E030E02C0F3D1F4B
S1130500E20FF31F94838383009729F48EEF91E025
S11305100E94C90A10C0B8010E941E0CD394BE01E7
S11305206F5F7F4F80E090E00E94100C8C01892B5C
S113053009F0BACF22C0D7018C918D1123C0FF24BA
S1130540F39405C08AE192E00E94C90A1BC00D2DF4
S113055010E0101611065CF48C819D810E947E0BC4
S11305600230110524F08E819F810E947E0B81E070
S1130570F11015C080E013C0D12CF70180818D11DA
S1130580E1CF03C0FF24F394E2CF0180F281E02D98
S1130590BE016C5F7F4F8D2D0995F12CD8CF279626
S11305A00FB6F894DEBF0FBECDBFDF91CF911F9180
S11305B00F91FF90EF90DF90CF90BF90AF90089590
S11305C093FF07C08BE392E00E94C90A20E038E061
S11305D01DC092FF07C086E592E00E94C90A20E090
S11305E034E014C091FF07C083E792E00E94C90A77
S11305F020E032E00BC09C012227317090FF06C03E
S113060082E992E00E94C90A20E031E0C90108951C
S1130610FF920F931F93CF93DF93EC010E94D80AAC
S1130620892B09F447C00E94900A182FF92E0E94C2
S1130630E002009731F0812F9F2D0E94E00282603A
S11306403EC01D3049F420911603222319F0109264
S1130650160335C0188233C0183011F01F3779F4EF
S113066080911603882319F081508093160380919A
S11306701603C80FD11D188281E090E020C01A3003
S1130680E1F080911603803570F491E0980F909317
S11306901603FE01E80FF11D1083C90FD11D188246
S11306A081E090E00CC089EA92E00E94C90A81E0EE
S11306B090E005C081E090E002C081E090E0DF912D
S11306C0CF911F910F91FF90089520914203909133
S11306D04A03921748F130914303931728F5309158
S11306E048033323A9F0482F50E0692F621B9A0175
S11306F002C0220F331F6A95E2F740912E035091F6
S11307002F03242B352B30932F0320932E0338C033
S113071020912E0330912F03220F331F282B309367
S11307202F0320932E032CC020914403921740F1F1
S113073030914503931720F5309148033323A9F0F2
S1130740482F50E0692F621B9A0102C0220F331F09
S11307506A95E2F740912C0350912D03242B352BFD
S113076030932D0320932C030BC020912C03309144
S11307702D03220F331F282B30932D0320932C039A
S1130780209139032330C9F42FEE290F243008F0C7
S11307906DC0282F30E08FEE890F02C0220F331F67
S11307A08A95E2F740912A0350912B03242B352B91
S11307B030932B0320932A0359C0253009F056C0E7
S11307C02CEE290F2430A0F4282F30E048EF490FF5
S11307D002C0220F331F4A95E2F740912C03509137
S11307E02D03242B352B30932D0320932C0312C07F
S11307F028EE290F243070F4282F30E04CEE490FF6
S113080002C0220F331F4A95E2F730912303232BB2
S113081020932303903350F58823A1F0E92FE69524
S1130820E695E695F0E0EC5DFC4F892F877021E0BA
S113083030E002C0220F331F8A95E2F78081282B13
S1130840208314C0E92FE695E695E695F0E0EC5D8B
S1130850FC4F892F877021E030E002C0220F331F44
S11308608A95E2F720958081282320839F5F9093C7
S11308704A0308955E9856980895FC0180913803C0
S1130880882309F4B8C090913703933059F018F4D1
S1130890923099F18CC0973009F480C0923309F4F6
S11308A065C085C0209133033091340380913303B4
S11308B090913403232F33278095909599272817F7
S11308C0390709F088C08091330390913403992744
S11308D090933403809333038091310390913203D6
S11308E02091330330913403982F8827822B932B44
S11308F090933403809333035AC02091330330918F
S113090034038091330390913403232F332780954C
S1130910909599272817390751F4809133039091C2
S113092034039927909334038093330340C0809118
S11309303503909136038E3E974809F04CC08BE006
S1130940809337038091330390913403892F99273F
S1130950909336038093350380913303909134034D
S11309609927909334038093330321C02091330358
S1130970309134038091330390913403232F332730
S113098099272817390739F5809133039091340357
S11309909927909334038093330309C080913503DE
S11309A0909136038F7D9093360380933503809125
S11309B0370380838091350390913603928381833A
S11309C08091330390913403948383838091300323
S11309D0858381E003C01092370380E010923403D2
S11309E010923303109236031092350310923003A1
S11309F010923803089580E00895CF93DF9389B16E
S1130A0090913803911196C38074909122039111AF
S1130A1038C0811106C0809121038F5F8093210328
S1130A2089C3809121038823E9F081E08093220324
S1130A308093200310921F0310922D0310922C0315
S1130A4010922F0310922E031092230310922B0363
S1130A5010922A039FEF90934A0380931E031092EF
S1130A601D0368C380911B0390911C038F3F2FEFDC
S1130A70920709F45FC3019690931C0380931B03B0
S1130A8059C390912003992309F4ADC0882379F0C8
S1130A9080911E038F5F80931E038A3E08F443C235
S1130AA0109222031092210310921E0343C38091DB
S1130AB0210391EE980F9B3030F490911E039650D1
S1130AC0953008F43AC392EA980F943558F490910B
S1130AD01E0322ED290F2C3208F432C397519731AB
S1130AE008F431C394EC980F903130F490911E03C4
S1130AF09C53903108F42AC398ED980F973130F441
S1130B0090911E0393519D3008F423C395EF980FE1
S1130B10963020F09AEE980F9B3000F590911E03CA
S1130B2025EF290F263020F02AEE290F2B30B0F4C0
S1130B3090931A038151803118F09151903140F40F
S1130B401092190380E480931D0365EC70E003C3E5
S1130B5081E08093190365EC70E0FDC28650843017
S1130B6080F480911E039DED980F973050F480938C
S1130B701A0381E0809318038093190364EB70E0F7
S1130B80EAC21092220310924A038091490380FF23
S1130B9022C0909139039731F1F09930E1F020911E
S1130BA03B0340911E03241770F450E030E0220F01
S1130BB0331F241735073CF08695817091E089270F
S1130BC00E94650308C090911903911104C0869591
S1130BD081700E94650381E08093210310921E03BB
S1130BE0109220039BC190911F03992309F472C1B1
S1130BF0882309F4B7C29091460320914A039213C3
S1130C001CC0809147038130C1F48091490380FD69
S1130C100AC08091210390913E03891738F0909186
S1130C203F03981718F0109247037DC110922203D6
S1130C301092210310921E037DC280911E038F5FC8
S1130C4080931E0330913903313031F5482F50E041
S1130C504C3051050CF12B30F8F0E9E3F3E081E07E
S1130C60820F8587822F90E00B97982F88274091D9
S1130C702E0350912F03842B952B90932F03809355
S1130C802E038385280F2F5F24878AE080931E0319
S1130C90808980FFE5C06CC04091490340FF1DC0BE
S1130CA0682F70E040913D0350E0440F551F6417D6
S1130CB075079CF0622F70E0492F50E042505109B3
S1130CC06417750754F040914703411106C0E9E3E6
S1130CD0F3E081E0868780894BC08A3E08F423C113
S1130CE0422F50E0892F90E001974817590741F4AB
S1130CF080914703811104C02F5F20934A0313C1DD
S1130D00323011F03C3169F521112BC080911B0365
S1130D1090911C038830974008F5E9E3F3E081E003
S1130D20868782E08083158680913E0190913F0101
S1130D3090932F0380932E0380913C0190913D0169
S1130D4090932D0380932C038091300381608093D2
S1130D50300310921C0310921B03E5C01092380359
S1130D60E2C0109222031092210310921E03E2C1EA
S1130D709091210320913B03291798F48695817063
S1130D8091E089270E946503C9E3D3E088898695A9
S1130D9081700E9465038889869581708093190308
S1130DA022C080913A039817D0F080913D0320919E
S1130DB01A03821778F430E090E0880F991F8217A5
S1130DC0930744F081E090911903911180E080939E
S1130DD0190302C0809119030E94650304C0109294
S1130DE0220310921E0380911E0380931A03109213
S1130DF01F036CC080913903833091F580914A03BD
S1130E00803171F5809121038550883020F58091DF
S1130E101E0394EC980F903130F410921F0381E17B
S1130E2080934A0353C0E9E3F3E09AE0908390E1AE
S1130E30938790E2948795878F50803130F481E0D6
S1130E400E94650310921F0341C080E00E94650365
S1130E5010921F033BC01092220310921E0336C04F
S1130E608091210390913A038917A0F090913B035C
S1130E70981780F090911E0320913C03921750F034
S1130E8020913D03291730F081E00E946503109200
S1130E901F031CC090913E038917A0F090913F035B
S1130EA0981780F080911E0390914003891750F0A9
S1130EB090914103981730F080E00E9465031092EE
S1130EC01F0304C01092220310921E0381E080933A
S1130ED0210324C0811106C0809121038F5F809378
S1130EE0210321C081E080931F0380931E0380911E
S1130EF039038633C1F4809118038823A1F08091CB
S1130F002103873030F08750809321031092190316
S1130F1003C081E080931903109218038091220387
S1130F20882309F407C18091460390914A038913E9
S1130F3001C1909147039111FDC020913C01309172
S1130F403D0140912C0350912D032417350789F45A
S1130F5040911B0350911C03403B544050F490912A
S1130F6017039F5F9093170390913903913041F0D9
S1130F7012C01092170390913903913061F4F7C0B5
S1130F80809117038150823008F0F1C010921C0345
S1130F9010921B038FC041E040933803923011F547
S1130FA08111E9C040911B0350911C034830574004
S1130FB0B0F440913E0150913F0150932F03409370
S1130FC02E0330932D0320932C03809130038160F2
S1130FD08093300310921C0310921B03CCC0109218
S1130FE03803C9C09530C1F5E4E2F3E08081918112
S1130FF04281282F2F7082958F708227292F2F707E
S1131000822792959F709827892F90E0242F2F7024
S113101030E08217930711F010923803E4E2F3E012
S11310208381942F9827848189279581891310922D
S113103038039091300380912303892B80933003EC
S113104085E08093370380912E0390912F03909332
S11310503603809335031EC09093370320912E03EB
S113106030912F033093360320933503923029F4C3
S113107030933F0120933E010DC0973059F42091E5
S11310801D0380912C0390912D03822B90932D03AB
S113109080932C0380912C0390912D03909334031F
S11310A08093330380912A0390912B03909332030E
S11310B08093310380913803882391F180912C032C
S11310C090912D0320913C0130913D01281739075F
S11310D0B9F440913E0150913F0120912E0330918B
S11310E02F034217530761F420911B0330911C0313
S11310F02A3C384028F420913003216020933003A7
S113110020912E0330912F0330933F0120933E0111
S113111090933D0180933C0110921C0310921B0399
S11311201092220310922D0310922C03109221038B
S113113010921E038091380329C06AE171E00BC04C
S113114069E071E008C068EF70E005C067EE70E028
S113115002C066ED70E041E150E089E393E00E9453
S1131160070C11CD8091490380FF44CE01CE81E06C
S11311708093380371CF9093370320912E033091DD
S11311802F03309336032093350372CFDF91CF9131
S11311900895CF93DF93EC01FC01E60FF11D10825B
S11311A09FEF960F662391F0DE01A90FB11DFA019E
S11311B0EF70FF27EB53FD4F20812C9352954295FE
S11311C04F7045275F704527915070F7CE01DF912E
S11311D0CF910895882311F02D9A08952D9808959C
S11311E088E0809391008DE89BE59093990080932B
S11311F0980082E08093710008951F920F920FB6B9
S11312000F9211242F933F934F935F936F937F9388
S11312108F939F93AF93BF93EF93FF930E94FD042B
S1131220FF91EF91BF91AF919F918F917F916F91BA
S11312305F914F913F912F910F900FBE0F901F9090
S1131240189510927C00EAE7F0E08FEA80838081B1
S11312508064808381E080937E0008951F920F92C2
S11312600FB60F9211248F939F93809178009091E1
S1131270790090934E0380934D039F918F910F902B
S11312800FBE0F901F901895CF93DF93CDB7DEB7A5
S113129060970FB6F894DEBF0FBECDBF0E943A042C
S11312A08FE193E0909389008093880089E0809394
S11312B0810082E080936F000E94F0088CE090E04F
S11312C00E94750A2FEF82E597E0215080409040FC
S11312D0E1F700C0000086ED92E00E94C90A80E2B6
S11312E084B984E087B98CE08AB91BB880E00E9495
S11312F0EA080E942109789411E003E06894FF242D
S1131300F1F886E594E00E940803892B11F4109308
S11313104C03CE0101960E943D04811110934B03AE
S113132080914F03813009F459C038F0823009F4B8
S11313305CC0833009F475C0E4CF80914C038823EA
S113134021F010934F0310924C0380914B03882398
S1131350C1F2F0924F038CED92E00E94C90A4981D8
S113136050E06F2DCE0107960E94C908CE01079662
S11313700E94C90A89EE92E00E94C90A4A815B81EF
S113138064E0CE0107960E94C908CE0107960E9428
S1131390C90A88EF92E00E94C90A4C815D8164E029
S11313A0CE0107960E94C908CE0107960E94C90A79
S11313B087E093E00E94C90A4E8150E06F2DCE0170
S11313C007960E94C908CE0107960E94C90A8BEFAE
S11313D091E00E94C90A10924B0393CF86E594E0F2
S11313E00E94FF0100934F038CCF2C813D8180919B
S11313F0410190E02817390731F460E070E080E0A3
S11314000E94AA010BC08091400190E0281739077F
S113141029F460E070E080E00E94670100934F03CC
S113142070CF10924F036DCF1F920F920FB60F9291
S113143011242F933F934F935F938F939F93EF9335
S1131440FF932091C0003091C6002871809153030E
S113145090E001968F7799274091520350E08417CA
S1131460950739F080935303FC01EA5AFC4F30830B
S113147001C022E020935103FF91EF919F918F913E
S11314805F914F913F912F910F900FBE0F901F903E
S113149018951F920F920FB60F9211248F939F935A
S11314A0EF93FF939091550380915403981779F02B
S11314B08091540390E001968F7799278093540389
S11314C0FC01EA52FC4F80818093C60005C0E1EC28
S11314D0F0E080818F7D8083FF91EF919F918F91C8
S11314E00F900FBE0F901F901895F894109255030B
S11314F01092540310925303109252037894992338
S113150024F422E02093C0009F779093C500809339
S1131510C40088E98093C10086E08093C2000895E6
S1131520F8949091530380915203981304C07894D3
S113153080E091E0089578948091520390E00196C0
S11315408F77992780935203FC01EA5AFC4F20813C
S11315508091510390E0982F8827820F911D089560
S11315604091550350E04F5F5F4F4F7755272091CF
S1131570540330E042175307D1F3FA01EA52FC4F07
S1131580808340935503E1ECF0E0808180628083A6
S11315900895CF93DF93EC018881882331F021965D
S11315A00E94B00A89918111FBCFDF91CF910895F8
S11315B0F8948091530320915203789490E08058DA
S11315C09F4F821B91098F77992708950F931F933B
S11315D0CF93DF938230910510F482E090E0E091A4
S11315E0A804F091A90420E030E0A0E0B0E0309736
S11315F019F1408151810281138148175907C8F0BC
S11316008417950769F4109731F012960C9312978A
S113161013961C9327C00093A8041093A90422C016
S11316202115310519F04217530718F49A01BD0129
S1131630EF01DF01F801DBCF21153105F9F0281B9B
S1131640390B2430310580F48A819B816115710541
S113165021F0FB019383828304C09093A9048093B7
S1131660A804FE01329644C0FE01E20FF31F8193E9
S1131670919322503109398328833AC02091A604DA
S11316803091A704232B41F42091020130910301EE
S11316903093A7042093A604209100013091010106
S11316A02115310541F42DB73EB740910401509105
S11316B00501241B350BE091A604F091A704E21761
S11316C0F307A0F42E1B3F0B2817390778F0AC0161
S11316D04E5F5F4F2417350748F04E0F5F1F50933E
S11316E0A7044093A6048193919302C0E0E0F0E044
S11316F0CF01DF91CF911F910F910895CF93DF9385
S1131700009709F481C0FC01329713821282A091E0
S1131710A804B091A904109781F420813181820F2B
S1131720931F2091A6043091A7042817390751F577
S1131730F093A704E093A60467C0ED0120E030E035
S1131740CE17DF0740F44A815B819E0141155105A4
S1131750F1F0EA01F5CFD383C28340815181840F34
S1131760951FC817D90759F488819981840F951F4B
S11317700296918380838A819B819383828321153E
S1131780310529F4F093A904E093A8043DC0E901CC
S1131790FB83EA8349915991C40FD51FEC17FD07C8
S11317A061F480819181840F951F0296E9019983E8
S11317B08883828193819B838A83E0E0F0E01296A0
S11317C08D919C911397009719F0FD01DC01F7CFDF
S11317D08D919C9111979D012E5F3F4F820F931F16
S11317E02091A6043091A7042817390769F430978B
S11317F029F41092A9041092A80402C01382128240
S1131800B093A704A093A604DF91CF910895FB01A0
S1131810DC0102C005900D9241505040D8F7089564
S113182044E153E00E942F0C0895FB01DC018D91EB
S1131830019080190110D9F3990B0895FB01DC0183
S113184001900D920020E1F70895DC016C91615440
S11318506A3108F060526F596D93C1F70895FA0127
S1131860A191B081009719F41097E1F0CD01DC014A
S1131870CD010D90002011F4C00113C0FB01219192
S1131880222319F02015D9F7F3CFFB01219120155C
S113189019F41E92119606C02223C1F70D90002060
S11318A0A1F7D001FA01A193B0830895BB274A3070
S11318B031F4992322F4BDE2909581959F4F0C94C5
S11318C0620CBB27FB015527AA27880F991FAA1F63
S11318D0A41710F0A41B83955051B9F7A05DAA3347
S11318E008F0A95DA193009779F7B111B193119212
S11318F0CB010C94720EABE0B0E0E1E8FCE00C9498
S11319001C0F6C017B018A01FC0117821682838102
S113191081FFCCC1CE0101963C01F6019381F70110
S113192093FD859193FF81917F01882309F4BAC1C6
S1131930853239F493FD859193FF81917F0185323E
S113194029F4B60190E00E94820EE7CF912C212C5D
S1131950312CFFE1F315D8F08B3279F038F4803272
S113196079F08332A1F4232D20611DC08D3261F002
S1131970803369F4232D216016C0832D8260382EB4
S1131980E32DE4603E2E2AC0F32DF8601DC037FC21
S11319902DC020ED280F2A3040F08E32B9F436FCE9
S11319A081C1232D2064322E19C036FE06C08AE080
S11319B0989E200D1124922E11C0EAE02E9E200D37
S11319C01124222EF32DF0623F2E08C08C3621F410
S11319D0832D8068382E02C0883641F4F70193FDC8
S11319E0859193FF81917F018111B3CF982F9F7DC2
S11319F09554933028F40C5F1F4F9FE399830DC0D7
S1131A00833631F0833771F0833509F059C021C032
S1131A10F801808189830E5F1F4F88248394912C61
S1131A20530113C02801F2E04F0E511CF801A080AD
S1131A30B18036FE03C0692D70E002C06FEF7FEF06
S1131A40C5010E94670E4C018201F32DFF773F2EE2
S1131A5016C0280122E0420E511CF801A080B1807A
S1131A6036FE03C0692D70E002C06FEF7FEFC50141
S1131A700E945C0E4C01F32DF0683F2E820133FC72
S1131A801BC0822D90E088169906B0F4B60180E25E
S1131A9090E00E94820E2A94F4CFF50137FC8591E0
S1131AA037FE81915F01B60190E00E94820E211001
S1131AB02A9421E0821A91088114910471F7E8C0F4
S1131AC0843611F0893641F5F80137FE07C060818C
S1131AD07181828193810C5F1F4F08C06081718185
S1131AE0072E000C880B990B0E5F1F4FF32DFF760A
S1131AF03F2E97FF09C090958095709561957F4F13
S1131B008F4F9F4FF0683F2E2AE030E0A3010E94E0
S1131B10BE0E882E861845C0853731F4232D2F7EBE
S1131B20B22E2AE030E025C0932D997FB92E8F364E
S1131B30C1F018F4883579F0B5C0803719F08837CA
S1131B4021F0B0C0E92FE061BE2EB4FE0DC0FB2D24
S1131B50F460BF2E09C034FE0AC0292F2660B22EBD
S1131B6006C028E030E005C020E130E002C020E1FA
S1131B7032E0F801B7FE07C06081718182819381F0
S1131B800C5F1F4F06C06081718180E090E00E5FA2
S1131B901F4FA3010E94BE0E882E8618FB2DFF77CF
S1131BA03F2E36FE0DC0232D2E7FA22E891458F40D
S1131BB034FE0BC032FC09C0832D8E7EA82E05C0D6
S1131BC0B82CA32C03C0B82C01C0B92CA4FE0FC0A0
S1131BD0FE01E80DF11D8081803321F49A2D997E58
S1131BE0A92E09C0A2FE06C0B394B39404C08A2DE2
S1131BF0867809F0B394A3FC11C0A0FE06C0B21409
S1131C0088F4280C922C9B180EC0B21460F4B60110
S1131C1080E290E00E94820EB394F7CFB21418F4DD
S1131C202B1802C0982C212CA4FE10C0B60180E30E
S1131C3090E00E94820EA2FE17C0A1FC03C088E7B8
S1131C4090E002C088E590E0B6010CC08A2D867849
S1131C5059F0A1FE02C08BE201C080E2A7FC8DE234
S1131C60B60190E00E94820E891438F4B60180E334
S1131C7090E00E94820E9A94F7CF8A94F301E80DC3
S1131C80F11D8081B60190E00E94820E8110F5CF93
S1131C90222009F442CEB60180E290E00E94820E36
S1131CA02A94F6CFF6018681978102C08FEF9FEFC9
S1131CB02B96E2E10C94380FFC01059061507040C2
S1131CC00110D8F7809590958E0F9F1F0895FC0101
S1131CD06150704001900110D8F7809590958E0F57
S1131CE09F1F0895DC01FC01672F71917723E1F7B1
S1131CF0329704C07C916D9370836291AE17BF07D5
S1131D00C8F308950F931F93CF93DF93FB012381AF
S1131D1021FD03C08FEF9FEF2CC022FF16C0468128
S1131D205781248135814217530744F4A081B1813E
S1131D309D012F5F3F4F318320838C932681378110
S1131D402F5F3F4F3783268314C08B01EC01FB01C7
S1131D500084F185E02D0995892BE1F6D8011696CA
S1131D608D919C911797019617969C938E93169735
S1131D70CE01DF91CF911F910F910895FA01AA2707
S1131D80283051F1203181F1E8946F936E7F6E5FBA
S1131D907F4F8F4F9F4FAF4FB1E03ED0B4E03CD068
S1131DA0670F781F891F9A1FA11D680F791F8A1F4B
S1131DB0911DA11D6A0F711D811D911DA11D20D0B2
S1131DC009F468943F912AE0269F11243019305D6C
S1131DD03193DEF6CF010895462F4770405D41935D
S1131DE0B3E00FD0C9F7F6CF462F4F70405D4A33AA
S1131DF018F0495D31FD4052419302D0A9F7EACF72
S1131E00B4E0A6959795879577956795BA95C9F7A0
S1131E1000976105710508959B01AC010A2E069493
S1131E205795479537952795BA95C9F7620F731F4C
S1131E30841F951FA01D08952F923F924F925F9289
S1131E406F927F928F929F92AF92BF92CF92DF92C6
S1131E50EF92FF920F931F93CF93DF93CDB7DEB72B
S1131E60CA1BDB0B0FB6F894DEBF0FBECDBF0994BF
S1131E702A88398848885F846E847D848C849B8416
S1131E80AA84B984C884DF80EE80FD800C811B8124
S1131E90AA81B981CE0FD11D0FB6F894DEBF0FBE53
S10D1EA0CDBFED010895F894FFCFC3
S1131EAA0000AA04200000AA01766F6C7570000075
S1131EBA0000000000000000006701766F6C646F88
S1131ECA776E000000000000000002B5007365741C
S1131EDA766F6C000000000000000000FFFFFFFFA7
S1131EEA1110736574766F6C756D6520646574651D
S1131EFA637465640D0A00617267633A2000617253
S1131F0A67763A2000766F6C646F776E2064657426
S1131F1A65637465640D0A004D6F746F7220402006
S1131F2A6C6F776572206C696D210D0A00766F6C8F
S1131F3A75702064657465637465640D0A004D6F79
S1131F4A746F722040207570706572206C696D21FF
S1131F5A0D0A00556E6B6E6F776E20636F6D6D613F
S1131F6A6E64210D0A00546F6F206D616E792061D1
S1131F7A7267756D656E7473210D0A004D61782060
S1131F8A61726720737472696E67206C656E677418
S1131F9A68206578636565646564210D0A004D658A
S1131FAA6D6F727920616C6C6F636174696F6E20F6
S1131FBA6661696C6564210D0A00496E636F727209
S1131FCA656374206E756D626572206F6620417256
S1131FDA67756D656E7473210D0A00554152545F1D
S1131FEA4652414D455F4552524F52206F636375C5
S1131FFA727265642100554152545F4F56455252DC
S113200A554E5F4552524F52206F63637572726523
S113201A642100554152545F4255464645525F4F2A
S113202A564552464C4F57206F6363757272656406
S113203A2100554152545F4E4F5F44415441206F31
S113204A6363757272656421004C696E65206C6500
S113205A6E67746820657863656564732062756663
S113206A66657221003031323334353637383941B6
S113207A424344454600626F6F74210070726F7464
S113208A6F636F6C3A203078002020206164647298
S113209A6573733A20307800202020636F6D6D6178
S11320AA6E643A20307800202020666C6167733AA7
S10720BA2030780056
S9030000FC
