S0120000566F6C4374726C5F46572E7372656350
S11300000C945A000C9477000C9477000C947700AD
S11300100C9477000C9477000C9477000C94770080
S11300200C9477000C9477000C9477000C94770070
S11300300C9477000C9477000C9477000C94770060
S11300400C9477000C9477000C94C7010C94FC0179
S11300500C9477000C9477000C9477000C94770040
S11300600C9477000C9477000C9477000C94770030
S11300700C941B030C9450030C9477000C9477009D
S11300800C9477000C9477000C9477000C94770010
S11300900C9477000C9477000C9477000C94770000
S11300A00C9477000C9477000C9477000C947700F0
S11300B00C94770011241FBECFEFD8E0DEBFCDBF74
S11300C012E0A0E0B1E0EAEFFFE002C005900D927B
S11300D0A839B107D9F724E0A8E9B2E001C01D921C
S11300E0A93FB207E1F70E94B3010C94FB070C94FB
S11300F000008CE391E00E947C0208958DE491E07D
S11301000E947C020895CF92DF92EF92FF920F93A8
S11301101F93CF93DF9300D000D01F92CDB7DEB7EB
S1130120F82E6B0180E691E00E947C0285E791E065
S11301300E947C020F2D10E04AE0BE016F5F7F4FEA
S1130140C8010E94FE040E947C028DEC91E00E9492
S11301507C0210161106C4F48601EF2CF12CEE0C6F
S1130160FF1CEC0CFD1C8CE791E00E947C02F80162
S1130170819191918F010E947C028DEC91E00E940B
S11301807C020E151F0579F70F900F900F900F90BA
S11301900F90DF91CF911F910F91FF90EF90DF901F
S11301A0CF900895AF92BF92CF92DF92EF92FF92D9
S11301B00F931F93CF93DF93CDB7DEB727970FB677
S11301C0F894DEBF0FBECDBF8C010E947C028DEC83
S11301D091E00E947C0280E29CE29A8389831B82E4
S11301E0C8010E94CD04BE016F5F7F4FC8010E9409
S11301F0B8045C0106E011E00F2EFCE3CF2EF1E021
S1130200DF2EF02DE12CF12CB8016D5F7F4FC5017D
S11302100E94BD04892B09F478010E5E1F4F0C1552
S11302201D0591F7E114F10431F483E891E00E9493
S11302307C028FEF87C0BE016F5F7F4F80E090E04C
S11302400E94B8048C01892B09F469C0D12CD8010F
S11302508C918823B9F1F7018081D81618F4F1E064
S1130260FD1528F488E991E00E947C0237C0F8016A
S113027001900020E9F73197CF01801B910B99275A
S113028001968F3091052CF08EEA91E00E947C0259
S113029025C00E949703ED2DF0E0EE0FFF1F21E033
S11302A030E02C0F3D1FE20FF31F948383830097EC
S11302B029F480ED91E00E947C0210C0B8010E94F4
S11302C0C604D394BE016F5F7F4F80E090E00E942C
S11302D0B8048C01892B09F0BACF22C0D7018C91C4
S11302E08D1123C0FF24F39405C08CEE91E00E948D
S11302F07C021BC00D2D10E0101611065CF48C81DD
S11303009D810E942F040230110524F08E819F816B
S11303100E942F0481E0F11015C080E013C0D12C9D
S1130320F70180818D11E1CF03C0FF24F394E2CF64
S11303300180F281E02DBE016C5F7F4F8D2D099508
S1130340F12CD8CF27960FB6F894DEBF0FBECDBFE1
S1130350DF91CF911F910F91FF90EF90DF90CF909D
S1130360BF90AF900895789481E890E00E942802AD
S113037081E890E00E947C0385EA94E00E94C10237
S1130380892BD1F385EA94E00E94D200F5CF1F9225
S11303900F920FB60F9211242F933F934F935F93B5
S11303A08F939F93EF93FF932091C0003091C600E9
S11303B028718091A20390E001968F77992740914C
S11303C0A10350E08417950739F08093A203FC0140
S11303D0EB55FC4F308301C022E02093A003FF9132
S11303E0EF919F918F915F914F913F912F910F903A
S11303F00FBE0F901F9018951F920F920FB60F9279
S113040011248F939F93EF93FF939091A403809172
S1130410A303981779F08091A30390E001968F7756
S113042099278093A303FC01EB5DFB4F80818093AC
S1130430C60005C0E1ECF0E080818F7D8083FF91F0
S1130440EF919F918F910F900FBE0F901F90189571
S1130450F8941092A4031092A3031092A203109292
S1130460A1037894992324F422E02093C0009F7779
S11304709093C5008093C40088E98093C10086E00E
S11304808093C2000895F8949091A2038091A103EF
S1130490981304C0789480E091E008957894809152
S11304A0A10390E001968F7799278093A103FC0123
S11304B0EB55FC4F20818091A00390E0982F882772
S11304C0820F911D08954091A40350E04F5F5F4F48
S11304D04F7755272091A30330E042175307D1F3F8
S11304E0FA01EB5DFB4F80834093A403E1ECF0E061
S11304F08081806280830895CF93DF93EC018881AB
S1130500882331F021960E94630289918111FBCFE7
S1130510DF91CF910895F8948091A2032091A103D3
S1130520789490E080589F4F821B91098F77992788
S1130530089593FF07C08DE092E00E947C0220E0C2
S113054038E01DC092FF07C088E292E00E947C025E
S113055020E034E014C091FF07C085E492E00E94DB
S11305607C0220E032E00BC09C012227317090FF16
S113057006C084E692E00E947C0220E031E0C901DA
S11305800895DF92EF92FF920F931F93CF93DF931F
S11305908C010E948B02EC01892B09F443C00E9458
S11305A04302F82ED92E0E949902EC01892B31F0D6
S11305B08F2D9D2D0E949902EC0134C08DE0F8121C
S11305C00EC080919A02882329F010929A02C1E009
S11305D0D0E028C0F8011082C1E0D0E023C0F8E0E8
S11305E0FF1619F08FE7F81208C080919A02823042
S11305F0C8F0815080939A0215C080919A02803588
S113060068F491E0980F90939A02F801E80FF11DB5
S1130610F082F801E90FF11D108204C08BE792E02B
S11306200E947C02CE01DF91CF911F910F91FF9028
S1130630EF90DF9008951F920F920FB60F9211243E
S11306402F933F934F935F938F939F93EF93FF93D6
S11306502091C8003091CE00287180919D0290E0D5
S113066001968F77992740919C0250E08417950753
S113067039F080939D02FC01E056FD4F308301C0A8
S113068022E020939B02FF91EF919F918F915F91C4
S11306904F913F912F910F900FBE0F901F9018957F
S11306A01F920F920FB60F9211248F939F93EF9383
S11306B0FF9390919F0280919E02981779F0809108
S11306C09E0290E001968F77992780939E02FC0109
S11306D0E05EFC4F80818093CE0005C0E9ECF0E041
S11306E080818F7D8083FF91EF919F918F910F90F7
S11306F00FBE0F901F901895F89410929F021092BD
S11307009E0210929D0210929C027894992324F4E4
S113071022E02093C8009F779093CD008093CC0073
S113072088E98093C90086E08093CA0008950F93F6
S11307301F93CF93DF938230910510F482E090E011
S1130740E091F704F091F80420E030E0A0E0B0E09C
S1130750309719F14081518102811381481759075B
S1130760C8F08417950769F4109731F012960C932A
S1130770129713961C9327C00093F7041093F80460
S113078022C02115310519F04217530718F49A01B4
S1130790BD01EF01DF01F801DBCF21153105F9F0CF
S11307A0281B390B2430310580F48A819B81611523
S11307B0710521F0FB019383828304C09093F804B4
S11307C08093F704FE01329644C0FE01E20FF31F4A
S11307D08193919322503109398328833AC020911F
S11307E0F5043091F604232B41F420910201309159
S11307F003013093F6042093F50420910001309115
S113080001012115310541F42DB73EB74091040192
S113081050910501241B350BE091F504F091F60489
S1130820E217F307A0F42E1B3F0B2817390778F0C3
S1130830AC014E5F5F4F2417350748F04E0F5F1F22
S11308405093F6044093F5048193919302C0E0E041
S1130850F0E0CF01DF91CF911F910F910895CF93D5
S1130860DF93009709F481C0FC013297138212824E
S1130870A091F704B091F804109781F4208131819C
S1130880820F931F2091F5043091F604281739073D
S113089051F5F093F604E093F50467C0ED0120E010
S11308A030E0CE17DF0740F44A815B819E01411599
S11308B05105F1F0EA01F5CFD383C2834081518120
S11308C0840F951FC817D90759F488819981840F1B
S11308D0951F0296918380838A819B81938382836F
S11308E02115310529F4F093F804E093F7043DC091
S11308F0E901FB83EA8349915991C40FD51FEC1791
S1130900FD0761F480819181840F951F0296E901AE
S113091099838883828193819B838A83E0E0F0E0DA
S113092012968D919C911397009719F0FD01DC01AB
S1130930F7CF8D919C9111979D012E5F3F4F820FB0
S1130940931F2091F5043091F6042817390769F4B0
S1130950309729F41092F8041092F70402C013821D
S11309601282B093F604A093F504DF91CF91089519
S113097048E952E00E94D7040895FB01DC018D91FF
S1130980019080190110D9F3990B0895FB01DC0142
S113099001900D920020E1F70895DC016C916154FF
S11309A06A3108F060526F596D93C1F70895FA01E6
S11309B0A191B081009719F41097E1F0CD01DC0109
S11309C0CD010D90002011F4C00113C0FB01219151
S11309D0222319F02015D9F7F3CFFB01219120151B
S11309E019F41E92119606C02223C1F70D9000201F
S11309F0A1F7D001FA01A193B0830895BB274A302F
S1130A0031F4992322F4BDE2909581959F4F0C9483
S1130A100A05BB27FB015527AA27880F991FAA1F80
S1130A20A41710F0A41B83955051B9F7A05DAA3305
S1130A3008F0A95DA193009779F7B111B1931192D0
S1130A40CB010C941A07ABE0B0E0E9E2F5E00C94BA
S1130A50C4076C017B018A01FC0117821682838121
S1130A6081FFCCC1CE0101963C01F6019381F701CF
S1130A7093FD859193FF81917F01882309F4BAC185
S1130A80853239F493FD859193FF81917F018532FD
S1130A9029F4B60190E00E942A07E7CF912C212C7B
S1130AA0312CFFE1F315D8F08B3279F038F4803231
S1130AB079F08332A1F4232D20611DC08D3261F0C1
S1130AC0803369F4232D216016C0832D8260382E73
S1130AD0E32DE4603E2E2AC0F32DF8601DC037FCE0
S1130AE02DC020ED280F2A3040F08E32B9F436FCA8
S1130AF081C1232D2064322E19C036FE06C08AE03F
S1130B00989E200D1124922E11C0EAE02E9E200DF5
S1130B101124222EF32DF0623F2E08C08C3621F4CE
S1130B20832D8068382E02C0883641F4F70193FD86
S1130B30859193FF81917F018111B3CF982F9F7D80
S1130B409554933028F40C5F1F4F9FE399830DC095
S1130B50833631F0833771F0833509F059C021C0F1
S1130B60F801808189830E5F1F4F88248394912C20
S1130B70530113C02801F2E04F0E511CF801A0806C
S1130B80B18036FE03C0692D70E002C06FEF7FEFC5
S1130B90C5010E940F074C018201F32DFF773F2E00
S1130BA016C0280122E0420E511CF801A080B18039
S1130BB036FE03C0692D70E002C06FEF7FEFC50100
S1130BC00E9404074C01F32DF0683F2E820133FC90
S1130BD01BC0822D90E088169906B0F4B60180E21D
S1130BE090E00E942A072A94F4CFF50137FC8591FE
S1130BF037FE81915F01B60190E00E942A0721101F
S1130C002A9421E0821A91088114910471F7E8C0B2
S1130C10843611F0893641F5F80137FE07C060814A
S1130C207181828193810C5F1F4F08C06081718143
S1130C30072E000C880B990B0E5F1F4FF32DFF76C8
S1130C403F2E97FF09C090958095709561957F4FD1
S1130C508F4F9F4FF0683F2E2AE030E0A3010E949F
S1130C606607882E861845C0853731F4232D2F7EDC
S1130C70B22E2AE030E025C0932D997FB92E8F360D
S1130C80C1F018F4883579F0B5C0803719F0883789
S1130C9021F0B0C0E92FE061BE2EB4FE0DC0FB2DE3
S1130CA0F460BF2E09C034FE0AC0292F2660B22E7C
S1130CB006C028E030E005C020E130E002C020E1B9
S1130CC032E0F801B7FE07C06081718182819381AF
S1130CD00C5F1F4F06C06081718180E090E00E5F61
S1130CE01F4FA3010E946607882E8618FB2DFF77ED
S1130CF03F2E36FE0DC0232D2E7FA22E891458F4CC
S1130D0034FE0BC032FC09C0832D8E7EA82E05C094
S1130D10B82CA32C03C0B82C01C0B92CA4FE0FC05E
S1130D20FE01E80DF11D8081803321F49A2D997E16
S1130D30A92E09C0A2FE06C0B394B39404C08A2DA0
S1130D40867809F0B394A3FC11C0A0FE06C0B214C7
S1130D5088F4280C922C9B180EC0B21460F4B601CF
S1130D6080E290E00E942A07B394F7CFB21418F4FB
S1130D702B1802C0982C212CA4FE10C0B60180E3CD
S1130D8090E00E942A07A2FE17C0A1FC03C088E7D6
S1130D9090E002C088E590E0B6010CC08A2D867808
S1130DA059F0A1FE02C08BE201C080E2A7FC8DE2F3
S1130DB0B60190E00E942A07891438F4B60180E352
S1130DC090E00E942A079A94F7CF8A94F301E80DE1
S1130DD0F11D8081B60190E00E942A078110F5CFB1
S1130DE0222009F442CEB60180E290E00E942A0754
S1130DF02A94F6CFF6018681978102C08FEF9FEF88
S1130E002B96E2E10C94E007FC01059061507040E0
S1130E100110D8F7809590958E0F9F1F0895FC01BF
S1130E206150704001900110D8F7809590958E0F15
S1130E309F1F0895DC01FC01672F71917723E1F76F
S1130E40329704C07C916D9370836291AE17BF0793
S1130E50C8F308950F931F93CF93DF93FB0123816E
S1130E6021FD03C08FEF9FEF2CC022FF16C04681E7
S1130E705781248135814217530744F4A081B181FD
S1130E809D012F5F3F4F318320838C9326813781CF
S1130E902F5F3F4F3783268314C08B01EC01FB0186
S1130EA00084F185E02D0995892BE1F6D801169689
S1130EB08D919C911797019617969C938E931697F4
S1130EC0CE01DF91CF911F910F910895FA01AA27C6
S1130ED0283051F1203181F1E8946F936E7F6E5F79
S1130EE07F4F8F4F9F4FAF4FB1E03ED0B4E03CD027
S1130EF0670F781F891F9A1FA11D680F791F8A1F0A
S1130F00911DA11D6A0F711D811D911DA11D20D070
S1130F1009F468943F912AE0269F11243019305D2A
S1130F203193DEF6CF010895462F4770405D41931B
S1130F30B3E00FD0C9F7F6CF462F4F70405D4A3368
S1130F4018F0495D31FD4052419302D0A9F7EACF30
S1130F50B4E0A6959795879577956795BA95C9F75F
S1130F6000976105710508959B01AC010A2E069452
S1130F705795479537952795BA95C9F7620F731F0B
S1130F80841F951FA01D08952F923F924F925F9248
S1130F906F927F928F929F92AF92BF92CF92DF9285
S1130FA0EF92FF920F931F93CF93DF93CDB7DEB7EA
S1130FB0CA1BDB0B0FB6F894DEBF0FBECDBF09947E
S1130FC02A88398848885F846E847D848C849B84D5
S1130FD0AA84B984C884DF80EE80FD800C811B81E3
S1130FE0AA81B981CE0FD11D0FB6F894DEBF0FBE12
S10D0FF0CDBFED010895F894FFCF82
S1130FFA0000F9042000007900766F6C7570000017
S113100A0000000000000000007E00766F6C646F30
S113101A776E00000000000000000183007365740D
S113102A766F6C756D65000000000000766F6C7554
S113103A702064657465637465640D0A00766F6C68
S113104A646F776E2064657465637465640D0A0061
S113105A736574766F6C756D652064657465637405
S113106A65640D6E00617267633A20006172677687
S113107A3A20004E6F742076616C696420636F6D48
S113108A6D616E64210D0A00546F6F206D616E7973
S113109A20617267756D656E7473210D0A004D6166
S11310AA782061726720737472696E67206C656E4A
S11310BA677468206578636565646564210D0A0050
S11310CA4D656D6F727920616C6C6F636174696FC1
S11310DA6E206661696C6564210D0A00496E636F4E
S11310EA7272656374206E756D626572206F662014
S11310FA417267756D656E7473210D0A005541520C
S113110A545F4652414D455F4552524F52206F63D8
S113111A6375727265642100554152545F4F564596
S113112A5252554E5F4552524F52206F6363757245
S113113A7265642100554152545F425546464552F0
S113114A5F4F564552464C4F57206F636375727210
S113115A65642100554152545F4E4F5F44415441E6
S113116A206F6363757272656421004C696E652031
S113117A6C656E677468206578636565647320625C
S10B118A756666657221000020
S9030000FC
