:100000000C94D0000C94ED000C94ED000C94ED00D9
:100010000C94ED000C94ED000C94ED000C94ED00AC
:100020000C94ED000C94ED000C94ED000C949A0BE4
:100030000C94ED000C94ED000C94ED000C94ED008C
:100040000C94ED000C94ED000C94410C0C94760C87
:100050000C94ED000C94E20B0C94ED000C94ED006C
:100060000C94ED000C94ED000C94ED000C94ED005C
:100070000C94ED000C94ED000C94ED000C94ED004C
:100080000C94ED000C94BE0B0C94ED000C94ED0060
:100090000C94ED000C94ED000C94ED000C94ED002C
:1000A0000C94ED000C94ED000C94ED000C94ED001C
:1000B0000C94ED0023049504C004A905C105EB04CC
:1000C0004A050A000B000B000C000D000F00110088
:1000D0001500180019001C001E00250030003B0010
:1000E00045004F005A00660072007D0088009300B2
:1000F0009C00AA00BA00BF00C400CF00DC00E800EA
:10010000F20000011701340155017F01B601F4012D
:1001100031026E02AB02E70223035D039703CE03B5
:10012000F103FC03FF03FF0336060906090609066F
:10013000090000000A0A000003070B100B10000062
:1001400000000107070D0D00000105030A0E18034A
:100150000A040900101C283001010003050C0F1EC1
:10016000050C040B001015252501010002050C11DA
:1001700022050C050C000000000001010002050C26
:100180001122050C050C0010102020010100010FA8
:1001900015070B070B070B0F14000F1400010000CD
:1001A00011241FBECFEFD8E0DEBFCDBF13E0A0E02B
:1001B000B1E0E8E7F3E202C005900D92AE3BB10773
:1001C000D9F725E0AEEBB3E001C01D92AC35B20724
:1001D000E1F70E94F80B0C94BA110C940000CF9335
:1001E000DF93CDB7DEB72A970FB6F894DEBF0FBE08
:1001F000CDBF84E591E00E94F60CF8948091F9035C
:100200009091FA034AE0BE016F5F7F4F0E94B50EE6
:100210000E94F60C78948AE693E00E94F60C2A96E7
:100220000FB6F894DEBF0FBECDBFDF91CF9108951A
:100230008091FC0381110CC01092950010929400E3
:10024000E1E9F0E080818460808381E08093FC03B9
:100250000895E1E9F0E080818B7F80831092FC03B8
:100260000895109295001092940008955B985A9802
:100270002FEF80E792E0215080409040E1F700C0EE
:10028000000008958B30910528F08F3F934020F4B3
:1002900080E0089581E0089582E0089580E691E08D
:1002A0000E94F60C81E08093FB03089581E791E0C2
:1002B0000E94F60C82E08093FB030895CF92DF92B8
:1002C000EF92FF920F931F93CF93DF9300D000D054
:1002D0001F92CDB7DEB7E82E6B0184E891E00E9453
:1002E000F60C89E991E00E94F60C0E2D10E04AE030
:1002F000BE016F5F7F4FC8010E94B50E0E94F60CD1
:100300008AE693E00E94F60C10161106BCF48601F2
:10031000F12CEE0CFF1CEC0CFD1C80EA91E00E941D
:10032000F60CF801819191918F010E94F60C8AE6FA
:1003300093E00E94F60C0E151F0579F7F6018081F7
:1003400091810E943A0E8536910528F087EA91E066
:100350000E94F60C24C0FC0199230CF43196EE7F28
:10036000EE53FF4F859194919093F8038093F70398
:1003700083E08093FB0380EC91E00E94F60C4AE05E
:10038000BE016F5F7F4F8091F7039091F8030E9449
:10039000B50E0E94F60C8AE693E00E94F60C0F90D0
:1003A0000F900F900F900F90DF91CF911F910F91B1
:1003B000FF90EF90DF90CF900895882311F02D9A51
:1003C00008952D98089539B129B133FB882780F914
:1003D00090E0880F991F22FB992790F9892B813093
:1003E00039F0823019F0811105C009C081E008950B
:1003F00082E0089581E00E94DD018FEF089580E0A2
:1004000008950E94E301882319F0823021F00895B5
:100410005B9A5A9808950E9436010E9429012FEF95
:1004200080E792E0215080409040E1F700C000005A
:1004300008950E94E301813039F018F08230A9F06C
:1004400011C05B985A9A08950E9436010E942901B2
:100450002FEF80E792E0215080409040E1F700C00C
:100460000000089581E00E94DD010895AF92BF92DF
:10047000CF92DF92EF92FF920F931F93CF93DF9370
:10048000CDB7DEB727970FB6F894DEBF0FBECDBF4E
:100490008C010E94F60C8AE693E00E94F60C80E242
:1004A0009CE29A8389831B82C8010E94760EBE015A
:1004B0006F5F7F4FC8010E94610E5C010CE011E08C
:1004C0000F2EF4E5CF2EF1E0DF2EF02DE12CF12CF4
:1004D000B8016D5F7F4FC5010E94660E892B09F43C
:1004E00078010E5E1F4F0C151D0591F7E114F10404
:1004F00031F483ED91E00E94F60C8FEF87C0BE01CE
:100500006F5F7F4F80E090E00E94610E8C01892B2D
:1005100009F469C0D12CD8018C918823B9F1F70175
:100520008081D81618F4F1E0FD1528F486EE91E0EC
:100530000E94F60C37C0F80101900020E9F73197CE
:10054000CF01801B910B992701968F3091052CF0DC
:1005500084E292E00E94F60C25C00E94190DED2D58
:10056000F0E0EE0FFF1F21E030E02C0F3D1FE20F07
:10057000F31F94838383009729F487E492E00E9419
:10058000F60C10C0B8010E946F0ED394BE016F5FCD
:100590007F4F80E090E00E94610E8C01892B09F072
:1005A000BACF22C0D7018C918D1123C0FF24F394C0
:1005B00005C083E692E00E94F60C1BC00D2D10E0F2
:1005C000101611065CF48C819D810E94B10D0230E1
:1005D000110524F08E819F810E94B10D81E0F11000
:1005E00015C080E013C0D12CF70180818D11E1CFBF
:1005F00003C0FF24F394E2CF0180F281E02DBE011D
:100600006C5F7F4F8D2D0995F12CD8CF27960FB6B3
:10061000F894DEBF0FBECDBFDF91CF911F910F9138
:10062000FF90EF90DF90CF90BF90AF9008950F9321
:100630001F93CF93DF93FC0101900020E9F73197DE
:10064000E81BF90BEE2361F1E150CE2FD0E0DC0185
:10065000AC0FBD1F2C91203279F4EE2319F1E1503B
:10066000CE2FD0E0DC01AC0FBD1F2C91203221F445
:10067000E111F5CF8FEF1DC0EE23B1F08C01AE017B
:100680006FE071E00E94800E892B81F0AE0161E283
:1006900071E0C8010E94800E892B51F08FEF09C0D4
:1006A0008FEF07C08FEF05C08FEF03C080E001C060
:1006B00081E0DF91CF911F910F91089593FF07C0C3
:1006C00084E892E00E94F60C20E038E01DC092FF22
:1006D00007C08FE992E00E94F60C20E034E014C0DD
:1006E00091FF07C08CEB92E00E94F60C20E032E014
:1006F0000BC09C012227317090FF06C08BED92E069
:100700000E94F60C20E031E0C9010895FF920F939A
:100710001F93CF93DF93EC010E94050D892B09F401
:1007200047C00E94BD0C182FF92E0E945E0300974F
:1007300031F0812F9F2D0E945E0382603EC01D30EC
:1007400049F42091C003222319F01092C00335C050
:10075000188233C0183011F01F3779F48091C0032C
:10076000882319F081508093C0038091C003C80F83
:10077000D11D188281E090E020C01A30E1F0809114
:10078000C003803570F491E0980F9093C003FE0190
:10079000E80FF11D1083C90FD11D188281E090E090
:1007A0000CC082EF92E00E94F60C81E090E005C060
:1007B00081E090E002C081E090E0DF91CF911F9155
:1007C0000F91FF900895CF93DF93EC01FC01E60FAA
:1007D000F11D10829FEF960F662391F0DE01A90FA5
:1007E000B11DFA01EF70FF27E25FFC4F20812C93CF
:1007F000529542954F7045275F704527915070F78D
:10080000CE01DF91CF9108950F931F93CF93DF9384
:10081000CDB7DEB72A970FB6F894DEBF0FBECDBFB7
:10082000F8940091F9031091FA037894E091FB0396
:100830008E2F90E08730910508F0F3C1FC01E65A55
:10084000FF4F0C94130D8091F603882331F082E062
:1008500095E00E9436021092F6038091F5038823FA
:1008600009F4DFC18FE193E00E94F60C02E515E088
:10087000F801408150E062E0CE0101960E94E3035E
:10088000CE0101960E94F60C8CE293E00E94F60CD9
:10089000F8014181528164E0CE0101960E94E30398
:1008A000CE0101960E94F60C8BE393E00E94F60CB9
:1008B000F8014381548164E0CE0101960E94E30374
:1008C000CE0101960E94F60C8AE493E00E94F60C99
:1008D000F801458150E062E0CE0101960E94E303F9
:1008E000CE0101960E94F60C8AE693E00E94F60C77
:1008F000F801238134818091070190E0281739079E
:1009000031F460E070E080E00E944E010BC0809105
:10091000060190E02817390729F460E070E080E0D4
:100920000E9456011092F5037CC1C8010E94420149
:10093000823059F487E593E00E94F60C1092FB0395
:100940000E9429010E9436016CC18091FC03811133
:100950000FC00E9418010E94E301811103C00E9490
:1009600001020AC081E00E94DD010E94360104C03C
:100970000E9431010E94010285E08093FB0351C176
:10098000C8010E944201813059F48DE693E00E9433
:10099000F60C1092FB030E9429010E94360141C10E
:1009A0008091FC0381110FC00E9418010E94E30195
:1009B000811103C00E9419020AC081E00E94DD017A
:1009C0000E94360104C00E9431010E94190286E093
:1009D0008093FB0326C18091FC03811105C00E9416
:1009E00036011092FB031DC18091F503882311F19C
:1009F00020915505309156058091070190E0281708
:100A0000390731F481E08093FB031092F50309C1AB
:100A10008091060190E02817390731F482E0809335
:100A2000FB031092F503FDC00E9429010E943601CC
:100A30001092FB038091F6038823D9F082E095E0C1
:100A40000E941703811106C081E08093FB0310927E
:100A5000F603E7C0813031F482E08093FB0310920B
:100A6000F603DFC00E9429010E9436011092FB03A9
:100A7000D8C0C8010E944201823009F0D2C087E587
:100A800093E00E94F60C0E9436010E942901109208
:100A9000FB03C7C08091FC03811105C00E94360191
:100AA0001092FB03BEC08091F503882311F12091C1
:100AB0005505309156058091070190E028173907B8
:100AC00031F481E08093FB031092F503AAC080917A
:100AD000060190E02817390731F482E08093FB0388
:100AE0001092F5039EC00E9429010E9436011092C7
:100AF000FB038091F6038823D9F082E095E00E9401
:100B00001703811106C081E08093FB031092F60366
:100B100088C0813031F482E08093FB031092F603A9
:100B200080C00E9429010E9436011092FB0379C007
:100B3000C8010E944201813009F073C08DE693E044
:100B40000E94F60C0E9436010E9429011092FB03BC
:100B500068C08091F7039091F8030817190729F4EA
:100B60000E9436011092FB035CC00817190718F4A5
:100B70000E94010202C00E94190284E08093FB03DC
:100B800050C08091F7039091F803081B190B1016C1
:100B9000110624F40E94E301823031F411237CF425
:100BA0000E94E301813059F00E94360183E893E00E
:100BB0000E94F60C1092FB0381E00E94DD01012BE4
:100BC00029F40E9436011092FB032BC08091F5039B
:100BD0008823B9F020915505309156058091070181
:100BE00090E02817390731F08091060190E028172E
:100BF000390711F41092F5030E9436011092FB039D
:100C000010C08091F603882361F082E095E00E9495
:100C10001703823010F41092F6030E9436011092EE
:100C2000FB032A960FB6F894DEBF0FBECDBFDF914F
:100C3000CF911F910F9108952091EC039091F403AF
:100C4000921748F13091ED03931728F53091F20394
:100C50003323A9F0482F50E0692F621B9A0102C08C
:100C6000220F331F6A95E2F74091D8035091D903C0
:100C7000242B352B3093D9032093D80338C02091EF
:100C8000D8033091D903220F331F282B3093D90377
:100C90002093D8032CC02091EE03921740F130919D
:100CA000EF03931720F53091F2033323A9F0482F77
:100CB00050E0692F621B9A0102C0220F331F6A9510
:100CC000E2F74091D6035091D703242B352B309374
:100CD000D7032093D6030BC02091D6033091D703BE
:100CE000220F331F282B3093D7032093D603209154
:100CF000E3032330C9F42FEE290F243008F06DC030
:100D0000282F30E08FEE890F02C0220F331F8A9503
:100D1000E2F74091D4035091D503242B352B309327
:100D2000D5032093D40359C0253009F056C02CEECA
:100D3000290F2430A0F4282F30E048EF490F02C0DB
:100D4000220F331F4A95E2F74091D6035091D70303
:100D5000242B352B3093D7032093D60312C028EED3
:100D6000290F243070F4282F30E04CEE490F02C0D8
:100D7000220F331F4A95E2F73091CD03232B2093A6
:100D8000CD03903350F58823A1F0E92FE695E69541
:100D9000E695F0E0E253FC4F892F877021E030E0C8
:100DA00002C0220F331F8A95E2F78081282B20830F
:100DB00014C0E92FE695E695E695F0E0E253FC4F86
:100DC000892F877021E030E002C0220F331F8A95FF
:100DD000E2F720958081282320839F5F9093F4037E
:100DE00008955E9856980895FC018091E203882347
:100DF00009F4B8C09091E103933059F018F492309F
:100E000099F18CC0973009F480C0923309F465C021
:100E100085C02091DD033091DE038091DD03909148
:100E2000DE03232F332780959095992728173907BC
:100E300009F088C08091DD039091DE03992790939B
:100E4000DE038093DD038091DB039091DC0320912E
:100E5000DD033091DE03982F8827822B932B90930C
:100E6000DE038093DD035AC02091DD033091DE0361
:100E70008091DD039091DE03232F33278095909599
:100E800099272817390751F48091DD039091DE03EB
:100E900099279093DE038093DD0340C08091DF03A8
:100EA0009091E0038E3E974809F04CC08BE0809310
:100EB000E1038091DD039091DE03892F99279093C0
:100EC000E0038093DF038091DD039091DE03992797
:100ED0009093DE038093DD0321C02091DD033091E8
:100EE000DE038091DD039091DE03232F33279927C2
:100EF0002817390739F58091DD039091DE03992792
:100F00009093DE038093DD0309C08091DF0390910D
:100F1000E0038F7D9093E0038093DF038091E103F2
:100F200080838091DF039091E0039283818380919D
:100F3000DD039091DE03948383838091DA038583BC
:100F400081E003C01092E10380E01092DE03109272
:100F5000DD031092E0031092DF031092DA03109287
:100F6000E203089580E00895CF93DF9389B19091D3
:100F7000E203911196C380749091CC03911138C013
:100F8000811106C08091CB038F5F8093CB0389C30F
:100F90008091CB038823E9F081E08093CC03809398
:100FA000CA031092C9031092D7031092D60310926D
:100FB000D9031092D8031092CD031092D50310924A
:100FC000D4039FEF9093F4038093C8031092C70358
:100FD00068C38091C5039091C6038F3F2FEF92079E
:100FE00009F45FC301969093C6038093C50359C368
:100FF0009091CA03992309F4ADC0882379F08091B8
:10100000C8038F5F8093C8038A3E08F443C21092DE
:10101000CC031092CB031092C80343C38091CB033F
:1010200091EE980F9B3030F49091C8039650953014
:1010300008F43AC392EA980F943558F49091C80393
:1010400022ED290F2C3208F432C39751973108F45E
:1010500031C394EC980F903130F49091C8039C53B5
:10106000903108F42AC398ED980F973130F490919D
:10107000C80393519D3008F423C395EF980F963021
:1010800020F09AEE980F9B3000F59091C80325EF61
:10109000290F263020F02AEE290F2B30B0F4909340
:1010A000C4038151803118F09151903140F4109275
:1010B000C30380E48093C70369E371E003C381E065
:1010C0008093C30369E371E0FDC28650843080F4ED
:1010D0008091C8039DED980F973050F48093C4031E
:1010E00081E08093C2038093C30368E271E0EAC2A7
:1010F0001092CC031092F4038091F30380FF22C07E
:101100009091E3039731F1F09930E1F02091E503FC
:101110004091C803241770F450E030E0220F331FD1
:10112000241735073CF08695817091E089270E944D
:101130001C0608C09091C303911104C0869581706C
:101140000E941C0681E08093CB031092C80310928A
:10115000CA039BC19091C903992309F472C18823E2
:1011600009F4B7C29091F0032091F40392131CC0CC
:101170008091F1038130C1F48091F30380FD0AC0B6
:101180008091CB039091E803891738F09091E9039F
:10119000981718F01092F1037DC11092CC031092B1
:1011A000CB031092C8037DC28091C8038F5F8093E8
:1011B000C8033091E303313031F5482F50E04C3013
:1011C00051050CF12B30F8F0E3EEF3E081E0820FF3
:1011D0008587822F90E00B97982F88274091D8031E
:1011E0005091D903842B952B9093D9038093D803E6
:1011F0008385280F2F5F24878AE08093C803808926
:1012000080FFE5C06CC04091F30340FF1DC0682F14
:1012100070E04091E70350E0440F551F64177507D5
:101220009CF0622F70E0492F50E042505109641742
:10123000750754F04091F103411106C0E3EEF3E06D
:1012400081E0868780894BC08A3E08F423C1422F03
:1012500050E0892F90E001974817590741F4809199
:10126000F103811104C02F5F2093F40313C13230C6
:1012700011F03C3169F521112BC08091C50390918B
:10128000C6038830974008F5E3EEF3E081E08687F7
:1012900082E08083158680910A0190910B019093E2
:1012A000D9038093D803809108019091090190930C
:1012B000D7038093D6038091DA0381608093DA03A9
:1012C0001092C6031092C503E5C01092E203E2C07B
:1012D0001092CC031092CB031092C803E2C19091FC
:1012E000CB032091E503291798F48695817091E04E
:1012F00089270E941C06C3EED3E0888986958170F9
:101300000E941C068889869581708093C30322C041
:101310008091E4039817D0F08091E7032091C403F3
:10132000821778F430E090E0880F991F82179307B6
:1013300044F081E09091C303911180E08093C30356
:1013400002C08091C3030E941C0604C01092CC030B
:101350001092C8038091C8038093C4031092C903FC
:101360006CC08091E303833091F58091F403803168
:1013700071F58091CB038550883020F58091C803AA
:1013800094EC980F903130F41092C90381E180936E
:10139000F40353C0E3EEF3E09AE0908390E1938787
:1013A00090E2948795878F50803130F481E00E94DD
:1013B0001C061092C90341C080E00E941C061092D6
:1013C000C9033BC01092CC031092C80336C0809171
:1013D000CB039091E4038917A0F09091E50398174F
:1013E00080F09091C8032091E603921750F020916D
:1013F000E703291730F081E00E941C061092C90310
:101400001CC09091E8038917A0F09091E903981708
:1014100080F08091C8039091EA03891750F0909171
:10142000EB03981730F080E00E941C061092C9036D
:1014300004C01092CC031092C80381E08093CB03C8
:1014400024C0811106C08091CB038F5F8093CB03B2
:1014500021C081E08093C9038093C8038091E30396
:101460008633C1F48091C2038823A1F08091CB031D
:10147000873030F087508093CB031092C30303C0B2
:1014800081E08093C3031092C2038091CC03882330
:1014900009F407C18091F0039091F403891301C10D
:1014A0009091F1039111FDC0209108013091090143
:1014B0004091D6035091D7032417350789F4409102
:1014C000C5035091C603403B544050F49091C10372
:1014D0009F5F9093C1039091E303913041F012C05C
:1014E0001092C1039091E303913061F4F7C08091B1
:1014F000C1038150823008F0F1C01092C6031092EF
:10150000C5038FC041E04093E203923011F5811191
:10151000E9C04091C5035091C60348305740B0F42C
:1015200040910A0150910B015093D9034093D80385
:101530003093D7032093D6038091DA0381608093A0
:10154000DA031092C6031092C503CCC01092E203D6
:10155000C9C09530C1F5EEECF3E080819181428104
:10156000282F2F7082958F708227292F2F70822726
:1015700092959F709827892F90E0242F2F7030E04C
:101580008217930711F01092E203EEECF3E08381EF
:10159000942F982784818927958189131092E203DB
:1015A0009091DA038091CD03892B8093DA0385E053
:1015B0008093E1038091D8039091D9039093E00345
:1015C0008093DF031EC09093E1032091D8033091F4
:1015D000D9033093E0032093DF03923029F4309352
:1015E0000B0120930A010DC0973059F42091C703D5
:1015F0008091D6039091D703822B9093D703809349
:10160000D6038091D6039091D7039093DE03809305
:10161000DD038091D4039091D5039093DC038093F4
:10162000DB038091E203882391F18091D6039091AE
:10163000D703209108013091090128173907B9F41F
:1016400040910A0150910B012091D8033091D903A8
:101650004217530761F42091C5033091C6032A3C19
:10166000384028F42091DA0321602093DA03209196
:10167000D8033091D90330930B0120930A01909342
:101680000901809308011092C6031092C5031092BD
:10169000CC031092D7031092D6031092CB03109272
:1016A000C8038091E20329C06EE871E00BC06DE7CA
:1016B00071E008C06CE671E005C06BE571E002C046
:1016C0006AE471E041E150E083EE93E00E94580E3D
:1016D00011CD8091F30380FF44CE01CE81E0809351
:1016E000E20371CF9093E1032091D8033091D903A5
:1016F0003093E0032093DF0372CFDF91CF91089501
:1017000088E0809391008FE492E190939900809318
:10171000980082E080937100089510927C00EAE7BF
:10172000F0E08FEA808380818064808381E0809311
:101730007E0008951F920F920FB60F9211242F93DF
:101740003F934F935F936F937F938F939F93AF9349
:10175000BF93EF93FF930E94B407FF91EF91BF9166
:10176000AF919F918F917F916F915F914F913F9139
:101770002F910F900FBE0F901F9018951F920F92F0
:101780000FB60F9211242F933F934F935F936F9354
:101790007F938F939F93AF93BF93EF93FF930E9499
:1017A0002901FF91EF91BF91AF919F918F917F910F
:1017B0006F915F914F913F912F910F900FBE0F90BE
:1017C0001F9018951F920F920FB60F9211248F93AE
:1017D0009F9380917800909179009093FA03809381
:1017E000F9039F918F910F900FBE0F901F90189546
:1017F0000E94F10684E192E0909389008093880032
:1018000089E08093810082E080936F000E94800BCA
:101810000E948D0B88E090E00E94A20C2FEF81EED9
:1018200094E0215080409040E1F700C000008AE938
:1018300093E00E94F60C88EB93E00E94F60C8AE697
:1018400093E00E94F60C80E284B984E087B98CE0D2
:101850008AB91BB880E00E94DD017894C1E082E083
:1018600095E00E948603892B11F4C093F60382E56C
:1018700095E00E94F4068111C093F5030E940404D0
:10188000EECF1F920F920FB60F9211242F933F931A
:101890004F935F938F939F93EF93FF932091C0009B
:1018A0003091C60028718091FF0390E001968F77F8
:1018B00099274091FE0350E08417950739F08093F3
:1018C000FF03FC01EE5FFB4F308301C022E0209359
:1018D000FD03FF91EF919F918F915F914F913F9108
:1018E0002F910F900FBE0F901F9018951F920F927F
:1018F0000FB60F9211248F939F93EF93FF939091C4
:10190000010480910004981779F08091000490E020
:1019100001968F77992780930004FC01EE57FB4FC7
:1019200080818093C60005C0E1ECF0E080818F7D6E
:101930008083FF91EF919F918F910F900FBE0F9039
:101940001F901895F89410920104109200041092C0
:10195000FF031092FE037894992324F422E020934D
:10196000C0009F779093C5008093C40088E980935E
:10197000C10086E08093C2000895F8949091FF031F
:101980008091FE03981304C0789480E091E008955C
:1019900078948091FE0390E001968F779927809349
:1019A000FE03FC01EE5FFB4F20818091FD0390E080
:1019B000982F8827820F911D08954091010450E0CF
:1019C0004F5F5F4F4F7755272091000430E042175B
:1019D0005307D1F3FA01EE57FB4F80834093010484
:1019E000E1ECF0E08081806280830895CF93DF9303
:1019F000EC018881882331F021960E94DD0C8991C9
:101A00008111FBCFDF91CF910895F8948091FF036E
:101A10002091FE03789490E080589F4F821B91099B
:101A20008F7799270895EE0FFF1F0590F491E02D11
:101A300009940F931F93CF93DF938230910510F495
:101A400082E090E0E0915A05F0915B0520E030E003
:101A5000A0E0B0E0309719F14081518102811381FB
:101A600048175907C8F08417950769F4109731F0A3
:101A700012960C93129713961C9327C000935A0545
:101A800010935B0522C02115310519F04217530749
:101A900018F49A01BD01EF01DF01F801DBCF211538
:101AA0003105F9F0281B390B2430310580F48A8187
:101AB0009B816115710521F0FB019383828304C032
:101AC00090935B0580935A05FE01329644C0FE0157
:101AD000E20FF31F819391932250310939832883B8
:101AE0003AC02091580530915905232B41F420919B
:101AF000020130910301309359052093580520913C
:101B00000001309101012115310541F42DB73EB797
:101B10004091040150910501241B350BE0915805BB
:101B2000F0915905E217F307A0F42E1B3F0B28177D
:101B3000390778F0AC014E5F5F4F2417350748F046
:101B40004E0F5F1F50935905409358058193919311
:101B500002C0E0E0F0E0CF01DF91CF911F910F9143
:101B60000895CF93DF93009709F481C0FC01329769
:101B700013821282A0915A05B0915B05109781F4EF
:101B800020813181820F931F209158053091590592
:101B90002817390751F5F0935905E093580567C0A8
:101BA000ED0120E030E0CE17DF0740F44A815B8191
:101BB0009E0141155105F1F0EA01F5CFD383C283AF
:101BC00040815181840F951FC817D90759F4888126
:101BD0009981840F951F0296918380838A819B81CE
:101BE000938382832115310529F4F0935B05E093FB
:101BF0005A053DC0E901FB83EA8349915991C40F1D
:101C0000D51FEC17FD0761F480819181840F951F2A
:101C10000296E90199838883828193819B838A83D9
:101C2000E0E0F0E012968D919C911397009719F0E7
:101C3000FD01DC01F7CF8D919C9111979D012E5FE5
:101C40003F4F820F931F2091580530915905281757
:101C5000390769F4309729F410925B0510925A0500
:101C600002C013821282B0935905A0935805DF91E8
:101C7000CF910895FC0188279927E894219120327B
:101C8000E9F3293010F02E30C8F32B3241F02D3219
:101C900039F4689404C00E94C00E820F911D2191F6
:101CA00020532A30C0F31EF4909581959F4F0895DC
:101CB000FB01DC0102C005900D9241505040D8F765
:101CC00008954EEB53E00E948E0E0895FB01DC0157
:101CD0008D91019080190110D9F3990B0895FB01A2
:101CE000DC0101900D920020E1F70895DC016C9178
:101CF00061546A3108F060526F596D93C1F70895CD
:101D0000FB01DC014150504030F08D910190801971
:101D100019F40020B9F7881B990B0895FA01A191D5
:101D2000B081009719F41097E1F0CD01DC01CD01ED
:101D30000D90002011F4C00113C0FB01219122235A
:101D400019F02015D9F7F3CFFB012191201519F4D3
:101D50001E92119606C02223C1F70D900020A1F714
:101D6000D001FA01A193B0830895BB274A3031F422
:101D7000992322F4BDE2909581959F4F0C94C90E52
:101D80007AE0979F902D879F802D910D11240895C3
:101D9000BB27FB015527AA27880F991FAA1FA41745
:101DA00010F0A41B83955051B9F7A05DAA3308F039
:101DB000A95DA193009779F7B111B1931192CB016D
:101DC0000C94D910ABE0B0E0E8EEFEE00C94831187
:101DD0006C017B018A01FC0117821682838181FFDD
:101DE000CCC1CE0101963C01F6019381F70193FD30
:101DF000859193FF81917F01882309F4BAC18532CF
:101E000039F493FD859193FF81917F01853229F407
:101E1000B60190E00E94E910E7CF912C212C312CE3
:101E2000FFE1F315D8F08B3279F038F4803279F095
:101E30008332A1F4232D20611DC08D3261F08033E7
:101E400069F4232D216016C0832D8260382EE32D86
:101E5000E4603E2E2AC0F32DF8601DC037FC2DC073
:101E600020ED280F2A3040F08E32B9F436FC81C1C3
:101E7000232D2064322E19C036FE06C08AE0989EBB
:101E8000200D1124922E11C0EAE02E9E200D112467
:101E9000222EF32DF0623F2E08C08C3621F4832DC4
:101EA0008068382E02C0883641F4F70193FD859191
:101EB00093FF81917F018111B3CF982F9F7D95541E
:101EC000933028F40C5F1F4F9FE399830DC0833636
:101ED00031F0833771F0833509F059C021C0F80122
:101EE000808189830E5F1F4F88248394912C530136
:101EF00013C02801F2E04F0E511CF801A080B18000
:101F000036FE03C0692D70E002C06FEF7FEFC501A0
:101F10000E94CE104C018201F32DFF773F2E16C098
:101F2000280122E0420E511CF801A080B18036FE4B
:101F300003C0692D70E002C06FEF7FEFC5010E9402
:101F4000C3104C01F32DF0683F2E820133FC1BC0FF
:101F5000822D90E088169906B0F4B60180E290E0F8
:101F60000E94E9102A94F4CFF50137FC859137FEE1
:101F700081915F01B60190E00E94E91021102A943E
:101F800021E0821A91088114910471F7E8C0843627
:101F900011F0893641F5F80137FE07C06081718183
:101FA000828193810C5F1F4F08C060817181072E71
:101FB000000C880B990B0E5F1F4FF32DFF763F2E01
:101FC00097FF09C090958095709561957F4F8F4FD1
:101FD0009F4FF0683F2E2AE030E0A3010E942511B8
:101FE000882E861845C0853731F4232D2F7EB22EDA
:101FF0002AE030E025C0932D997FB92E8F36C1F0AD
:1020000018F4883579F0B5C0803719F0883721F099
:10201000B0C0E92FE061BE2EB4FE0DC0FB2DF46010
:10202000BF2E09C034FE0AC0292F2660B22E06C07A
:1020300028E030E005C020E130E002C020E132E0DD
:10204000F801B7FE07C060817181828193810C5FC6
:102050001F4F06C06081718180E090E00E5F1F4FCE
:10206000A3010E942511882E8618FB2DFF773F2E95
:1020700036FE0DC0232D2E7FA22E891458F434FE77
:102080000BC032FC09C0832D8E7EA82E05C0B82C53
:10209000A32C03C0B82C01C0B92CA4FE0FC0FE01B4
:1020A000E80DF11D8081803321F49A2D997EA92EAF
:1020B00009C0A2FE06C0B394B39404C08A2D8678EA
:1020C00009F0B394A3FC11C0A0FE06C0B21488F4BA
:1020D000280C922C9B180EC0B21460F4B60180E25A
:1020E00090E00E94E910B394F7CFB21418F42B18C3
:1020F00002C0982C212CA4FE10C0B60180E390E011
:102100000E94E910A2FE17C0A1FC03C088E790E07E
:1021100002C088E590E0B6010CC08A2D867859F09F
:10212000A1FE02C08BE201C080E2A7FC8DE2B601F5
:1021300090E00E94E910891438F4B60180E390E041
:102140000E94E9109A94F7CF8A94F301E80DF11DEB
:102150008081B60190E00E94E9108110F5CF222025
:1021600009F442CEB60180E290E00E94E9102A9480
:10217000F6CFF6018681978102C08FEF9FEF2B96F5
:10218000E2E10C949F11FC01059061507040011038
:10219000D8F7809590958E0F9F1F0895FC01615090
:1021A000704001900110D8F7809590958E0F9F1F79
:1021B0000895DC01FC01672F71917723E1F73297D5
:1021C00004C07C916D9370836291AE17BF07C8F312
:1021D00008950F931F93CF93DF93FB01238121FD7C
:1021E00003C08FEF9FEF2CC022FF16C0468157819E
:1021F000248135814217530744F4A081B1819D01A8
:102200002F5F3F4F318320838C93268137812F5F4F
:102210003F4F3783268314C08B01EC01FB01008400
:10222000F185E02D0995892BE1F6D80116968D915F
:102230009C911797019617969C938E931697CE01B3
:10224000DF91CF911F910F910895FA01AA272830AD
:1022500051F1203181F1E8946F936E7F6E5F7F4F73
:102260008F4F9F4FAF4FB1E03ED0B4E03CD0670FEF
:10227000781F891F9A1FA11D680F791F8A1F911D42
:10228000A11D6A0F711D811D911DA11D20D009F492
:1022900068943F912AE0269F11243019305D3193D4
:1022A000DEF6CF010895462F4770405D4193B3E0BD
:1022B0000FD0C9F7F6CF462F4F70405D4A3318F064
:1022C000495D31FD4052419302D0A9F7EACFB4E015
:1022D000A6959795879577956795BA95C9F70097CD
:1022E0006105710508959B01AC010A2E069457956E
:1022F000479537952795BA95C9F7620F731F841FC5
:10230000951FA01D08952F923F924F925F926F925A
:102310007F928F929F92AF92BF92CF92DF92EF9275
:10232000FF920F931F93CF93DF93CDB7DEB7CA1BF6
:10233000DB0B0FB6F894DEBF0FBECDBF09942A8821
:10234000398848885F846E847D848C849B84AA84C9
:10235000B984C884DF80EE80FD800C811B81AA8156
:10236000B981CE0FD11D0FB6F894DEBF0FBECDBF21
:08237000ED010895F894FFCF80
:1023780000005C0520001110FFFFFFFF004E0176F2
:102388006F6C75700000000000000000000000562F
:1023980001766F6C646F776E00000000000000002B
:1023A800015E01736574766F6C0000000000000028
:1023B800000000EF0067657461646376616C00007B
:1023C800000000004144432056616C75653A2000C6
:1023D800766F6C75702064657465637465640D0A46
:1023E80000766F6C646F776E2064657465637465DE
:1023F800640D0A00736574766F6C756D652064658D
:102408007465637465640D0A00617267633A20003D
:10241800617267763A2000417267756D656E742047
:102428006F7574206F662072616E6765210D0A00F2
:10243800546172676574204144432076616C756508
:102448003A2000556E6B6E6F776E20636F6D6D610D
:102458006E64210D0A00546865206E756D626572A0
:10246800206F6620617267756D656E74732065787C
:102478006365656473207468652073706563696655
:1024880069656420706172736572206C696D697426
:10249800210D0A004D6178206172672E20737472D5
:1024A800696E67206C656E6774682065786365651A
:1024B800646564210D0A004D656D6F727920616C49
:1024C8006C6F636174696F6E206661696C65642105
:1024D8000D0A00496E636F7272656374206E756DC4
:1024E800626572206F6620417267756D656E7473E0
:1024F800210D0A00554152545F4652414D455F45F2
:1025080052524F52206F6363757272656421005591
:102518004152545F4F56455252554E5F4552524FA5
:1025280052206F636375727265642100554152547D
:102538005F4255464645525F4F564552464C4F57A7
:10254800206F636375727265642100554152545F50
:102558004E4F5F44415441206F63637572726564E6
:1025680021004C696E65206C656E6774682065781B
:102578006365656473206275666665722100303133
:102588003233343536373839414243444546007092
:10259800726F746F636F6C3A20307800202020616E
:1025A8006464726573733A20307800202020636F6A
:1025B8006D6D616E643A20307800202020666C6171
:1025C80067733A203078004D6F746F722040207521
:1025D80070706572206C696D2E210D0A004D6F7444
:1025E8006F722040206C6F776572206C696D2E21A8
:1025F8000D0A00566F6C756D6520736561726368AE
:10260800206572726F72210D0A0048656C6C6F202C
:10261800686572652069732074686520566F6C431D
:0E26280074726C204657200076312E30000070
:00000001FF
