S0120000566F6C4374726C5F46572E7372656350
S11300000C9496000C94B3000C94B3000C94B300BD
S11300100C94B3000C94B3000C94B3000C94B30090
S11300200C94B3000C94B3000C94B3000C94F90733
S11300300C94B3000C94B3000C94B3000C94B30070
S11300400C94B3000C94B3000C94AF080C94E40823
S11300500C94B3000C94B3000C94B3000C94B30050
S11300600C94B3000C94B3000C94B3000C94B30040
S11300700C94B3000C94B3000C94B3000C94B30030
S11300800C94B3000C94B3000C94B3000C94B30020
S11300900C94B3000C94B3000C94B3000C94B30010
S11300A00C94B3000C94B3000C94B3000C94B30000
S11300B00C94B30036060906090609060900000077
S11300C00A0A000003070B100B10000000000107D0
S11300D0070D0D00000105030A0E18030A040900A8
S11300E0101C283001010003050C0F1E050C040B25
S11300F0001015252501010002050C1122050C052F
S11301000C000000000001010002050C1122050C86
S1130110050C0010102020010100010F15070B072A
S11301200B070B0F14000F140001000011241FBE55
S1130130CFEFD8E0DEBFCDBF12E0A0E0B1E0E0EE4B
S1130140FBE102C005900D92A43FB107D9F724E06A
S1130150A4EFB2E001C01D92A438B207E1F70E94F7
S11301601D080C94EE0D0C94000082E491E00E94B2
S11301706409089583E591E00E9464090895CF928B
S1130180DF92EF92FF920F931F93CF93DF9300D0F0
S113019000D01F92CDB7DEB7F82E6B0186E691E052
S11301A00E9464098BE791E00E9464090F2D10E01E
S11301B04AE0BE016F5F7F4FC8010E94F10A0E94AE
S11301C0640981ED91E00E94640910161106C4F4DB
S11301D08601EF2CF12CEE0CFF1CEC0CFD1C82E8CC
S11301E091E00E946409F801819191918F010E942C
S11301F0640981ED91E00E9464090E151F0579F7E9
S11302000F900F900F900F900F90DF91CF911F914F
S11302100F91FF90EF90DF90CF900895AF92BF922F
S1130220CF92DF92EF92FF920F931F93CF93DF93BE
S1130230CDB7DEB727970FB6F894DEBF0FBECDBF9C
S11302408C010E94640981ED91E00E94640980E2BE
S11302509CE29A8389831B82C8010E94C00ABE0162
S11302606F5F7F4FC8010E94AB0A5C0106E011E09A
S11302700F2EFCE3CF2EF1E0DF2EF02DE12CF12C3C
S1130280B8016D5F7F4FC5010E94B00A892B09F444
S113029078010E5E1F4F0C151D0591F7E114F10452
S11302A031F489E891E00E9464098FEF87C0BE01B0
S11302B06F5F7F4F80E090E00E94AB0A8C01892B36
S11302C009F469C0D12CD8018C918823B9F1F701C4
S11302D08081D81618F4F1E0FD1528F48CE991E03A
S11302E00E94640937C0F80101900020E9F73197B2
S11302F0CF01801B910B992701968F3091052CF02B
S113030082EB91E00E94640925C00E948109ED2DD1
S1130310F0E0EE0FFF1F21E030E02C0F3D1FE20F55
S1130320F31F94838383009729F484ED91E00E9462
S1130330640910C0B8010E94B90AD394BE016F5F6A
S11303407F4F80E090E00E94AB0A8C01892B09F07A
S1130350BACF22C0D7018C918D1123C0FF24F3940E
S113036005C080EF91E00E9464091BC00D2D10E0D0
S1130370101611065CF48C819D810E94190A0230CA
S1130380110524F08E819F810E94190A81E0F110E9
S113039015C080E013C0D12CF70180818D11E1CF0D
S11303A003C0FF24F394E2CF0180F281E02DBE016B
S11303B06C5F7F4F8D2D0995F12CD8CF27960FB602
S11303C0F894DEBF0FBECDBFDF91CF911F910F9187
S11303D0FF90EF90DF90CF90BF90AF90089593FF80
S11303E007C081E192E00E94640920E038E01DC06A
S11303F092FF07C08CE292E00E94640920E034E09E
S113040014C091FF07C089E492E00E94640920E0CF
S113041032E00BC09C012227317090FF06C088E6B1
S113042092E00E94640920E031E0C9010895FF923E
S11304300F931F93CF93DF93EC010E947309892BD1
S113044009F447C00E942B09182FF92E0E94EF01CE
S1130450009731F0812F9F2D0E94EF0182603EC0F2
S11304601D3049F42091F602222319F01092F6026D
S113047035C0188233C0183011F01F3779F48091D9
S1130480F602882319F081508093F6028091F602D7
S1130490C80FD11D188281E090E020C01A30E1F02D
S11304A08091F602803570F491E0980F9093F602F3
S11304B0FE01E80FF11D1083C90FD11D188281E0E0
S11304C090E00CC08FE792E00E94640981E090E024
S11304D005C081E090E002C081E090E0DF91CF911F
S11304E01F910F91FF9008952091220390912A0368
S11304F0921748F130912303931728F5309128037C
S11305003323A9F0482F50E0692F621B9A0102C0DF
S1130510220F331F6A95E2F740910E0350910F03A7
S1130520242B352B30930F0320930E0338C02091D6
S11305300E0330910F03220F331F282B30930F0328
S113054020930E032CC020912403921740F1309184
S11305502503931720F5309128033323A9F0482F5E
S113056050E0692F621B9A0102C0220F331F6A9563
S1130570E2F740910C0350910D03242B352B30935B
S11305800D0320930C030BC020910C0330910D0339
S1130590220F331F282B30930D0320930C0320913B
S11305A019032330C9F42FEE290F243008F06DC04D
S11305B0282F30E08FEE890F02C0220F331F8A9557
S11305C0E2F740910A0350910B03242B352B30930F
S11305D00B0320930A0359C0253009F056C02CEEB2
S11305E0290F2430A0F4282F30E048EF490F02C02F
S11305F0220F331F4A95E2F740910C0350910D03EB
S1130600242B352B30930D0320930C0312C028EEBA
S1130610290F243070F4282F30E04CEE490F02C02B
S1130620220F331F4A95E2F730910303232B2093C3
S11306300303903350F58823A1F0E92FE695E6955E
S1130640E695F0E0EC5FFC4F892F877021E030E005
S113065002C0220F331F8A95E2F78081282B208362
S113066014C0E92FE695E695E695F0E0EC5FFC4FC3
S1130670892F877021E030E002C0220F331F8A9552
S1130680E2F720958081282320839F5F90932A039B
S113069008955E9856980895FC0180911803882364
S11306A009F4B8C090911703933059F018F49230BC
S11306B099F18CC0973009F480C0923309F465C075
S11306C085C02091130330911403809113039091FA
S11306D01403232F332780959095992728173907DA
S11306E009F088C080911303909114039927909383
S11306F014038093130380911103909112032091AA
S1130700130330911403982F8827822B932B9093F3
S11307101403809313035AC02091130330911403DC
S11307208091130390911403232F33278095909580
S113073099272817390751F48091130390911403D2
S11307409927909314038093130340C08091150359
S1130750909116038E3E974809F04CC08BE080932D
S113076017038091130390911403892F9927909371
S11307701603809315038091130390911403992712
S1130780909314038093130321C020911303309199
S113079014038091130390911403232F3327992773
S11307A02817390739F58091130390911403992779
S11307B0909314038093130309C0809115039091BF
S11307C016038F7D9093160380931503809117036E
S11307D08083809115039091160392838183809185
S11307E0130390911403948383838091100385836E
S11307F081E003C01092170380E01092140310925A
S11308001303109216031092150310921003109202
S11308101803089580E00895CF93DF9389B19091F0
S11308201803911196C3807490910203911138C0FA
S1130830811106C0809101038F5F8093010389C3F6
S1130840809101038823E9F081E08093020380937F
S113085000031092FF0210920D0310920C031092E9
S11308600F0310920E031092030310920B031092C5
S11308700A039FEF90932A038093FE021092FD02D5
S113088068C38091FB029091FC028F3F2FEF920787
S113089009F45FC301969093FC028093FB0259C351
S11308A090910003992309F4ADC0882379F08091D5
S11308B0FE028F5F8093FE028A3E08F443C21092C8
S11308C00203109201031092FE0243C380910103BC
S11308D091EE980F9B3030F49091FE029650953033
S11308E008F43AC392EA980F943558F49091FE02B2
S11308F022ED290F2C3208F432C39751973108F4B2
S113090031C394EC980F903130F49091FE029C53D3
S1130910903108F42AC398ED980F973130F49091F0
S1130920FE0293519D3008F423C395EF980F96303F
S113093020F09AEE980F9B3000F59091FE0225EF7F
S1130940290F263020F02AEE290F2B30B0F4909393
S1130950FA028151803118F09151903140F4109293
S1130960F90280E48093FD0265EC70E003C381E04A
S11309708093F90265EC70E0FDC28650843080F407
S11309808091FE029DED980F973050F48093FA0207
S113099081E08093F8028093F90264EB70E0EAC28C
S11309A01092020310922A038091290380FF22C02F
S11309B0909119039731F1F09930E1F020911B03E4
S11309C04091FE02241770F450E030E0220F331FF0
S11309D0241735073CF08695817091E089270E94A1
S11309E0740208C09091F902911104C08695817037
S11309F00E94740281E0809301031092FE0210921F
S1130A0000039BC19091FF02992309F472C18823CA
S1130A1009F4B7C29091260320912A0392131CC0B3
S1130A20809127038130C1F48091290380FD0AC09D
S1130A308091010390911E03891738F090911F0350
S1130A40981718F0109227037DC110920203109298
S1130A5001031092FE027DC28091FE028F5F80939B
S1130A60FE0230911903313031F5482F50E04C30FB
S1130A7051050CF12B30F8F0E9E1F3E081E0820F4D
S1130A808587822F90E00B97982F882740910E033B
S1130A9050910F03842B952B90930F0380930E0397
S1130AA08385280F2F5F24878AE08093FE02808944
S1130AB080FFE5C06CC04091290340FF1DC0682F32
S1130AC070E040911D0350E0440F551F64177507F3
S1130AD09CF0622F70E0492F50E042505109641796
S1130AE0750754F040912703411106C0E9E1F3E092
S1130AF081E0868780894BC08A3E08F423C1422F57
S1130B0050E0892F90E001974817590741F48091EC
S1130B102703811104C02F5F20932A0313C13230AD
S1130B2011F03C3169F521112BC08091FB029091A9
S1130B30FC028830974008F5E9E1F3E081E086871C
S1130B4082E08083158680913E0190913F019093CD
S1130B500F0380930E0380913C0190913D0190938B
S1130B600D0380930C038091100381608093100324
S1130B701092FC021092FB02E5C010921803E2C02E
S1130B8010920203109201031092FE02E2C19091AE
S1130B90010320911B03291798F48695817091E035
S1130BA089270E947402C9E1D3E0888986958170FF
S1130BB00E9474028889869581708093F90222C00C
S1130BC080911A039817D0F080911D032091FA02A6
S1130BD0821778F430E090E0880F991F821793070A
S1130BE044F081E09091F902911180E08093F90240
S1130BF002C08091F9020E94740204C010920203A0
S1130C001092FE028091FE028093FA021092FF027B
S1130C106CC080911903833091F580912A0380314F
S1130C2071F5809101038550883020F58091FE0292
S1130C3094EC980F903130F41092FF0281E180938C
S1130C402A0353C0E9E1F3E09AE0908390E19387AB
S1130C5090E2948795878F50803130F481E00E9430
S1130C6074021092FF0241C080E00E94740210924C
S1130C70FF023BC0109202031092FE0236C0809124
S1130C80010390911A038917A0F090911B03981700
S1130C9080F09091FE0220911C03921750F0209155
S1130CA01D03291730F081E00E9474021092FF02A4
S1130CB01CC090911E038917A0F090911F039817F0
S1130CC080F08091FE0290912003891750F090915A
S1130CD02103981730F080E00E9474021092FF0202
S1130CE004C0109202031092FE0281E0809301037B
S1130CF024C0811106C0809101038F5F809301039A
S1130D0021C081E08093FF028093FE028091190349
S1130D108633C1F48091F8028823A1F08091010305
S1130D20873030F08750809301031092F90203C09A
S1130D3081E08093F9021092F802809102038823E3
S1130D4009F407C18091260390912A03891301C1F4
S1130D50909127039111FDC020913C0130913D01F8
S1130D6040910C0350910D032417350789F44091E9
S1130D70FB025091FC02403B544050F49091F70226
S1130D809F5F9093F70290911903913041F012C044
S1130D901092F70290911903913061F4F7C0809199
S1130DA0F7028150823008F0F1C01092FC021092D8
S1130DB0FB028FC041E040931803923011F581117A
S1130DC0E9C04091FB025091FC0248305740B0F416
S1130DD040913E0150913F0150930F0340930E0305
S1130DE030930D0320930C03809110038160809352
S1130DF010031092FC021092FB02CCC01092180354
S1130E00C9C09530C1F5E4E0F3E08081918142816D
S1130E10282F2F7082958F708227292F2F70822779
S1130E2092959F709827892F90E0242F2F7030E09F
S1130E308217930711F010921803E4E0F3E0838122
S1130E40942F9827848189279581891310921803F8
S1130E509091100380910303892B8093100385E004
S1130E608093170380910E0390910F0390931603C0
S1130E70809315031EC09093170320910E033091A5
S1130E800F033093160320931503923029F4309303
S1130E903F0120933E010DC0973059F42091FD028B
S1130EA080910C0390910D03822B90930D038093FA
S1130EB00C0380910C0390910D0390931403809381
S1130EC0130380910A0390910B0390931203809370
S1130ED0110380911803882391F180910C03909160
S1130EE00D0320913C0130913D0128173907B9F4D5
S1130EF040913E0150913F0120910E0330910F0328
S1130F004217530761F42091FB023091FC022A3C02
S1130F10384028F42091100321602093100320917D
S1130F200E0330910F0330933F0120933E019093C1
S1130F303D0180933C011092FC021092FB0210923E
S1130F40020310920D0310920C03109201031092ED
S1130F50FE028091180329C06AE171E00BC069E0C8
S1130F6071E008C068EF70E005C067EE70E002C091
S1130F7066ED70E041E150E089E193E00E94A20A4D
S1130F8011CD8091290380FF44CE01CE81E080936E
S1130F90180371CF9093170320910E0330910F0320
S1130FA0309316032093150372CFDF91CF910895E8
S1130FB0CF93DF93EC01FC01E60FF11D10829FEF4C
S1130FC0960F662391F0DE01A90FB11DFA01EF70AF
S1130FD0FF27E556FD4F20812C93529542954F7083
S1130FE045275F704527915070F7CE01DF91CF916F
S1130FF008951F920F920FB60F9211242F933F93CF
S11310004F935F936F937F938F939F93AF93BF930C
S1131010EF93FF930E940C04FF91EF91BF91AF9166
S11310209F918F917F916F915F914F913F912F91FC
S11310300F900FBE0F901F901895CF93DF93CDB7ED
S1131040DEB72B970FB6F894DEBF0FBECDBF0E945C
S113105049038FE193E0909389008093880089E0AD
S11310608093810082E080936F008CE090E00E9486
S113107010098FE493EC0197F1F700C00000789415
S113108080E394E00E941702892B21F480E394E02A
S11310900E940E01CE0101960E944C03882381F325
S11310A08CEA92E00E946409498150E062E0CE013A
S11310B007960E94D807CE0107960E94640989EB1F
S11310C092E00E9464094A815B8164E0CE01079644
S11310D00E94D807CE0107960E94640988EC92E02A
S11310E00E9464094C815D8164E0CE0107960E94F0
S11310F0D807CE0107960E94640987ED92E00E940A
S113110064094E8150E062E0CE0107960E94D80740
S1131110CE0107960E94640981ED91E00E94640962
S11311202C813D818091410190E02817390731F4E9
S113113060E070E080E00E94B500A2CF80914001A1
S113114090E02817390731F460E070E080E00E94F5
S1131150BA0096CF84EE92E00E94640991CF1F9268
S11311600F920FB60F9211242F933F934F935F93D7
S11311708F939F93EF93FF932091C0003091C6000B
S1131180287180912D0390E001968F7799274091E3
S11311902C0350E08417950739F080932D03FC014C
S11311A0E05DFC4F308301C022E020932B03FF91CC
S11311B0EF919F918F915F914F913F912F910F905C
S11311C00FBE0F901F9018951F920F920FB60F929B
S11311D011248F939F93EF93FF9390912F0380910A
S11311E02E03981779F080912E0390E001968F7763
S11311F0992780932E03FC01E055FC4F8081809356
S1131200C60005C0E1ECF0E080818F7D8083FF9112
S1131210EF919F918F910F900FBE0F901F90189593
S1131220F89410922F0310922E0310922D03109213
S11312302C037894992324F422E02093C0009F7710
S11312409093C5008093C40088E98093C10086E030
S11312508093C2000895F89490912D0380912C03FB
S1131260981304C0789480E091E008957894809174
S11312702C0390E001968F77992780932C03FC012F
S1131280E05DFC4F208180912B0390E0982F88270C
S1131290820F911D089540912F0350E04F5F5F4FDF
S11312A04F77552720912E0330E042175307D1F38F
S11312B0FA01E055FC4F808340932F03E1ECF0E00A
S11312C08081806280830895CF93DF93EC018881CD
S11312D0882331F021960E944B0989918111FBCF1B
S11312E0DF91CF910895F89480912D0320912C03E0
S11312F0789490E080589F4F821B91098F779927AB
S113130008950F931F93CF93DF938230910510F4C8
S113131082E090E0E0918204F091830420E030E0E8
S1131320A0E0B0E0309719F140815181028113812E
S113133048175907C8F08417950769F4109731F0D6
S113134012960C93129713961C9327C00093820451
S11313501093830422C02115310519F04217530755
S113136018F49A01BD01EF01DF01F801DBCF21156B
S11313703105F9F0281B390B2430310580F48A81BA
S11313809B816115710521F0FB019383828304C065
S11313909093830480938204FE01329644C0FE013C
S11313A0E20FF31F819391932250310939832883EB
S11313B03AC02091800430918104232B41F4209180
S11313C00201309103013093810420938004209121
S11313D00001309101012115310541F42DB73EB7CB
S11313E04091040150910501241B350BE0918004C8
S11313F0F0918104E217F307A0F42E1B3F0B28178A
S1131400390778F0AC014E5F5F4F2417350748F079
S11314104E0F5F1F509381044093800481939193F6
S113142002C0E0E0F0E0CF01DF91CF911F910F9176
S11314300895CF93DF93009709F481C0FC0132979C
S113144013821282A0918204B0918304109781F4D4
S113145020813181820F931F209180043091810477
S11314602817390751F5F0938104E093800467C08D
S1131470ED0120E030E0CE17DF0740F44A815B81C4
S11314809E0141155105F1F0EA01F5CFD383C283E2
S113149040815181840F951FC817D90759F4888159
S11314A09981840F951F0296918380838A819B8101
S11314B0938382832115310529F4F0938304E09307
S11314C082043DC0E901FB83EA8349915991C40F29
S11314D0D51FEC17FD0761F480819181840F951F5E
S11314E00296E90199838883828193819B838A830D
S11314F0E0E0F0E012968D919C911397009719F01B
S1131500FD01DC01F7CF8D919C9111979D012E5F18
S11315103F4F820F931F209180043091810428173C
S1131520390769F4309729F41092830410928204E5
S113153002C013821282B0938104A0938004DF91CD
S1131540CF910895FB01DC0102C005900D9241503A
S11315505040D8F7089544EF52E00E94CA0A089513
S1131560FB01DC018D91019080190110D9F3990BD5
S11315700895FB01DC0101900D920020E1F708952C
S1131580DC016C9161546A3108F060526F596D93BB
S1131590C1F70895FA01A191B081009719F4109749
S11315A0E1F0CD01DC01CD010D90002011F4C0016A
S11315B013C0FB012191222319F02015D9F7F3CF91
S11315C0FB012191201519F41E92119606C02223C5
S11315D0C1F70D900020A1F7D001FA01A193B083C7
S11315E00895BB274A3031F4992322F4BDE2909543
S11315F081959F4F0C94FD0ABB27FB015527AA2711
S1131600880F991FAA1FA41710F0A41B839550518B
S1131610B9F7A05DAA3308F0A95DA193009779F703
S1131620B111B1931192CB010C940D0DABE0B0E06C
S1131630ECE1FBE00C94B70D6C017B018A01FC0129
S113164017821682838181FFCCC1CE0101963C01B1
S1131650F6019381F70193FD859193FF81917F01B9
S1131660882309F4BAC1853239F493FD859193FF37
S113167081917F01853229F4B60190E00E941D0D0D
S1131680E7CF912C212C312CFFE1F315D8F08B32CC
S113169079F038F4803279F08332A1F4232D20617B
S11316A01DC08D3261F0803369F4232D216016C092
S11316B0832D8260382EE32DE4603E2E2AC0F32D64
S11316C0F8601DC037FC2DC020ED280F2A3040F0F3
S11316D08E32B9F436FC81C1232D2064322E19C018
S11316E036FE06C08AE0989E200D1124922E11C069
S11316F0EAE02E9E200D1124222EF32DF0623F2EBF
S113170008C08C3621F4832D8068382E02C08836B8
S113171041F4F70193FD859193FF81917F0181113C
S1131720B3CF982F9F7D9554933028F40C5F1F4FAF
S11317309FE399830DC0833631F0833771F083358D
S113174009F059C021C0F801808189830E5F1F4FC1
S113175088248394912C530113C02801F2E04F0E86
S1131760511CF801A080B18036FE03C0692D70E0E1
S113177002C06FEF7FEFC5010E94020D4C01820190
S1131780F32DFF773F2E16C0280122E0420E511C94
S1131790F801A080B18036FE03C0692D70E002C05C
S11317A06FEF7FEFC5010E94F70C4C01F32DF06839
S11317B03F2E820133FC1BC0822D90E088169906CF
S11317C0B0F4B60180E290E00E941D0D2A94F4CF9B
S11317D0F50137FC859137FE81915F01B60190E0F8
S11317E00E941D0D21102A9421E0821A910881146F
S11317F0910471F7E8C0843611F0893641F5F80197
S113180037FE07C060817181828193810C5F1F4F15
S113181008C060817181072E000C880B990B0E5F44
S11318201F4FF32DFF763F2E97FF09C090958095AB
S1131830709561957F4F8F4F9F4FF0683F2E2AE040
S113184030E0A3010E94590D882E861845C08537C3
S113185031F4232D2F7EB22E2AE030E025C0932DC3
S1131860997FB92E8F36C1F018F4883579F0B5C058
S1131870803719F0883721F0B0C0E92FE061BE2E1F
S1131880B4FE0DC0FB2DF460BF2E09C034FE0AC0A7
S1131890292F2660B22E06C028E030E005C020E1E2
S11318A030E002C020E132E0F801B7FE07C06081F9
S11318B07181828193810C5F1F4F06C060817181A9
S11318C080E090E00E5F1F4FA3010E94590D882E07
S11318D08618FB2DFF773F2E36FE0DC0232D2E7F5D
S11318E0A22E891458F434FE0BC032FC09C0832D97
S11318F08E7EA82E05C0B82CA32C03C0B82C01C022
S1131900B92CA4FE0FC0FE01E80DF11D80818033C7
S113191021F49A2D997EA92E09C0A2FE06C0B39483
S1131920B39404C08A2D867809F0B394A3FC11C043
S1131930A0FE06C0B21488F4280C922C9B180EC08A
S1131940B21460F4B60180E290E00E941D0DB394DD
S1131950F7CFB21418F42B1802C0982C212CA4FE33
S113196010C0B60180E390E00E941D0DA2FE17C0D6
S1131970A1FC03C088E790E002C088E590E0B601CE
S11319800CC08A2D867859F0A1FE02C08BE201C0FA
S113199080E2A7FC8DE2B60190E00E941D0D89143F
S11319A038F4B60180E390E00E941D0D9A94F7CFBD
S11319B08A94F301E80DF11D8081B60190E00E9444
S11319C01D0D8110F5CF222009F442CEB60180E22C
S11319D090E00E941D0D2A94F6CFF601868197812E
S11319E002C08FEF9FEF2B96E2E10C94D30DFC0124
S11319F00590615070400110D8F7809590958E0F36
S1131A009F1F0895FC016150704001900110D8F7A8
S1131A10809590958E0F9F1F0895DC01FC01672F20
S1131A2071917723E1F7329704C07C916D937083B1
S1131A306291AE17BF07C8F308950F931F93CF9316
S1131A40DF93FB01238121FD03C08FEF9FEF2CC0A7
S1131A5022FF16C0468157812481358142175307DE
S1131A6044F4A081B1819D012F5F3F4F31832083D6
S1131A708C93268137812F5F3F4F3783268314C091
S1131A808B01EC01FB010084F185E02D0995892B84
S1131A90E1F6D80116968D919C91179701961796A9
S1131AA09C938E931697CE01DF91CF911F910F9146
S1131AB00895FA01AA27283051F1203181F1E894E0
S1131AC06F936E7F6E5F7F4F8F4F9F4FAF4FB1E02D
S1131AD03ED0B4E03CD0670F781F891F9A1FA11D28
S1131AE0680F791F8A1F911DA11D6A0F711D811D29
S1131AF0911DA11D20D009F468943F912AE0269FEE
S1131B0011243019305D3193DEF6CF010895462F4C
S1131B104770405D4193B3E00FD0C9F7F6CF462F2D
S1131B204F70405D4A3318F0495D31FD4052419396
S1131B3002D0A9F7EACFB4E0A69597958795779553
S1131B406795BA95C9F700976105710508959B01DA
S1131B50AC010A2E06945795479537952795BA9563
S1131B60C9F7620F731F841F951FA01D08952F923C
S1131B703F924F925F926F927F928F929F92AF9219
S1131B80BF92CF92DF92EF92FF920F931F93CF9366
S1131B90DF93CDB7DEB7CA1BDB0B0FB6F894DEBFFD
S1131BA00FBECDBF09942A88398848885F846E8423
S1131BB07D848C849B84AA84B984C884DF80EE806D
S1131BC0FD800C811B81AA81B981CE0FD11D0FB676
S1131BD0F894DEBF0FBECDBFED010895F894FFCF9A
S1131BE000008404200000B500766F6C757000005E
S1131BF0000000000000000000BA00766F6C646F03
S1131C00776E000000000000000002BF00736574DE
S1131C10766F6C000000000000000000FFFFFFFF73
S1131C201110766F6C7570206465746563746564F7
S1131C300D0A00766F6C646F776E2064657465635B
S1131C407465640D0A00736574766F6C756D652038
S1131C5064657465637465640D0A00617267633A50
S1131C602000617267763A2000556E6B6E6F776E56
S1131C7020636F6D6D616E64210D0A00546F6F20D7
S1131C806D616E7920617267756D656E7473210D77
S1131C900A004D61782061726720737472696E67FF
S1131CA0206C656E67746820657863656564656437
S1131CB0210D0A004D656D6F727920616C6C6F6344
S1131CC06174696F6E206661696C6564210D0A0038
S1131CD0496E636F7272656374206E756D626572AE
S1131CE0206F6620417267756D656E7473210D0AED
S1131CF000554152545F4652414D455F4552524F43
S1131D0052206F63637572726564210055415254A9
S1131D105F4F56455252554E5F4552524F52206FB7
S1131D20636375727265642100554152545F425574
S1131D30464645525F4F564552464C4F57206F63B7
S1131D406375727265642100554152545F4E4F5F52
S1131D5044415441206F6363757272656421004C81
S1131D60696E65206C656E67746820657863656567
S1131D7064732062756666657221003031323334D3
S1131D8035363738394142434445460070726F74E2
S1131D906F636F6C3A203078002020206164647295
S1131DA06573733A20307800202020636F6D6D6175
S1131DB06E643A20307800202020666C6167733AA4
S1131DC020307800756E62656C6567746520746197
S1071DD073746500BF
S9030000FC
