S0120000566F6C4374726C5F46572E7372656350
S11300000C94D6040C94F3040C94F3040C94F304AD
S11300100C94F3040C94F3040C94F3040C94F30480
S11300200C94F3040C94F3040C94F3040C9419133B
S11300300C94F3040C94F3040C94F3040C94F30460
S11300400C94F3040C94F3040C94E9130C941E1410
S11300500C94F3040C944A130C94F3040C94F304DA
S11300600C94F3040C94F3040C94F3040C94F30430
S11300700C94F3040C94F3040C94F3040C94F30420
S11300800C94F3040C94F5120C94F3040C94F30400
S11300900C94F3040C94F3040C94F3040C94F30400
S11300A00C94F3040C94F3040C94F3040C94F304F0
S11300B00C94F304860CDB0CFC0C530D6F0D270D14
S11300C03A0D6D730D0A00494E435F445552415435
S11300D0494F4E2056414C5545203D200045525233
S11300E04F523A20494E435F4455522045455052A1
S11300F04F4D2052414D204D4953534D4154434897
S1130100210D0A00496E76616C696420417267753D
S11301106D656E7420636F756E74210D0A00494E0F
S1130120435F4455524154494F4E2076616C756586
S113013020757064617465640D0A00417267756DA1
S1130140656E74206F7574206F662072616E6765CA
S1130150210D0A00496E76616C69642041726775ED
S11301606D656E7420636F756E74210D0A00496E9F
S113017076616C696420417267756D656E74200DDB
S11301800A00335633204C4544204F4646210D0A7D
S113019000335633204C4544204F4E210D0A00496C
S11301A06E76616C696420417267756D656E74204A
S11301B0636F756E74210D0A00496E76616C696413
S11301C020417267756D656E74200D0A00355620E6
S11301D04C4544204F4646210D0A003556204C45D7
S11301E044204F4E210D0A00496E76616C696420EB
S11301F0417267756D656E7420636F756E74210D41
S11302000A000D0A0020307800203078002049448C
S113021058207C2050524F544F434F4C207C20494F
S1130220525F41444452207C2049525F434D442054
S1130230207C20434D4420202020202020202020EA
S11302407C204445534352495054494F4E0D0A00B3
S1130250496E76616C696420417267756D656E7470
S113026020636F756E74210D0A0044656C657465B6
S113027064210D0A00496E646578206F7574206FDF
S1130280662072616E6765210D0A000D0A004465DF
S11302906C657465204B6579207769746820696E94
S11302A06465783A20004E6F2072656D6F74652026
S11302B06B657920726567697374657265642E2055
S11302C04E6F7468696E6720746F2064656C657422
S11302D065210D0A00496E76616C6964204172677C
S11302E0756D656E7420636F756E74210D0A004B15
S11302F065792072656769737465722073756363C9
S113030065737366756C210D0A00577269746520F4
S1130310746F20454550524F4D2E2E2E0D0A004B22
S11303206579707265737320726567697374657239
S113033065640D0A000D0A000D0A54696D656F7538
S113034074210D0A0050726573732074686520640B
S1130350657369726564206B6579206F6E207468BB
S1130360652069722D72656D6F74650D0A00726582
S11303706772656D3A20496E76616C6964206E75AA
S11303806D626572206F6620617267756D656E744B
S11303907320666F7220636D6420746F20726567CA
S11303A069737465720D0A0072656772656D3A202F
S11303B0596F7520747269656420746F2072656763
S11303C06973746572206120756E6B6E6F776E2031
S11303D0636F6D6D616E640D0A00546865206D6114
S11303E078696D756D206E756D6572206F66206B12
S11303F065797320746F2072656769737465722000
S113040069732072656163686564210D0A00417235
S113041067756D656E74206F7574206F66207261E8
S11304206E6765210D0A00736574766F6C0D0A00A2
S1130430496E76616C696420417267756D656E748E
S113044020636F756E74210D0A00766F6C646F778C
S11304506E0D0A00766F6C646F776E20646F65733F
S1130460206E6F74206578706563742061206172FA
S113047067756D656E74210D0A00766F6C75700D6D
S11304800A00566F6C757020646F6573206E6F740C
S113049020657870656374206120617267756D658D
S11304A06E74210D0A000D0A004144432056616C0C
S11304B075653A20000A000A000B000B000B000BC4
S11304C0000C000D000D000E000F001000110013B1
S11304D000150016001800190019001A001C001D50
S11304E0001E001F0025002A00300035003B00409C
S11304F00045004A004F0054005A00600066006C3A
S113050000720077007D00830088008E00930098BD
S1130510009C00A100A600AB00B000B400B900BF6D
S113052000C400C900CF00D500DC00E200E800ED03
S113053000F200F80000010B011701240134014509
S113054001550169017F019701B601D501F4011339
S113055002310250026E028D02AB02C902E70205AB
S113056003230340035D037A039703B303CE03E439
S113057003F103F803FC03FE03FF03FF03FF03552A
S11305804152545F4E4F5F44415441206F63637541
S1130590727265642100554152545F425546464586
S11305A0525F4F564552464C4F57206F63637572E6
S11305B07265642100554152545F4F56455252555D
S11305C04E5F4552524F52206F6363757272656479
S11305D02100554152545F4652414D455F455252A8
S11305E04F52206F6363757272656421004C696EAB
S11305F065206C656E6774682065786365656473EF
S1130600206275666665722100526571756972654E
S11306106420617267756D656E7473206E6F7420EB
S113062070726573656E74210D0A004D656D6F728D
S11306307920616C6C6F636174696F6E20666169A7
S11306406C6564210D0A004D6178206172672E206B
S1130650737472696E67206C656E67746820657860
S1130660636565646564210D0A00546865206E75D0
S11306706D626572206F6620617267756D656E7458
S1130680732065786365656473207468652073708E
S11306906563696669656420706172736572206C54
S11306A0696D6974210D0A00556E6B6E6F776E204B
S11306B0636F6D6D616E64210D0A00566F6C756D0C
S11306C06520736561726368206572726F72210DB3
S11306D00A004D6F746F722040206C6F7765722032
S11306E06C696D2E210D0A004D6F746F72204020CD
S11306F07570706572206C696D2E210D0A004D6F46
S1130700746F722040206C6F776572206C696D2E57
S1130710210D0A004D6F746F722040207570706552
S113072072206C696D2E210D0A0036060906090631
S11307300906090000000A0A000003070B100B1049
S1130740000000000107070D0D00000105030A0E5B
S113075018030A040900101C283001010003050CC9
S11307600F1E050C040B00101525250101000205C0
S11307700C1122050C050C00000000000101000210
S1130780050C1122050C050C00101020200101009D
S1130790010F15070B070B070B0F14000F140001B3
S11307A0008A098409800978097009670960095C6D
S11307B009560952094A0944093B0934092B0923FA
S11307C0091D09150911090B0907090209FC08F596
S11307D008F008E708E008DA08D408CF08C708C218
S11307E008BA08B408A908A2089B0894088D0885CB
S11307F0087F08770870086908650860085A085176
S11308000847083B083308290822081D081808115E
S113081008524144494F3100524349490047524527
S1130820450049524D5031360053414D53554E47C2
S113083041480056494E43454E54004D4954535582
S11308405F48454156590050414E41534F4E49432C
S113085000544543484E4943530041435032340009
S1130860533130300046414E0050454E54415800FB
S11308704D45524C494E0053414D53473438004C7A
S11308804741495200535045414B45520052434D54
S11308904D31320052434D4D32340052434D4D33AD
S11308A03200524F4F4D42410054454C4546554E3F
S11308B04B454E004F5254454B0041315456424F24
S11308C05800424F53450054484F4D534F4E004C2F
S11308D045474F004E45433432004E4543313600C0
S11308E04E4554424F58004B4154485245494E00DE
S11308F0495236300052555749444F004E494B4FE8
S11309004E0052433641004A56430052434341523B
S113091000464443005349454D454E53004E4F4B0A
S11309204941004752554E4449470042414E4720F1
S11309304F4C55004E55424552540052454353388E
S1130940304558004150504C450053414D534733B6
S113095032005243360044454E4F4E005243350058
S1130960524543533830004B415345494B594F008E
S11309704D4154535553480053414D53554E470030
S11309804E454300534952435300554E4B4E4F5727
S11309904E000D0A0076312E300042433220566F4D
S11309A06C4374726C2046573A20000011241FBE19
S11309B0CFEFD8E0DEBFCDBF11E0A0E0B1E0E6E6C6
S11309C0F1E302C005900D92A03BB107D9F725E0F1
S11309D0A0EBB1E001C01D92AA30B207E1F70E947A
S11309E060130C94B1180C9400002D9A0895FC0126
S11309F0E60FF11D1082615080F0FA01EF70FF27BD
S1130A00E756FE4F2081FC01E60FF11D208324E010
S1130A10569547952A95E1F7EECF0895CF93DF9346
S1130A20CDB7DEB72B970FB6F894DEBF0FBECDBFA0
S1130A3089EA94E00E94AA14F8948091200290918B
S1130A4021024AE0BE016F5F7F4F0E9416180E9488
S1130A509E14789486EA94E00E94AA142B960FB60A
S1130A60F894DEBF0FBECDBFDF91CF910895809182
S1130A70230281110CC01092950010929400809171
S1130A80910084608093910081E080932302089513
S1130A90E1E9F0E080818B7F808310922302089546
S1130AA01092950010929400089539B129B133FB46
S1130AB0882780F990E0880F991F22FB992790F9E5
S1130AC0892B813051F0823031F0882341F00E942B
S1130AD0F5048FEF089581E0089582E0089580E0A1
S1130AE008955B985A982FEF80E792E02150804058
S1130AF09040E1F700C0000008958A30910528F085
S1130B008F3F934020F480E0089581E0089582E0CF
S1130B1008950E945505813029F088F0823091F0C3
S1130B200C94F5040E9471050E9448052FEF80E79C
S1130B3092E0215080409040E1F700C000005B98B3
S1130B405A9A089508950E945505882381F08230A9
S1130B5009F008950E9471050E9448052FEF80E76F
S1130B6092E0215080409040E1F700C000005B9A81
S1130B705A98089590910A01981720F482E894E015
S1130B800C94AA148AE794E00E94AA1481E080934A
S1130B902202089590911701981720F484E594E0B7
S1130BA00C94AA148AE494E00E94AA1482E080932C
S1130BB022020895CF93DF9390912401981718F49B
S1130BC080E394E00EC0EB0187E294E00E94AA1453
S1130BD0888199810E948A178536910530F08EE0CC
S1130BE094E0DF91CF910C94AA14FC01EE0FFF1F47
S1130BF0EB54FB4F8591949190931F0280931E02B6
S1130C0083E080932202DF91CF91089581110C94A7
S1130C10F5042D9808958F929F92BF92CF92DF9200
S1130C20EF92FF920F931F93CF93DF93CDB7DEB76D
S1130C30AB970FB6F894DEBF0FBECDBFB82E8B01B5
S1130C4080911D028E3018F08AED93E0D1C0FB0133
S1130C5060817181CE0182960E94DE17F801828044
S1130C6093802DE0C22E21E0D22EE12CF12CB6018E
S1130C70C4010E94D517892BB1F4EE82CB2CD12C60
S1130C809601225031098DE08E9DF0018F9DF00D6B
S1130C901124E65FFE4F808190E02817390781F028
S1130CA08EE693E0A5C0FFEFEF1AFF0A8DE0C80EB1
S1130CB0D11C9BE0E916F104D1F688EA93E098C0D0
S1130CC01F82E2E0EB1558F085E493E00E94AA1439
S1130CD094EFE92EFF24F39400E010E01AC00C5FB7
S1130CE01F4F82E0E82EF12CEC14FD046CF76AEA45
S1130CF071E0CE0107960E94CA17F80161917191C3
S1130D008F01CE0107960E94CA17FFEFEF1AFF0A60
S1130D10EBCF81E593E00E94C40E81111BC0193012
S1130D2058F0003120F08DE00E94851400E08EE23E
S1130D300E9485140F5F10E08FE19EE40197F1F7A4
S1130D4000C000001F5F91E0E91AF10811F788E381
S1130D5093E04EC085E393E00E94AA148FE193E0F0
S1130D600E94AA1480915103898380915203909127
S1130D7053039B838A8380915403909155039D83ED
S1130D808C8380911D0291E2989FD0011124A75A6F
S1130D90BC4FFE01319601900D929A95E1F78F5F59
S1130DA080931D028AE093E00E94AA1480911D02A0
S1130DB090E001972AE0289FB001299F700D11242B
S1130DC06E5F7F4F4AE050E0CE0182960E94711818
S1130DD04DEA51E064E870E089E593E00E947118FF
S1130DE060911D0283E392E00E9481188FEE92E0ED
S1130DF00E94AA14AB960FB6F894DEBF0FBECDBF07
S1130E00DF91CF911F910F91FF90EF90DF90CF90E2
S1130E10BF909F908F9008958F929F92AF92BF92B0
S1130E20CF92DF92EF92FF920F931F93CF93DF93B2
S1130E30CDB7DEB72A970FB6F894DEBF0FBECDBF8D
S1130E408B0190914B01981718F485ED92E068C0DE
S1130E5080911D02811103C086EA92E061C08EE890
S1130E6092E00E94AA14F801808191810E949E144C
S1130E708BE892E00E94AA14F801808191810E947B
S1130E808A176C01DD2480911D0290E0C816D906F2
S1130E901CF085E792E044C089E5E82E83E0F82E53
S1130EA092E0A92E90E0B92E00E010E0C5010A9668
S1130EB04C010C151D05B4F081E2F701B196D70180
S1130EC001900D928A95E1F74AE050E0B401CE0119
S1130ED001960E9453184AE050E0B501CE010196F4
S1130EE00E9499180F5F1F4F91E2E90EF11C540103
S1130EF00C301105D9F680911D02815080931D029A
S1130F004DEA51E064E870E089E593E00E947118CD
S1130F1060911D0283E392E00E9481188AE692E0C8
S1130F200E94AA142A960FB6F894DEBF0FBECDBF56
S1130F30DF91CF911F910F91FF90EF90DF90CF90B1
S1130F40BF90AF909F908F9008952F923F924F92B1
S1130F505F926F927F928F929F92AF92BF92CF9245
S1130F60DF92EF92FF920F931F93CF93DF93CDB74E
S1130F70DEB764970FB6F894DEBF0FBECDBF909175
S1130F805801981728F480E592E00E94AA140AC137
S1130F908DE092E00E94AA1492E0A92E90E0B92E6E
S1130FA029E5E22E23E0F22EC12CD12C8E010F5F15
S1130FB01F4F39E0232E312C46E0642E712C5DE066
S1130FC0452E512C80911D0290E0C816D9060CF0D4
S1130FD0E9C080E20E9485144AE0B801C6010E947B
S1130FE016180E949E14812C912CF8010190002067
S1130FF0E9F73197E01BF10B84E090E08E1B9F0B27
S11310008816990638F480E20E9485148FEF881AB6
S1131010980AEBCF8CE70E94851480E20E94851425
S1131020D701EC91F0E0EE0FFF1FEF55F84F6591FB
S11310307491C8010E94B117C8010E949E14812CAA
S1131040912CF80101900020E9F73197E01BF10B96
S1131050C1018E1B9F0B8816990638F480E20E940A
S11310608514BFEF8B1A9B0AECCF8CE70E94851482
S113107089E092E00E94AA14F7014181528164E060
S1131080C8010E94F7040E949E14812C912CF8013F
S113109001900020E9F73197E01BF10BC3018E1B8F
S11310A09F0B8816990638F480E20E948514FFEF9E
S11310B08F1A9F0AECCF8CE70E94851485E092E09A
S11310C00E94AA14D70113964D915C91149764E081
S11310D0C8010E94F7040E949E14812C912CF801EF
S11310E001900020E9F73197E01BF10BC3018E1B3F
S11310F09F0B8816990638F480E20E948514BFEF8E
S11311008B1A9B0AECCF8CE70E94851480E20E9424
S11311108514F7016581FDE0F69FB0011124635F3A
S11311207E4FC8010E94DE17B7016A5F7F4FC80176
S11311300E94CA17C8010E949E14812C912CF801A8
S113114001900020E9F73197E01BF10BC2018E1BDF
S11311509F0B8816990638F480E20E9485148FEF5D
S1131160881A980AECCF8CE70E94851480E20E94CA
S113117085144AE050E0B501CE010B960E94531845
S1131180CE010B960E949E1482E092E00E94AA1463
S1131190AFEFCA1ADA0ABAE0AB0EB11CE1E2EE0E06
S11311A0F11C10CF64960FB6F894DEBF0FBECDBF0E
S11311B0DF91CF911F910F91FF90EF90DF90CF902F
S11311C0BF90AF909F908F907F906F905F904F9063
S11311D03F902F90089590916501981718F488EE28
S11311E091E01DC0FB010190F081E02D80818133ED
S11311F049F4719A61E082E392E00E9481188BEDD8
S113120091E00DC0803349F4719860E082E392E08C
S11312100E9481188DEC91E002C089EB91E00C945E
S1131220AA1490917201981718F48FE991E01DC0E7
S1131230FB010190F081E02D8081813349F45D9AB6
S113124061E081E392E00E94811881E991E00DC0A0
S1131250803349F45D9860E081E392E00E94811854
S113126082E891E002C08EE691E00C94AA14909179
S11312707F01981718F484E591E037C0FB01808161
S113128091810E948A17893725E0920718F08BE331
S113129091E02BC09093580380935703BC0180E0E6
S11312A090E00E94681520E034E244EF5AE40E9482
S11312B0F61520E030E040E85BE30E94F61520E0FC
S11312C030E04AE754E40E94C7140E943915709331
S11312D0990060939800609157037091580380E0DF
S11312E090E00E9493188EE191E00C94AA14CF939D
S11312F0DF9300D000D01F92CDB7DEB790917F016D
S1131300981718F484E091E023C080E090E00E94F4
S11313106B1820915703309158038217930731F0CB
S11313208DED90E00E94AA140E94F50487EC90E0F1
S11313300E94AA144AE0BE016F5F7F4F8091570359
S1131340909158030E9416180E949E1482EC90E01B
S11313500E94AA140F900F900F900F900F90DF919E
S1131360CF910895AF92BF92CF92DF92EF92FF9206
S11313700F931F93CF93DF93CDB7DEB729970FB6A3
S1131380F894DEBF0FBECDBF8C018091AC0190916B
S1131390AD01A091AE018F839887A987C8010E94EF
S11313A0E517BE01695F7F4FC8010E94B8176C0141
S11313B00DE011E0E12CF12CB801C6010E94D51713
S11313C0892B59F42DE02E9DC0012F9D900D1124E1
S11313D0865F9E4F892B81F409C08FEFE81AF80AC3
S11313E0035F1F4F9BE0E916F10431F788EA96E0AA
S11313F00E94AA148FEF78C0BE01695F7F4F80E01E
S113140090E00E94B8176C0100E0C114D104C1F14E
S1131410F6018081882359F1033018F08AE696E0BA
S11314200EC0F60101900020E9F73197CF018C1925
S11314309D0999278930910530F087E496E00E9450
S1131440AA1411E01EC001960E946916FE0131968D
S1131450E00FF11DE00FF11D91838083009719F4D3
S11314608BE296E0ECCFB6010E94DE170F5FBE015F
S1131470695F7F4F80E090E00E94B8176C01C5CF90
S113148010E08DE08E9DF0018F9DF00D1124E65F3C
S1131490FE4F8081081738F4111110C089E096E0DE
S11314A00E94AA140BC0111109C00180F281E02D21
S11314B0BE016F5F7F4F802F099501C011E0CE01FF
S11314C001966C01E12CF12CA02EB12CEA14FB0442
S11314D054F4F601819191916F010E940117FFEF7D
S11314E0EF1AFF0AF3CF812F29960FB6F894DEBFC7
S11314F00FBECDBFDF91CF911F910F91FF90EF9061
S1131500DF90CF90BF90AF900895CF92DF92EF928B
S1131510FF920F931F93CF93DF9300D01F92CDB709
S1131520DEB72091AC013091AD014091AE01298329
S11315303A834B83FC0101900020E9F73197E817C7
S113154009F445C0BE016F5F7F4F0E94B8176C015C
S11315508DE0E82E81E0F82E00E010E0B701C6012E
S11315600E94D517892B19F4023050F432C00F5F52
S11315701F4F8DE0E80EF11C0B30110579F727C0E1
S1131580023029F5BE016F5F7F4F80E090E00E943A
S1131590B81710E00097B9F0FC012081222359F01C
S11315A01330A8F401900020E9F73197E81BF90BF8
S11315B0E93068F41F5FBE016F5F7F4F80E090E009
S11315C00E94B817E7CF80912401181721F08FEFFC
S11315D003C0802F01C082E00F900F900F90DF9125
S11315E0CF911F910F91FF90EF90DF90CF900895CE
S11315F09C0193FF07C082ED95E00E94AA1480E04D
S113160098E0089592FF07C085EB95E00E94AA1424
S113161080E094E0089591FF07C086E995E00E9478
S1131620AA1480E092E008958827917030FF06C0E4
S11316308FE795E00E94AA1480E091E008950F934B
S11316401F93CF93DF93EC010E94B914892B49F1C6
S11316500E946514182F092F0E94F80A009731F090
S1131660812F902F0E94F80A826035C01D3049F402
S11316702091B201222319F01092B2012CC01882D9
S11316802AC0183011F01F3779F48091B2018823F1
S113169019F081508093B2018091B201C80FD11D1D
S11316A0188281E090E017C01A30D9F38091B2011A
S11316B0883258F491E0980F9093B201FE01E80F3C
S11316C0F11D1083C90FD11DEBCF8DEE95E00E9463
S11316D0AA1482E090E0DF91CF911F910F910895B9
S11316E04F925F926F927F928F929F92AF92BF922E
S11316F0CF92DF92EF92FF920F931F93CF93DF93DA
S113170000D000D000D0CDB7DEB7390180915203AC
S1131710909153039093BA018093B901809154033B
S1131720909155039093BC018093BB018091510328
S11317308093B80140901D0289E5A82E83E0B82E5D
S1131740C12CD12C5C2CC41400F5460145E050E0BA
S1131750B50188EB91E00E94BD172FEFC21AD20A9F
S1131760E1E2AE0EB11C892B69F781E2889DF0019C
S1131770899DF00D1124E75AFC4F8581F80180837F
S1131780F701508281E0F30104C0F30110828FEF6E
S1131790F801808326960FB6F894DEBF0FBECDBF46
S11317A0DF91CF911F910F91FF90EF90DF90CF9039
S11317B0BF90AF909F908F907F906F905F904F906D
S11317C00895EF92FF920F931F93CF93DF93CDB7BA
S11317D0DEB7A8970FB6F894DEBF0FBECDBF8091D9
S11317E0B301882371F186EBE82E81E0F82E07EB34
S11317F011E025EB31E04091510350915203609187
S113180053037091540380915503909156030E94A1
S1131810700B8091B501882371F08091B70181111B
S113182002C081E003C0813031F482E0809322025F
S11318301092B30126C00E9448050E9471051092BF
S113184022028091B4018823E1F069E273E0CE01C1
S113185001960E94DE17CE0101960E94850A81112D
S113186002C081E003C0813031F482E0809322021F
S11318701092B40106C00E9448050E94710510929E
S11318802202A8960FB6F894DEBF0FBECDBFDF913B
S1131890CF911F910F91FF90EF900895DF92EF92F7
S11318A0FF920F931F93CF93DF93CDB7DEB7A89723
S11318B00FB6F894DEBF0FBECDBF89E293E00E945D
S11318C01F0B892B19F481E08093B40181E593E027
S11318D00E94C40E882319F081E08093B301F89428
S11318E080912002909121029093E6018093E5017A
S11318F07894E09122028E2F90E08730910508F0D1
S113190084C1FC01E65AFF4F0C9463168091B40124
S1131910882331F089E293E00E94B2091092B40165
S11319208091B301882309F470C18091520390918E
S113193053039093BA018093B90180915403909119
S113194055039093BC018093BB0180915103809314
S1131950B80109E513E0E12CF12C9DE0D92E80912A
S11319601D0290E0E816F9060CF02AC145E050E0AB
S1131970B80188EB91E00E94BD17892BB1F4F801FE
S11319806581D69EB0011124635F7E4F8DEB91E09B
S11319900E94DE17B8016A5F7F4F8DEB91E00E94D1
S11319A0CA178DEB91E00E94B209FFEFEF1AFF0A0C
S11319B00F5D1F4FD4CF8091E5019091E6010E9405
S11319C07D05823019F484E197E020C080912302E0
S11319D081110CC00E9437050E945505882341F0EF
S11319E081E00E9406060E94710504C00E94500511
S11319F00E94A30585E028C08091E5019091E6014D
S1131A000E947D05813059F48EEF96E00E94AA145D
S1131A10109222020E9448050E947105F6C080912E
S1131A20230281110CC00E9437050E9455058823AA
S1131A3041F081E00E9406060E94710504C00E94E4
S1131A4050050E94890586E080932202DEC08091C1
S1131A502302882309F4D5C00E94E10B8091E5019B
S1131A609091E6010E947D05823009F0CEC088EE97
S1131A7096E012C080912302882309F4C2C00E9418
S1131A80E10B8091E5019091E6010E947D05813092
S1131A9009F0BBC082ED96E00E94AA140E94710571
S1131AA00E944805B0C02091E5013091E601809183
S1131AB01E0290911F02A901481B590B5093E80183
S1131AC04093E701452B09F49CC02817390718F403
S1131AD00E94A30502C00E94890584E0B5CF8091CD
S1131AE0E5019091E60120911E0230911F02821BB4
S1131AF0930B9093E8018093E701181619063CF0C4
S1131B008091E7019091E80197FF15C010C00E94F1
S1131B1055058230A9F30E9471058BEB96E00E9473
S1131B20AA141092220281E00E94060604C00E94B8
S1131B305505813081F78091E7019091E801892B67
S1131B4009F45FC08091B3018823E9F186EBE82EA4
S1131B5081E0F82E07EB11E025EB31E040915103D1
S1131B605091520360915303709154038091550333
S1131B70909156030E94700B8091B501882309F45B
S1131B8040C08091B701823018F41092B30139C07B
S1131B908230B9F567E271E08DEB91E00E94DE17C7
S1131BA06091B60181E2689FB0011124615A7C4FB3
S1131BB08DEB91E00E94CA178DEB91E00E94B2096F
S1131BC01092B30122C08091B4018823F1F069E23C
S1131BD073E0CE0101960E94DE17CE0101960E94A9
S1131BE0850A8093B701823018F41092B40109C0B9
S1131BF0823039F489E293E00E94B2091092B40170
S1131C0004C00E94710510922202A8960FB6F8949F
S1131C10DEBF0FBECDBFDF91CF911F910F91FF901B
S1131C20EF90DF9008956091140290911C02961732
S1131C30F8F0209115029217D8F470911A02282F07
S1131C4030E04091000250910102772341F0792F56
S1131C50761B02C0220F331F7A95E2F702C0440FAD
S1131C60551F242B352B309301022093000222C0F0
S1131C70609116029617F0F0209117029217D0F493
S1131C8070911A02282F30E04091FE015091FF011B
S1131C90772341F0792F761B02C0220F331F7A95E8
S1131CA0E2F702C0440F551F242B352B3093FF015C
S1131CB02093FE0120910B022330C9F42FEE290F4B
S1131CC0243008F05AC0282F30E08FEE890F02C06C
S1131CD0220F331F8A95E2F74091FC015091FD01D8
S1131CE0242B352B3093FD012093FC0146C0253075
S1131CF009F043C02CEE290F2430A0F4282F30E043
S1131D0048EF490F02C0220F331F4A95E2F7409172
S1131D10FE015091FF01242B352B3093FF012093BA
S1131D20FE0113C028EE290F243068F4282F4CEE4E
S1131D30490F01C0220F4A95EAF73091F501232B90
S1131D402093F50102C09033C0F4E92FE695E6959F
S1131D50E695492F4770F0E0EA50FE4F21E030E06D
S1131D6001C0220F4A95EAF7882319F08081282BB5
S1131D7003C020958081282320839F5F90931C02B9
S1131D8008955E9856980895FC0180910A0288236C
S1131D9009F47EC090910902933059F018F49230FE
S1131DA079F178C0973009F469C0923309F44EC0D0
S1131DB071C0809105029091060220910502309134
S1131DC00602892F99272095309533278217930788
S1131DD009F080C0809105029091060299279093A2
S1131DE006028093050280910302909104022091DF
S1131DF0050230910602982F8827822B932B39C035
S1131E00809105029091060220910502309106020C
S1131E10892F99272095309533278217930721F12D
S1131E2080910702909108028E3E974809F052C0B3
S1131E308BE0809309028091050290910602892F1C
S1131E40992790930802809307020EC020910502FF
S1131E50309106028091050290910602232F3327C8
S1131E60992728173907B1F5809105029091060248
S1131E70992790930602809305020CC08091070273
S1131E80909108028F7D909308028093070202C00C
S1131E9080E00895809109028083809107029091E7
S1131EA008029283818380910502909106029483B3
S1131EB0838380910202858381E01092060210924E
S1131EC00502109208021092070210920202109268
S1131ED00A0208951092090280E0EFCF99B180912F
S1131EE00A02811124C290748091F401811136C0D8
S1131EF08091F301911104C08F5F8093F30117C2A5
S1131F008823E9F081E08093F4018093F201109238
S1131F10F1011092FF011092FE0110920102109241
S1131F2000021092F5011092FD011092FC019FEF46
S1131F3090931C028093F0011092EF01F8C18091FC
S1131F40ED019091EE018F3F2FEF920709F4EFC15D
S1131F5001969093EE018093ED01E9C18091F20125
S1131F60882309F4C4C0992379F08091F0018F5F2C
S1131F708093F0018A3E08F49AC11092F401109201
S1131F80F3011092F0018EC18091F30191EE980F4C
S1131F909B3030F49091F0019650953008F461C074
S1131FA092EA980F943558F49091F00122ED290F9C
S1131FB02C3208F459C09751973108F458C094EC66
S1131FC0980F903130F49091F0019C53903108F4C3
S1131FD051C098ED980F973130F49091F0019351DE
S1131FE09D3008F44AC095EF980F963020F09AEE91
S1131FF0980F9B30F0F49091F00125EF290F2630D3
S113200020F02AEE290F2B30A0F49093EC0181519B
S1132010803118F09151903130F41092EB0180E44A
S11320208093EF0103C081E08093EB016BE377E0E1
S113203026C08650843080F48091F0019DED980F85
S1132040973050F48093EC0181E08093EA0180930F
S1132050EB016AE277E013C01092F40160E070E0F3
S11320600EC060E977E00BC06FE777E008C06EE66A
S113207077E005C06DE577E002C06CE477E080911D
S1132080F401882331F041E150E08BE092E00E94BA
S1132090A81710921C0280911B0280FF20C090910F
S11320A00B029731E1F09930D1F020910D0240916B
S11320B0F001241760F450E030E0220F331F24179E
S11320C035072CF08695817091E0892706C09091A0
S11320D0EB01911104C0869581700E94130E81E07A
S11320E08093F3011092F0011092F201DBC0809111
S11320F0F101882309F4B3C080911B02992309F4E8
S113210019C12091180290911C02291313C0309117
S11321101902313079F480FD0AC08091F301909165
S11321201002891720F190911102981700F1109272
S11321301902BDC03091F0013F5F3093F00160910E
S11321400B026130B9F080FD37C03A3E08F4AFC0ED
S1132150492F50E030E0215031094217530709F468
S113216048C0623009F44DC06C3109F44AC0109281
S1132170F401D9C03C3038F39B3028F321E0290F17
S113218020931802292F30E02B503109322F2227B7
S11321904091000250910102242B352B309301020F
S11321A02093000220911602920F9F5F90931702D2
S11321B09AE09093F001BEC040910F02E32FF0E04B
S11321C050E0440F551FE417F5070CF4BECFE92F78
S11321D0F0E0422F50E042505109E417F5070CF4A7
S11321E0B4CF409119024111B0CF91E090931902FC
S11321F0A1C0809119028111B4CF9F5F90931C02FA
S113220056C09111B4CF8091ED019091EE018830C8
S1132210974010F581E08093190282E080930B02CD
S11322201092180280910801909109019093010283
S11322308093000280910601909107019093FF0121
S11322408093FE01809102028160809302021092C9
S1132250EE011092ED012BC010920A0228C09111D8
S113226006C08091F3018F5F8093F3011BC091E05E
S11322709093F1019093F00180910B028633B9F4AD
S11322808091EA01882399F08091F301873030F03E
S113229087508093F3011092EB0102C09093EB01FD
S11322A01092EA018091F401882309F440C06091FE
S11322B0180280911C0268133AC08091190281119E
S11322C036C040910601509107012091FE013091E2
S11322D0FF014217530709F0C6C08091ED019091A8
S11322E0EE01803B944008F0BEC08091E9018F5F0D
S11322F08093E90180910B02813009F0B7C090917D
S1132300E9019150923008F0B1C01092EE011092A0
S1132310ED0180910A0281112DC11092F4011092F5
S1132320FF011092FE011092F3011092F0018091CE
S11323300A0208959091F30180FF3DC020910D029F
S1132340291798F48695817091E089270E94130ECD
S113235080911B02869581700E94130E80911B024E
S1132360869581708093EB0121C080910C029817AF
S1132370C8F080910F022091EC014091EB0182178B
S113238068F430E090E0880F991F8217930734F0C7
S113239081E0411180E08093EB0101C0842F0E9411
S11323A0130E04C01092F4011092F0018091F00118
S11323B08093EC0127C080910B02833031F520918A
S11323C01C02203111F595509830B8F58091F00138
S11323D094EC980F903130F41092F10181E18093E4
S11323E01C023FC09AE090930B022093160290E2E5
S11323F090931702909318028F508031E0F481E09B
S11324000E94130E1092F1012CC080910C029817B7
S1132410C8F480911002981780F0809111028917F6
S113242060F08091F00190911202891730F0909140
S11324301302981710F080E0E3CF1092F401109289
S1132440F0010FC080910D02891718F38091F001FB
S113245020910E028217E8F220910F022817C8F289
S1132460CECF81E001CF1092E90144CF91E0909367
S11324700A02823011F56111A8C08091ED0190919A
S1132480EE0188309740B0F48091080190910901E1
S113249090930102809300025093FF014093FE0148
S11324A0809102028160809302021092EE011092E8
S11324B0ED018BC010920A0288C0609100027091F5
S11324C001028530B9F52091F6019091F701E09170
S11324D0F801822F8F7022952F702827392F3F7093
S11324E0232792959F70822F8927082E000C990B21
S11324F02E2F2F7030E08217930711F010920A02EA
S11325008091F9018E279091FA0189279091FB011E
S1132510891310920A02909102028091F501892B8D
S11325208093020285E0809309027093080260930D
S113253007020FC080930902709308026093070298
S1132540873039F48091EF01282B3093FF012093D9
S1132550FE018091FE019091FF0190930602809309
S113256005028091FC019091FD01909304028093F7
S11325700302CFCE2091FE013091FF016091000251
S1132580709101024217530799F4809108019091C8
S113259009018617970761F48091ED019091EE018E
S11325A08A3C984028F48091020281608093020260
S11325B07093090160930801309307012093060189
S11325C01092EE011092ED01A8CE82E080930902F0
S11325D08091000290910102909308028093070277
S11325E09093090180930801B4CF1F920F920FB604
S11325F00F9211242F933F934F935F936F937F9385
S11326008F939F93AF93BF93EF93FF930E944805DB
S1132610FF91EF91BF91AF919F918F917F916F91B6
S11326205F914F913F912F910F900FBE0F901F908C
S113263018951F920F920FB60F9211242F933F9368
S11326404F935F936F937F938F939F93AF93BF93B6
S1132650EF93FF930E946E0FFF91EF91BF91AF91A3
S11326609F918F917F916F915F914F913F912F91A6
S11326700F900FBE0F901F90189510927C00EAE700
S1132680F0E08FEA808380818064808381E080939E
S11326907E0008951F920F920FB60F9211248F930C
S11326A09F93809178009091790090932102809378
S11326B020029F918F910F900FBE0F901F9018953D
S11326C083E392E00E94631880931D024DEA51E077
S11326D064E870E089E593E00E94531880E090E09C
S11326E00E946B18909358038093570380E284B937
S11326F084E087B982E08DB98CE28AB98EEF88B91B
S113270081E085B980E00E94060682E392E00E949F
S11327106318882311F0719A01C0719881E392E0E3
S11327200E946318882311F05D9A01C05D980E948D
S1132730C10E84E192E0909389008093880089E03F
S113274080938100C2E0C0936F0088E08093910081
S1132750609157037091580380E090E00E946815DF
S113276020E034E244EF5AE40E94F61520E030E021
S113277040E85BE30E94F61520E030E04AE754E4C9
S11327800E94C7140E9439157093990060939800B1
S1132790C09371000E943D1388E090E00E944A14A7
S11327A08AE999E00E94AA1485E999E00E94AA1492
S11327B082E999E00E94AA142FEF84E39CE021505F
S11327C080409040E1F700C0000078940E944E0CD5
S11327D0FDCF1F920F920FB60F9211242F933F93A8
S11327E04F935F938F939F93EF93FF932091C00038
S11327F03091C60028718091260290E001968F776F
S113280099274091250250E08417950739F0809369
S11328102602FC01E75DFD4F308301C022E02093D6
S11328202402FF91EF919F918F915F914F913F917E
S11328302F910F900FBE0F901F9018951F920F921B
S11328400FB60F9211248F939F93EF93FF93909160
S1132850280280912702981779F08091270290E04E
S113286001968F77992780932702FC01E755FD4F46
S113287080818093C60005C08091C1008F7D8093C4
S1132880C100FF91EF919F918F910F900FBE0F9018
S11328901F901895F8941092280210922702109213
S11328A0260210922502789497FF04C022E0209318
S11328B0C0009F779093C5008093C40088E98093FB
S11328C0C10086E08093C2000895F8949091260296
S11328D080912502981304C0789480E091E00895D3
S11328E078948091250290E001968F7799278093C0
S11328F02502FC01E75DFD4F20818091240290E0D8
S1132900982F8827820F911D08952091280230E086
S11329102F5F3F4F2F7733274091270250E0241732
S11329203507D1F3F901E755FD4F80832093280241
S11329308091C10080628093C1000895CF93DF939A
S1132940EC018991882319F00E948514FACFDF9154
S1132950CF910895CF93DF93FC018491EF012196E9
S1132960882321F00E948514FE01F7CFDF91CF91D7
S11329700895F8948091260220912502789490E09D
S113298080589F4F821B91098F77992708950E9441
S1132990DB140C94BC150E94B51558F00E94AE15BA
S11329A040F029F45F3F29F00C94A51551110C94C3
S11329B0F0150C94AB150E94CD1568F39923B1F36F
S11329C0552391F3951B550BBB27AA276217730751
S11329D0840738F09F5F5F4F220F331F441FAA1FE5
S11329E0A9F335D00E2E3AF0E0E832D091505040A1
S11329F0E695001CCAF72BD0FE2F29D0660F771F4F
S1132A00881FBB1F261737074807AB07B0E809F034
S1132A10BB0B802DBF01FF2793585F4F3AF09E3FB9
S1132A20510578F00C94A5150C94F0155F3FE4F370
S1132A30983ED4F3869577956795B795F7959F5FFC
S1132A40C9F7880F911D9695879597F90895E1E048
S1132A50660F771F881FBB1F621773078407BA07A7
S1132A6020F0621B730B840BBA0BEE1F88F7E09502
S1132A7008950E94D51588F09F5798F0B92F99278B
S1132A80B751B0F0E1F0660F771F881F991F1AF055
S1132A90BA95C9F714C0B13091F00E94EF15B1E0B6
S1132AA008950C94EF15672F782F8827B85F39F0B5
S1132AB0B93FCCF3869577956795B395D9F73EF4EE
S1132AC090958095709561957F4F8F4F9F4F089596
S1132AD0E89409C097FB3EF49095809570956195B4
S1132AE07F4F8F4F9F4F9923A9F0F92F96E9BB276A
S1132AF09395F695879577956795B795F111F8CFE6
S1132B00FAF4BB0F11F460FF1BC06F5F7F4F8F4F50
S1132B109F4F16C0882311F096E911C0772321F046
S1132B209EE8872F762F05C0662371F096E8862FDE
S1132B3070E060E02AF09A95660F771F881FDAF735
S1132B40880F9695879597F9089597F99F6780E878
S1132B5070E060E008959FEF80EC089500240A94EB
S1132B601616170618060906089500240A94121664
S1132B701306140605060895092E0394000C11F497
S1132B80882352F0BB0F40F4BF2B11F460FF04C044
S1132B906F5F7F4F8F4F9F4F089557FD9058440F9D
S1132BA0551F59F05F3F71F04795880F97FB991FA8
S1132BB061F09F3F79F08795089512161306140665
S1132BC0551FF2CF4695F1DF08C0161617061806F2
S1132BD0991FF1CF86957105610508940895E894CD
S1132BE0BB2766277727CB0197F908950E9409161A
S1132BF00C94BC150E94AE1538F00E94B51520F057
S1132C00952311F00C94A5150C94AB1511240C9478
S1132C10F0150E94CD1570F3959FC1F3950F50E008
S1132C20551F629FF001729FBB27F00DB11D639F7A
S1132C30AA27F00DB11DAA1F649F6627B00DA11D20
S1132C40661F829F2227B00DA11D621F739FB00DC6
S1132C50A11D621F839FA00D611D221F749F332736
S1132C60A00D611D231F849F600D211D822F762FCF
S1132C706A2F11249F5750409AF0F1F088234AF0AC
S1132C80EE0FFF1FBB1F661F771F881F9150504018
S1132C90A9F79E3F510580F00C94A5150C94F015EE
S1132CA05F3FE4F3983ED4F3869577956795B7959F
S1132CB0F795E7959F5FC1F7FE2B880F911D9695B9
S1132CC0879597F90895EE0FFF1F0590F491E02D75
S1132CD009940F931F93CF93DF938230910510F4DF
S1132CE082E090E0E0910805F091090520E030E0F1
S1132CF0A0E0B0E0309719F1408151810281138145
S1132D0048175907C8F08417950769F4109731F0EC
S1132D1012960C93129713961C9327C000930805E0
S1132D201093090522C02115310519F042175307E4
S1132D3018F49A01BD01EF01DF01F801DBCF211581
S1132D403105F9F0281B390B2430310580F48A81D0
S1132D509B816115710521F0FB019383828304C07B
S1132D609093090580930805FE01329644C0FE0144
S1132D70E20FF31F81939193225031093983288301
S1132D803AC02091060530910705232B41F4209188
S1132D900201309103013093070520930605209129
S1132DA00001309101012115310541F42DB73EB7E1
S1132DB04091040150910501241B350BE091060557
S1132DC0F0910705E217F307A0F42E1B3F0B281719
S1132DD0390778F0AC014E5F5F4F2417350748F090
S1132DE04E0F5F1F509307054093060581939193FF
S1132DF002C0E0E0F0E0CF01DF91CF911F910F918D
S1132E000895CF93DF93009709F481C0FC013297B2
S1132E1013821282A0910805B0910905109781F4DC
S1132E2020813181820F931F20910605309107057F
S1132E302817390751F5F0930705E093060567C095
S1132E40ED0120E030E0CE17DF0740F44A815B81DA
S1132E509E0141155105F1F0EA01F5CFD383C283F8
S1132E6040815181840F951FC817D90759F488816F
S1132E709981840F951F0296918380838A819B8117
S1132E80938382832115310529F4F0930905E09396
S1132E9008053DC0E901FB83EA8349915991C40FB8
S1132EA0D51FEC17FD0761F480819181840F951F74
S1132EB00296E90199838883828193819B838A8323
S1132EC0E0E0F0E012968D919C911397009719F031
S1132ED0FD01DC01F7CF8D919C9111979D012E5F2F
S1132EE03F4F820F931F2091060530910705281745
S1132EF0390769F4309729F41092090510920805EE
S1132F0002C013821282B0930705A0930605DF91D5
S1132F10CF910895FC0188279927E89421912032C4
S1132F20E9F3293010F02E30C8F32B3241F02D3262
S1132F3039F4689404C00E942118820F911D2191D4
S1132F4020532A30C0F31EF4909581959F4F089525
S1132F50FB01DC0102C005900D9241505040D8F7AE
S1132F600895FB01DC0105900D920020E1F708951E
S1132F7040EB51E00E94EF170895FB01DC0104C00F
S1132F808D910190801921F441505040C8F7881B5D
S1132F90990B0895FB01DC010D900020E9F71197CE
S1132FA001900D920020E1F70895FB01DC018D9161
S1132FB0019080190110D9F3990B0895FB01DC01EC
S1132FC001900D920020E1F70895DC016C916154A9
S1132FD06A3108F060526F596D93C1F70895FA0190
S1132FE0A191B081009719F41097E1F0CD01DC01B3
S1132FF0CD010D90002011F4C00113C0FB012191FB
S1133000222319F02015D9F7F3CFFB0121912015C4
S113301019F41E92119606C02223C1F70D900020C8
S1133020A1F7D001FA01A193B0830895BB274A30D8
S113303031F4992322F4BDE2909581959F4F0C942D
S11330402A187AE0979F902D879F802D910D112447
S11330500895BB27FB015527AA27880F991FAA1F8C
S1133060A41710F0A41B83955051B9F7A05DAA339F
S113307008F0A95DA193009779F7B111B19311926A
S1133080CB010C944318DC01FC01672F7191772369
S1133090E1F7329704C07C916D9370836291AE170F
S11330A0BF07C8F30895DC01CB01FC01F999FECFF9
S11330B006C0F2BDE1BDF89A319600B40D924150BC
S11330C05040B8F70895F999FECF92BD81BDF89AA2
S11330D0992780B50895A8E1B0E042E050E00C944F
S11330E05518DC01A40FB51F4150504048F0CB01E6
S11330F0840F951F2E910E94821841505040D0F7A2
S11331000895262FF999FECF92BD81BDF89A0197B3
S113311000B4021639F01FBA20BD0FB6F894FA9A1B
S1133120F99A0FBE08950196272F0E9482180C94D5
S11331308118DC01CB0103C02D910E94A4184150D9
S11331405040D0F70895262FF999FECF1FBA92BDAB
S113315081BD20BD0FB6F894FA9AF99A0FBE019674
S10931600895F894FFCF6E
S113316600000A052000FFFFFFFF00BA05766F6C1A
S11331767570000000000000CA05766F6C646F77F6
S11331866E00000001DA05736574766F6C0000004A
S113319600000E0567657461646376616C00020B5A
S11331A60672656772656D00000000010C076465B0
S11331B66C72656D0000000000A50773686F777276
S11331C6656D00000001EB0873657435766C656403
S11331D600000111097365743376336C656400016C
S11331E63709736574696E636475720000770967DD
S11331F66574696E63647572003031323334353602
S1133206373839414243444546002000202C00000B
S9030000FC
