S0120000566F6C4374726C5F46572E7372656350
S11300000C94B2040C94CF040C94CF040C94CF043D
S11300100C94CF040C94CF040C94CF040C94CF0410
S11300200C94CF040C94CF040C94CF040C94FD13C3
S11300300C94CF040C94CF040C94CF040C94CF04F0
S11300400C94CF040C94CF040C94B5140C94EA14BF
S11300500C94CF040C9445140C94CF040C94CF044A
S11300600C94CF040C94CF040C94CF040C94CF04C0
S11300700C94CF040C94CF040C94CF040C94CF04B0
S11300800C94CF040C9421140C94CF040C94CF043E
S11300900C94CF040C94CF040C94CF040C94CF0490
S11300A00C94CF040C94CF040C94CF040C94CF0480
S11300B00C94CF04A80C490D770DE30D050EA50D86
S11300C0C40D496E76616C696420417267756D6513
S11300D06E74200D0A00335633204C4544204F469D
S11300E046210D0A00335633204C4544204F4E21FF
S11300F00D0A00496E76616C696420417267756D02
S1130100656E7420636F756E74210D0A00496E76F6
S1130110616C696420417267756D656E74200D0AA7
S1130120003556204C4544204F4646210D0A0035E3
S113013056204C4544204F4E210D0A00496E7661ED
S11301406C696420417267756D656E7420636F75A8
S11301506E74210D0A000D0A0020307800203078DA
S11301600020494458207C2050524F544F434F4C58
S1130170207C2049525F41444452207C2049525FF4
S1130180434D4420207C20434D4420202020202027
S1130190202020207C204445534352495054494F49
S11301A04E0D0A00496E76616C6964204172677570
S11301B06D656E7420636F756E74210D0A0044655D
S11301C06C65746564210D0A00496E646578206F5E
S11301D07574206F662072616E6765210D0A000DCB
S11301E00A0044656C657465204B657920776974F1
S11301F06820696E6465783A20004E6F2072656DE0
S11302006F7465206B6579207265676973746572B4
S113021065642E204E6F7468696E6720746F206465
S1130220656C657465210D0A00496E76616C6964BC
S113023020417267756D656E7420636F756E7421ED
S11302400D0A000D0A00202020666C6167733A20B5
S1130250307800202020636F6D6D616E643A203029
S11302607800202020616464726573733A203078CA
S11302700070726F746F636F6C3A203078004B6556
S11302807920726567697374657220737563636539
S1130290737366756C210D0A005772697465207456
S11302A06F20454550524F4D2E2E2E0D0A004B65A2
S11302B079707265737320726567697374657265AA
S11302C0640D0A000D0A000D0A54696D656F75749A
S11302D0210D0A005072657373207468652064658B
S11302E07369726564206B6579206F6E207468652C
S11302F02069722D72656D6F74650D0A00726567F1
S113030072656D3A20496E76616C6964206E756D14
S1130310626572206F6620617267756D656E7473B5
S113032020666F7220636D6420746F207265676944
S1130330737465720D0A0072656772656D3A2059AF
S11303406F7520747269656420746F2072656769C3
S113035073746572206120756E6B6E6F776E2063A7
S11303606F6D6D616E640D0A00546865206D61786F
S1130370696D756D206E756D6572206F66206B6595
S1130380797320746F20726567697374657220696C
S1130390732072656163686564210D0A000D0A00AB
S11303A0546172676574204144432076616C7565BD
S11303B03A2000417267756D656E74206F75742004
S11303C06F662072616E6765210D0A000D0A006177
S11303D07267763A20000D0A00617267633A200062
S11303E0736574766F6C2064657465637465640DFD
S11303F00A00496E76616C696420417267756D65A7
S11304006E7420636F756E74210D0A00766F6C64D0
S11304106F776E2064657465637465640D0A007695
S11304206F6C646F776E20646F6573206E6F7420D9
S1130430657870656374206120617267756D656E9F
S113044074210D0A00766F6C7570206465746563A1
S11304507465640D0A00566F6C757020646F657363
S1130460206E6F74206578706563742061206172FA
S113047067756D656E74210D0A000D0A00414443D1
S11304802056616C75653A20000A000B000B000CC5
S1130490000D000F0011001500180019001C001EAB
S11304A000250030003B0045004F005A00660072F2
S11304B0007D00880093009C00AA00BA00BF00C41D
S11304C000CF00DC00E800F2000001170134015500
S11304D0017F01B601F40131026E02AB02E702238F
S11304E0035D039703CE03F103FC03FF03FF0355EE
S11304F04152545F4E4F5F44415441206F636375D2
S1130500727265642100554152545F425546464516
S1130510525F4F564552464C4F57206F6363757276
S11305207265642100554152545F4F5645525255ED
S11305304E5F4552524F52206F6363757272656409
S11305402100554152545F4652414D455F45525238
S11305504F52206F6363757272656421004C696E3B
S113056065206C656E67746820657863656564737F
S113057020627566666572210052657175697265DF
S11305806420617267756D656E7473206E6F74207C
S113059070726573656E74210D0A004D656D6F721E
S11305A07920616C6C6F636174696F6E2066616938
S11305B06C6564210D0A004D6178206172672E20FC
S11305C0737472696E67206C656E677468206578F1
S11305D0636565646564210D0A00546865206E7561
S11305E06D626572206F6620617267756D656E74E9
S11305F0732065786365656473207468652073701F
S11306006563696669656420706172736572206CE4
S1130610696D6974210D0A00556E6B6E6F776E20DB
S1130620636F6D6D616E64210D0A00566F6C756D9C
S11306306520736561726368206572726F72210D43
S11306400A004D6F746F722040206C6F77657220C2
S11306506C696D2E210D0A004D6F746F722040205D
S11306607570706572206C696D2E210D0A004D6FD6
S1130670746F722040206C6F776572206C696D2EE8
S1130680210D0A004D6F746F7220402075707065E3
S113069072206C696D2E210D0A000D0A00202020A5
S11306A0666C6167733A20307800202020636F6D98
S11306B06D616E643A203078002020206164647299
S11306C06573733A2030780070726F746F636F6C67
S11306D03A203078003606090609060906090000A2
S11306E0000A0A000003070B100B100000000001B1
S11306F007070D0D00000105030A0E18030A04097B
S113070000101C283001010003050C0F1E050C0409
S11307100B001015252501010002050C1122050C02
S1130720050C000000000001010002050C11220567
S11307300C050C0010102020010100010F15070BFF
S1130740070B070B0F14000F1400010035092F09C4
S11307502B0923091B0912090B0907090109FD08C3
S1130760F508EF08E608DF08D608CE08C808C00870
S1130770BC08B608B208AD08A708A0089B089208F0
S11307808B0885087F087A0872086D0865085F0879
S113079054084D0846083F08380830082A0822083B
S11307A01B08140810080B080508FC07F207E607E5
S11307B0DE07D407CD07C807C307BC075241444925
S11307C04F31005243494900475245450049524D73
S11307D05031360053414D53554E47414800564918
S11307E04E43454E54004D495453555F4845415678
S11307F0590050414E41534F4E49430054454348DC
S11308004E49435300414350323400533130300099
S113081046414E0050454E544158004D45524C49B6
S11308204E0053414D53473438004C474149520020
S1130830535045414B45520052434D4D31320052C5
S1130840434D4D32340052434D4D333200524F4FDD
S11308504D42410054454C4546554E4B454E004F84
S11308605254454B0041315456424F5800424F5365
S1130870450054484F4D534F4E004C45474F004E92
S113088045433432004E45433136004E4554424FC1
S113089058004B4154485245494E004952363000A5
S11308A052555749444F004E494B4F4E0052433620
S11308B041004A56430052434341520046444300D8
S11308C05349454D454E53004E4F4B494100475205
S11308D0554E4449470042414E47204F4C55004E27
S11308E0554245525400524543533830455800410F
S11308F050504C450053414D534733320052433618
S11309000044454E4F4E0052433500524543533840
S113091030004B415345494B594F004D41545355B9
S113092053480053414D53554E47004E45430053E1
S11309304952435300554E4B4E4F574E000D0A003B
S113094076312E300048656C6C6F206865726520C6
S113095069732074686520566F6C4374726C20460A
S11309605720000011241FBECFEFD8E0DEBFCDBF5B
S113097011E0A0E0B1E0E6E6F5E302C005900D92D7
S1130980A039B107D9F725E0A0E9B1E001C01D9273
S1130990AF30B207E1F70E945B140C94B11A0C94C7
S11309A00000CF93DF93EC01FC01E60FF11D1082F0
S11309B09FEF960F662391F0DE01A90FB11DFA0196
S11309C0EF70FF27E158FE4F20812C9352954295FA
S11309D04F7045275F704527915070F7CE01DF9126
S11309E0CF910895CF93DF93CDB7DEB72B970FB692
S11309F0F894DEBF0FBECDBF8DE794E00E94791559
S1130A00F8948091FF01909100024AE0BE016F5F6B
S1130A107F4F0E945A170E946A1578948AE794E0DF
S1130A200E9479152B960FB6F894DEBF0FBECDBF8A
S1130A30DF91CF9108958091020281110CC0109230
S1130A40950010929400E1E9F0E080818460808355
S1130A5081E0809302020895E1E9F0E080818B7FD8
S1130A6080831092020208951092950010929400CF
S1130A7008955B985A982FEF80E792E021508040C8
S1130A809040E1F700C0000008958B30910528F0F4
S1130A908F3F934020F480E0089581E0089582E040
S1130AA0089590910A01981728F486E594E00E942D
S1130AB07915089585E494E00E94791581E0809386
S1130AC00102089590911701981728F48FE194E09A
S1130AD00E94791508958CE094E00E94791582E0D3
S1130AE0809301020895CF92DF92EF92FF920F93C9
S1130AF01F93CF93DF9300D000D01F92CDB7DEB702
S1130B00E82E6B01809124018E1528F482EF93E086
S1130B100E94791562C080EE93E00E94791589EDF8
S1130B2093E00E9479150E2D10E04AE0BE016F5F3C
S1130B307F4FC8010E945A170E946A1586ED93E000
S1130B400E94791510161106BCF48601F12CEE0CE6
S1130B50FF1CEC0CFD1C8FEC93E00E947915F8014E
S1130B60819191918F010E946A158CEC93E00E940F
S1130B7079150E151F0579F7F601808191810E9480
S1130B80C0168536910528F083EB93E00E94791511
S1130B9024C0FC0199230CF43196EE7FE757FB4FF8
S1130BA0859194919093FC018093FB0183E0809361
S1130BB0010280EA93E00E9479154AE0BE016F5F6A
S1130BC07F4F8091FB019091FC010E945A170E9473
S1130BD06A158DE993E00E9479150F900F900F909C
S1130BE00F900F90DF91CF911F910F91FF90EF9095
S1130BF0DF90CF900895882311F02D9A08952D98B1
S1130C00089539B129B133FB882780F990E0880F22
S1130C10991F22FB992790F9892B813039F0823072
S1130C2019F0811105C009C081E0089582E008959A
S1130C3081E00E94FB058FEF089580E008950E94F3
S1130C400106882319F0823021F008955B9A5A989E
S1130C5008950E9439050E942C052FEF80E792E049
S1130C60215080409040E1F700C0000008950E94A8
S1130C700106813039F018F08230A9F011C05B9878
S1130C805A9A08950E9439050E942C052FEF80E797
S1130C9092E0215080409040E1F700C000000895A8
S1130CA081E00E94FB0508959F92AF92BF92CF927C
S1130CB0DF92EF92FF920F931F93CF93DF93CDB701
S1130CC0DEB7E5970FB6F894DEBF0FBECDBF982E02
S1130CD06B018091FA018E3028F089E693E00E943E
S1130CE079152BC1FB0160817181CE0182960E942E
S1130CF01417F601A280B3800F2EFDE0EF2EF1E071
S1130D00FF2EF02D00E010E0B701C5010E940B1783
S1130D10892B89F40E83292D30E0225031098DE08E
S1130D20089FF0011124E65FFE4F808190E02817B0
S1130D30390751F40EC00F5F1F4F9DE0E90EF11CFF
S1130D400930110509F7F5C08DEF92E00E9479157D
S1130D50F4C01F828DEF890D8D3F10F586010C5F65
S1130D601F4F892D90E0880F991FC80ED91E7E0150
S1130D70E7E0EE0EF11C6894AA24A5F8B12CF70163
S1130D8001900020E9F73197B182A082F8016191C6
S1130D9071918F01C7010E9400170C151D0579F789
S1130DA084ED92E00E9479150F2EF4EFEF2EFF24CC
S1130DB0F394F02D00E010E01DC0193058F000311C
S1130DC020F08DE00E94511500E08EE20E94511542
S1130DD00F5F10E08FE19EE40197F1F700C000007F
S1130DE01F5F91E0E91AF10829F487EC92E00E9470
S1130DF07915A3C088E593E00E94570F8823E9F290
S1130E0084EC92E00E9479158EEA92E00E947915B2
S1130E1008E513E0F80180818983818192819B83B5
S1130E208A83838194819D838C838091FA01F1E28A
S1130E308F9FD0011124A25ABC4F91E2FE0131963A
S1130E4001900D929A95E1F78F5F8093FA0189E9F9
S1130E5092E00E9479158091FA0190E00197BC011B
S1130E60660F771F880F991F880F991F880F991F86
S1130E70680F791F605070404AE050E0CE018296BE
S1130E800E94401A4DEA51E062E870E08EE593E07A
S1130E900E94401A6091FA0181E392E00E94501A84
S1130EA08EE792E00E94791581E792E00E9479151D
S1130EB0F801408150E062E0CE018C960E94D1049A
S1130EC0CE018C960E946A1582E692E00E94791502
S1130ED0F8014181528164E0CE018C960E94D104D4
S1130EE0CE018C960E946A1583E592E00E947915E2
S1130EF0F8014381548164E0CE018C960E94D104B0
S1130F00CE018C960E946A1586E492E00E947915BF
S1130F10F801458150E062E0CE018C960E94D10434
S1130F20CE018C960E946A1583E492E00E947915A2
S1130F3004C087E393E00E947915E5960FB6F89410
S1130F40DEBF0FBECDBFDF91CF911F910F91FF90F8
S1130F50EF90DF90CF90BF90AF909F900895AF92A5
S1130F60BF92CF92DF92EF92FF920F931F93CF9392
S1130F70DF93CDB7DEB72A970FB6F894DEBF0FBE66
S1130F80CDBF8B0190914B01981728F489E292E030
S1130F900E94791576C08091FA01811105C08AEF0B
S1130FA091E00E9479156DC082EE91E00E9479155E
S1130FB0F801808191810E946A158FED91E00E9471
S1130FC07915F801808191810E94C0165C01BB24CF
S1130FD095012F5F3F4F8091FA0190E082179307AC
S1130FE02CF489EC91E00E9479154BC00F2EFEE59C
S1130FF0CF2EF3E0DF2EF02D0F2EFAE0EF2EF0E0EF
S1131000FF2EF02D00E010E00A151B05C4F081E26C
S1131010F601B196D60101900D928A95E1F74AE066
S113102050E0B701CE0101960E94281A4AE050E030
S1131030B7016A507109CE0101960E94621A0F5FCE
S11310401F4FF1E2CF0ED11C8AE0E80EF11C0C30E8
S11310501105D1F68091FA0181508093FA014DEA8D
S113106051E062E870E08EE593E00E94401A6091DE
S1131070FA0181E392E00E94501A8EEB91E00E9403
S113108079152A960FB6F894DEBF0FBECDBFDF9157
S1131090CF911F910F91FF90EF90DF90CF90BF9071
S11310A0AF9008952F923F924F925F926F927F92EA
S11310B08F929F92AF92BF92CF92DF92EF92FF9264
S11310C00F931F93CF93DF93CDB7DEB768970FB617
S11310D0F894DEBF0FBECDBF90915801981728F445
S11310E084EA91E00E94791521C181E691E00E9491
S11310F079158091FA01882309F418C180E090E001
S1131100988F8F8B0F2EFEE54F2EF3E05F2EF02D80
S1131110212C312C8E01055F1F4F6894882482F89E
S1131120912C0F2EF9E0AF2EB12CF02D0F2EF6E0FE
S1131130CF2ED12CF02D0F2EFDE06F2E712CF02D23
S113114080E20E9451154AE0B801C1010E945A1779
S11311500E946A15E12CF12C06C080E20E94511510
S11311609FEFE91AF90AF80101900020E9F7319795
S1131170E01BF10BC4018E1B9F0BE816F90668F304
S11311808CE70E94511580E20E9451155E8A4D8AB7
S1131190D201EC91F0E0EE0FFF1FE45BF84F659194
S11311A07491C8010E94E716C8010E946A15E12CD7
S11311B0F12C06C080E20E945115BFEFEB1AFB0A26
S11311C0F80101900020E9F73197E01BF10BC5010C
S11311D08E1B9F0BE816F90668F38CE70E945115E5
S11311E08DE591E00E947915ED89FE894181528156
S11311F064E0C8010E94D1040E946A15E12CF12C1C
S113120006C080E20E945115FFEFEF1AFF0AF801B1
S113121001900020E9F73197E01BF10BC6018E1B0A
S11312209F0BE816F90668F38CE70E94511589E5CF
S113123091E00E947915AD89BE8913964D915C9118
S1131240149764E0C8010E94D1040E946A15E12C3D
S1131250F12C06C080E20E945115BFEFEB1AFB0A85
S1131260F80101900020E9F73197E01BF10BC6016A
S11312708E1B9F0BE816F90668F38CE70E94511544
S113128080E20E945115ED89FE896581FDE0F69F9B
S1131290B0011124635F7E4FC8010E941417B2018C
S11312A06A5F7F4FC8010E940017C8010E946A1537
S11312B0E12CF12C06C080E20E9451158FEFE81A50
S11312C0F80AF80101900020E9F73197E01BF10BCF
S11312D0C3018E1B9F0BE816F90668F38CE70E9486
S11312E0511580E20E9451154AE050E06F89788DD3
S11312F0CE0101960E94281ACE0101960E946A1519
S113130086E591E00E9479159FEF291A390AAF8981
S1131310B88D1A96B88FAF8BB1E24B0E511C8091E9
S1131320FA0190E0281639060CF40ACF68960FB635
S1131330F894DEBF0FBECDBFDF91CF911F910F9107
S1131340FF90EF90DF90CF90BF90AF909F908F90E1
S11313507F906F905F904F903F902F900895909161
S11313606501981728F48CE391E00E94791508959B
S1131370DB01ED91FC918081813359F4719A61E034
S113138080E392E00E94501A8FE291E00E94791566
S11313900895803359F4719860E080E392E00E94EC
S11313A0501A81E291E00E94791508958DE091E050
S11313B00E947915089590917201981728F483EF8B
S11313C090E00E9479150895DB01ED91FC918081F4
S11313D0813359F45D9A61E08FE292E00E94501AE1
S11313E085EE90E00E9479150895803359F45D9854
S11313F060E08FE292E00E94501A86ED90E00E9435
S11314007915089582EC90E00E9479150895AF92C1
S1131410BF92CF92DF92EF92FF920F931F93CF93DD
S1131420DF93CDB7DEB729970FB6F894DEBF0FBEB2
S1131430CDBF8C0180E29CE29A8389831B82C80120
S11314400E941B17BE016F5F7F4FC8010E94EE16FA
S11314505C010AE011E00F2EFFE7CF2EF1E0DF2E52
S1131460F02DE12CF12CB8016D5F7F4FC5010E9476
S11314700B17892B09F47801035F1F4F0C151D0509
S113148091F7E114F10431F488E196E00E947915B2
S11314908FEF89C0BE016F5F7F4F80E090E00E94B4
S11314A0EE168C01892B09F469C0D12CD8018C91DA
S11314B0882399F1B2E0BD1528F48AED95E00E94E5
S11314C0791537C0F80101900020E9F73197CF0171
S11314D0801B910B992701968A3091052CF087EB9C
S11314E095E00E94791525C00E949F15ED2DF0E02E
S11314F0EE0FFF1F21E030E02C0F3D1FE20FF31F22
S113150094838383009729F48BE995E00E947915ED
S113151010C0B8010E941417D394BE016F5F7F4FAF
S113152080E090E00E94EE168C01892B09F0BECF7A
S113153026C0D7018C91D81638F1CC24C39405C0A9
S113154089E795E00E9479151FC0DD2091F08E0196
S11315500C5F1F4FED2CF12CEE0CFF1CE00EF11E66
S1131560F801819191918F010E9437160E151F0584
S1131570B9F781E0C11017C080E015C0D12CD701A4
S11315808C91D81620F4DCCFCC24C394DECFD701C1
S11315901196ED91FC911297BE016C5F7F4F8D2DDA
S11315A00995C12CD2CF29960FB6F894DEBF0FBE91
S11315B0CDBFDF91CF911F910F91FF90EF90DF90FE
S11315C0CF90BF90AF9008950F931F93CF93DF9365
S11315D0FC0101900020E9F73197E81BF90BEE2399
S11315E061F1E150CE2FD0E0DC01AC0FBD1F2C9196
S11315F0203279F4EE2319F1E150CE2FD0E0DC0152
S1131600AC0FBD1F2C91203221F4E111F5CF8FEFE7
S11316101DC0EE23B1F08C01AE016DE071E00E94BB
S11316202517892B81F0AE016AE171E0C8010E949F
S11316302517892B51F08FEF09C08FEF07C08FEF6B
S113164005C08FEF03C080E001C081E0DF91CF913E
S11316501F910F91089593FF07C082E495E00E94C3
S1131660791520E038E01DC092FF07C085E295E0BF
S11316700E94791520E034E014C091FF07C086E091
S113168095E00E94791520E032E00BC09C012227EE
S1131690317090FF06C08FEE94E00E94791520E02F
S11316A031E0C9010895FF920F931F93CF93DF9305
S11316B0EC010E948B15892B09F447C00E94311557
S11316C0182FF92E0E942B0B009731F0812F9F2D9C
S11316D00E942B0B82603EC01D3049F42091920180
S11316E0222319F01092920135C0188233C01830A9
S11316F011F01F3779F480919201882319F08150F9
S11317008093920180919201C80FD11D188281E0CB
S113171090E020C01A30E1F080919201803570F49D
S113172091E0980F90939201FE01E80FF11D108350
S1131730C90FD11D188281E090E00CC08DE595E0C1
S11317400E94791582E090E005C081E090E002C03B
S113175081E090E0DF91CF911F910F91FF90089568
S11317608F929F92AF92BF92CF92DF92EF92FF92AD
S11317700F931F93CF93DF9300D000D000D0CDB749
S1131780DEB74901E5E9F1E0A8E5B3E011968D91F2
S11317909C9112979283818313968D919C911497B7
S11317A0948383838C918083A090FA01B12C1A14C2
S11317B01B044CF50F2EFEE5CF2EF3E0DF2EF02DAB
S11317C0E12CF12C45E050E0B60185E991E00E945E
S11317D0F316892B79F481E28E9DF0018F9DF00D33
S11317E01124E25AFC4F8581F801808381E0F401E1
S11317F080830EC0FFEFEF1AFF0A81E2C80ED11CEE
S1131800EA14FB04F9F6F40110828FEFF8018083E7
S113181026960FB6F894DEBF0FBECDBFDF91CF91F1
S11318201F910F91FF90EF90DF90CF90BF90AF90FA
S11318309F908F9008950F931F938091FD018823AB
S113184071F104E911E023E931E04091580350912A
S1131850590360915A0370915B0380915C039091EA
S11318605D030E94B00B80919301882391F08091D5
S11318709401811106C081E0809301021092FD0160
S11318802CC0813031F482E0809301021092FD017A
S113189024C00E942C050E943905109201028091F7
S11318A0FE018823D1F088E093E00E94E40A8111CC
S11318B006C081E0809301021092FE010EC08130C7
S11318C031F482E0809301021092FE0106C00E946E
S11318D02C050E943905109201021F910F91089561
S11318E0DF92EF92FF920F931F93CF93DF93CDB7C5
S11318F0DEB72A970FB6F894DEBF0FBECDBF88E0DF
S113190093E00E94530B892B19F481E08093FE012C
S113191088E593E00E94570F882319F081E08093B3
S1131920FD01F8948091FF01909100029093C3010E
S11319308093C2017894E09101028E2F90E0873069
S1131940910508F0CEC1FC01E65AFF4F0C9499159D
S11319508091FE01882331F088E093E00E94070A19
S11319601092FE018091FD01882309F4BAC188EC2C
S113197096E00E94791508E513E0D8014C9150E0F7
S113198062E0CE0101960E94D104CE0101960E942C
S11319906A1589EB96E00E947915F801418152811C
S11319A064E0CE0101960E94D104CE0101960E940A
S11319B06A158AEA96E00E947915D80113964D912A
S11319C05C91149764E0CE0101960E94D104CE018B
S11319D001960E946A158DE996E00E947915F80136
S11319E0458150E062E0CE0101960E94D104CE010F
S11319F001960E946A158AE996E00E947915E5E944
S1131A00F1E0D80111968D919C9112979283818374
S1131A1013968D919C911497948383838C918083E6
S1131A208091FA01882391F10EE513E0E12CF12C69
S1131A300F2EFDE0DF2EF02D45E050E0B80185E9E2
S1131A4091E00E94F316892BB1F4F8016581D69ECA
S1131A50B0011124635F7E4F8AE991E00E9414175C
S1131A60B8016A5F7F4F8AE991E00E9400178AE912
S1131A7091E00E94070AFFEFEF1AFF0A0F5D1F4F64
S1131A808091FA0190E0E816F906B4F21092FD0193
S1131A9028C18091C2019091C3010E944505823002
S1131AA059F484E896E00E947915109201020E948C
S1131AB02C050E94390515C18091020281110FC0C5
S1131AC00E941B050E940106811103C00E941F068B
S1131AD00AC081E00E94FB050E94390504C00E94EF
S1131AE034050E941F0685E080930102FAC08091AC
S1131AF0C2019091C3010E944505813059F48EE6DC
S1131B0096E00E947915109201020E942C050E9411
S1131B103905E7C08091020281110FC00E941B05A4
S1131B200E940106811103C00E9437060AC081E0A9
S1131B300E94FB050E94390504C00E9434050E94DE
S1131B40370686E080930102CCC0809102028111A5
S1131B5005C00E94390510920102C3C00E941B0CEB
S1131B608091C2019091C3010E944505823009F021
S1131B70B8C088E596E00E9479150E9439050E9454
S1131B802C0510920102ADC080910202811105C0A2
S1131B900E94390510920102A4C00E941B0C80917E
S1131BA0C2019091C3010E944505813009F099C09A
S1131BB082E496E00E9479150E9439050E942C0562
S1131BC0109201028EC04091C2015091C301209134
S1131BD0FB013091FC01CA01821B930B9093C50158
S1131BE08093C401892B29F40E94390510920102C3
S1131BF078C04217530718F40E941F0602C00E94BF
S1131C00370684E0809301026CC08091C2019091F8
S1131C10C3012091FB013091FC01821B930B909333
S1131C20C5018093C4011816190624F40E94010604
S1131C30823051F48091C4019091C50199237CF4C0
S1131C400E940106813059F00E9439058BE296E02A
S1131C500E9479151092010281E00E94FB05809197
S1131C60C4019091C501892B29F40E943905109271
S1131C70010237C08091FD01882309F104E911E0D4
S1131C8023E931E0409158035091590360915A037C
S1131C9070915B0380915C0390915D030E94B00B93
S1131CA080919301882331F080919401823010F463
S1131CB01092FD010E9439051092010212C0809118
S1131CC0FE01882371F088E093E00E94E40A809387
S1131CD09401823010F41092FE010E943905109292
S1131CE001022A960FB6F894DEBF0FBECDBFDF9176
S1131CF0CF911F910F91FF90EF90DF900895209165
S1131D00F1019091F901921748F13091F201931782
S1131D1028F53091F7013323A9F0482F50E0692FBB
S1131D20621B9A0102C0220F331F6A95E2F74091A9
S1131D30DD015091DE01242B352B3093DE012093FD
S1131D40DD0138C02091DD013091DE01220F331F07
S1131D50282B3093DE012093DD012CC02091F30168
S1131D60921740F13091F401931720F53091F70167
S1131D703323A9F0482F50E0692F621B9A0102C057
S1131D80220F331F6A95E2F74091DB015091DC0189
S1131D90242B352B3093DC012093DB010BC02091E5
S1131DA0DB013091DC01220F331F282B3093DC013F
S1131DB02093DB012091E8012330C9F42FEE290F91
S1131DC0243008F06DC0282F30E08FEE890F02C058
S1131DD0220F331F8A95E2F74091D9015091DA011D
S1131DE0242B352B3093DA012093D90159C02530A7
S1131DF009F056C02CEE290F2430A0F4282F30E02F
S1131E0048EF490F02C0220F331F4A95E2F7409171
S1131E10DB015091DC01242B352B3093DC01209322
S1131E20DB0112C028EE290F243070F4282F30E093
S1131E304CEE490F02C0220F331F4A95E2F730914E
S1131E40D201232B2093D201903350F58823A1F0A3
S1131E50E92FE695E695E695F0E0ED52FE4F892FE1
S1131E60877021E030E002C0220F331F8A95E2F729
S1131E708081282B208314C0E92FE695E695E6950A
S1131E80F0E0ED52FE4F892F877021E030E002C070
S1131E90220F331F8A95E2F720958081282320831F
S1131EA09F5F9093F90108955E9856980895FC01F8
S1131EB08091E701882309F4B8C09091E60193303A
S1131EC059F018F4923099F18CC0973009F480C01D
S1131ED0923309F465C085C02091E2013091E30199
S1131EE08091E2019091E301232F3327809590950F
S1131EF099272817390709F088C08091E201909149
S1131F00E30199279093E3018093E2018091E0013A
S1131F109091E1012091E2013091E301982F88270B
S1131F20822B932B9093E3018093E2015AC020917A
S1131F30E2013091E3018091E2019091E301232FCA
S1131F4033278095909599272817390751F4809164
S1131F50E2019091E30199279093E3018093E201D8
S1131F6040C08091E4019091E5018E3E974809F0CC
S1131F704CC08BE08093E6018091E2019091E301F3
S1131F80892F99279093E5018093E4018091E201E0
S1131F909091E30199279093E3018093E20121C09A
S1131FA02091E2013091E3018091E2019091E301FB
S1131FB0232F332799272817390739F58091E20110
S1131FC09091E30199279093E3018093E20109C082
S1131FD08091E4019091E5018F7D9093E5018093D8
S1131FE0E4018091E60180838091E4019091E50110
S1131FF0928381838091E2019091E30194838383AE
S11320008091DF01858381E003C01092E60180E0C6
S11320101092E3011092E2011092E5011092E401A2
S11320201092DF011092E701089580E00895CF93A4
S1132030DF9389B19091E701911196C380749091D7
S1132040D101911138C0811106C08091D0018F5FF8
S11320508093D00189C38091D0018823E9F081E085
S11320608093D1018093CF011092CE011092DC01B4
S11320701092DB011092DE011092DD011092D20168
S11320801092DA011092D9019FEF9093F901809395
S1132090CD011092CC0168C38091CA019091CB010B
S11320A08F3F2FEF920709F45FC301969093CB0102
S11320B08093CA0159C39091CF01992309F4ADC00B
S11320C0882379F08091CD018F5F8093CD018A3E82
S11320D008F443C21092D1011092D0011092CD01A4
S11320E043C38091D00191EE980F9B3030F49091CE
S11320F0CD019650953008F43AC392EA980F94357E
S113210058F49091CD0122ED290F2C3208F432C3FA
S11321109751973108F431C394EC980F903130F40F
S11321209091CD019C53903108F42AC398ED980FF7
S1132130973130F49091CD0193519D3008F423C32D
S113214095EF980F963020F09AEE980F9B3000F59B
S11321509091CD0125EF290F263020F02AEE290F8A
S11321602B30B0F49093C9018151803118F0915112
S1132170903140F41092C80180E48093CC0166EE63
S113218076E003C381E08093C80166EE76E0FDC289
S11321908650843080F48091CD019DED980F973066
S11321A050F48093C90181E08093C7018093C801F2
S11321B065ED76E0EAC21092D1011092F9018091A6
S11321C0F80180FF22C09091E8019731F1F0993035
S11321D0E1F02091EA014091CD01241770F450E020
S11321E030E0220F331F241735073CF086958170A9
S11321F091E089270E947F0E08C09091C801911137
S113220004C0869581700E947F0E81E08093D00186
S11322101092CD011092CF019BC19091CE019923D0
S113222009F472C1882309F4B7C29091F501209191
S1132230F90192131CC08091F6018130C1F48091A0
S1132240F80180FD0AC08091D0019091ED018917B9
S113225038F09091EE01981718F01092F6017DC1B4
S11322601092D1011092D0011092CD017DC28091C3
S1132270CD018F5F8093CD013091E801313031F58C
S1132280482F50E04C3051050CF12B30F8F0E8EEBB
S1132290F1E081E0820F8587822F90E00B97982FE1
S11322A088274091DD015091DE01842B952B90937A
S11322B0DE018093DD018385280F2F5F24878AE068
S11322C08093CD01808980FFE5C06CC04091F80106
S11322D040FF1DC0682F70E04091EC0150E0440FB6
S11322E0551F641775079CF0622F70E0492F50E06A
S11322F0425051096417750754F04091F601411199
S113230006C0E8EEF1E081E0868780894BC08A3E12
S113231008F423C1422F50E0892F90E00197481719
S1132320590741F48091F601811104C02F5F209375
S1132330F90113C1323011F03C3169F521112BC080
S11323408091CA019091CB018830974008F5E8EE5E
S1132350F1E081E0868782E0808315868091080120
S1132360909109019093DE018093DD018091060133
S1132370909107019093DC018093DB018091DF0150
S113238081608093DF011092CB011092CA01E5C0F5
S11323901092E701E2C01092D1011092D001109284
S11323A0CD01E2C19091D0012091EA01291798F45E
S11323B08695817091E089270E947F0EC8EED1E056
S11323C08889869581700E947F0E888986958170A0
S11323D08093C80122C08091E9019817D0F08091C0
S11323E0EC012091C901821778F430E090E0880F65
S11323F0991F8217930744F081E09091C8019111CD
S113240080E08093C80102C08091C8010E947F0EC1
S113241004C01092D1011092CD018091CD0180931E
S1132420C9011092CE016CC08091E801833091F50E
S11324308091F901803171F58091D0018550883007
S113244020F58091CD0194EC980F903130F41092E6
S1132450CE0181E18093F90153C0E8EEF1E09AE006
S1132460908390E1938790E2948795878F50803191
S113247030F481E00E947F0E1092CE0141C080E0D2
S11324800E947F0E1092CE013BC01092D101109297
S1132490CD0136C08091D0019091E9018917A0F057
S11324A09091EA01981780F09091CD012091EB0171
S11324B0921750F02091EC01291730F081E00E942E
S11324C07F0E1092CE011CC09091ED018917A0F0EF
S11324D09091EE01981780F08091CD019091EF01D9
S11324E0891750F09091F001981730F080E00E9425
S11324F07F0E1092CE0104C01092D1011092CD0132
S113250081E08093D00124C0811106C08091D00164
S11325108F5F8093D00121C081E08093CE018093AE
S1132520CD018091E8018633C1F48091C7018823ED
S1132530A1F08091D001873030F087508093D00192
S11325401092C80103C081E08093C8011092C701B2
S11325508091D101882309F407C18091F5019091FC
S1132560F901891301C19091F6019111FDC02091E7
S11325700601309107014091DB015091DC012417E1
S1132580350789F44091CA015091CB01403B544036
S113259050F49091C6019F5F9093C6019091E80119
S11325A0913041F012C01092C6019091E80191302F
S11325B061F4F7C08091C6018150823008F0F1C007
S11325C01092CB011092CA018FC041E04093E70101
S11325D0923011F58111E9C04091CA015091CB01AB
S11325E048305740B0F4409108015091090150938C
S11325F0DE014093DD013093DC012093DB01809107
S1132600DF0181608093DF011092CB011092CA0137
S1132610CCC01092E701C9C09530C1F5E3EDF1E0FB
S1132620808191814281282F2F7082958F7082271B
S1132630292F2F70822792959F709827892F90E0D9
S1132640242F2F7030E08217930711F01092E701C6
S1132650E3EDF1E08381942F982784818927958184
S113266089131092E7019091DF018091D201892BA7
S11326708093DF0185E08093E6018091DD019091F4
S1132680DE019093E5018093E4011EC09093E6017E
S11326902091DD013091DE013093E5012093E401C6
S11326A0923029F430930901209308010DC097302A
S11326B059F42091CC018091DB019091DC01822BB3
S11326C09093DC018093DB018091DB019091DC012C
S11326D09093E3018093E2018091D9019091DA0112
S11326E09093E1018093E0018091E701882391F1C7
S11326F08091DB019091DC0120910601309107016A
S113270028173907B9F44091080150910901209123
S1132710DD013091DE014217530761F42091CA01B3
S11327203091CB012A3C384028F42091DF0121600C
S11327302093DF012091DD013091DE013093090106
S11327402093080190930701809306011092CB0116
S11327501092CA011092D1011092DC011092DB0197
S11327601092D0011092CD018091E70129C06BE352
S113277077E00BC06AE277E008C069E177E005C062
S113278068E077E002C067EF76E041E150E088EE70
S113279091E00E94DE1611CD8091F80180FF44CEB5
S11327A001CE81E08093E70171CF9093E6012091FF
S11327B0DD013091DE013093E5012093E40172CF15
S11327C0DF91CF91089588E0809391008FE492E1A6
S11327D0909399008093980082E08093710008950B
S11327E010927C00EAE7F0E08FEA808380818064C5
S11327F0808381E080937E0008951F920F920FB62C
S11328000F9211242F933F934F935F936F937F9372
S11328108F939F93AF93BF93EF93FF930E941710EF
S1132820FF91EF91BF91AF919F918F917F916F91A4
S11328305F914F913F912F910F900FBE0F901F907A
S113284018951F920F920FB60F9211242F933F9356
S11328504F935F936F937F938F939F93AF93BF93A4
S1132860EF93FF930E942C05FF91EF91BF91AF91DD
S11328709F918F917F916F915F914F913F912F9194
S11328800F900FBE0F901F9018951F920F920FB6C6
S11328900F9211248F939F938091780090917900E7
S11328A0909300028093FF019F918F910F900FBE30
S11328B00F901F9018950E94540F84E192E090931A
S11328C089008093880089E080938100C2E0C093EE
S11328D06F000E94E3130E94F01388E090E00E94CE
S11328E0161585E499E00E94791580E499E00E9428
S11328F079158DE399E00E94791580E284B984E02A
S113290087B9CDB98CE28AB91BB880E00E94FB0577
S113291081E392E00E94381A8093FA014DEA51E073
S113292062E870E08EE593E00E94281A80E392E06A
S11329300E94381A882311F0719A01C071988FE2AD
S113294092E00E94381A882311F05D9A01C05D98C4
S11329502FEF81EE94E0215080409040E1F700C0D9
S1132960000078940E94700CFDCF1F920F920FB656
S11329700F9211242F933F934F935F938F939F93C1
S1132980EF93FF932091C0003091C600287180918D
S1132990050290E001968F7799274091040250E058
S11329A08417950739F080930502FC01E85FFD4F19
S11329B0308301C022E020930302FF91EF919F91A5
S11329C08F915F914F913F912F910F900FBE0F9078
S11329D01F9018951F920F920FB60F9211248F9388
S11329E09F93EF93FF9390910702809106029817AB
S11329F079F08091060290E001968F779927809371
S1132A000602FC01E857FD4F80818093C60005C093
S1132A10E1ECF0E080818F7D8083FF91EF919F91C5
S1132A208F910F900FBE0F901F901895F8941092ED
S1132A300702109206021092050210920402789482
S1132A40992324F422E02093C0009F779093C5003B
S1132A508093C40088E98093C10086E08093C2001B
S1132A600895F8949091050280910402981304C08B
S1132A70789480E091E0089578948091040290E045
S1132A8001968F77992780930402FC01E85FFD4F3C
S1132A9020818091030290E0982F8827820F911D56
S1132AA008954091070250E04F5F5F4F4F775527DD
S1132AB02091060230E042175307D1F3FA01E85798
S1132AC0FD4F808340930702E1ECF0E08081806257
S1132AD080830895CF93DF93EC018881882331F0BC
S1132AE021960E94511589918111FBCFDF91CF91DD
S1132AF00895CF93DF93EC012196FC018491882300
S1132B0039F00E945115FE01849121968111F9CF6B
S1132B10DF91CF910895F8948091050220910402E9
S1132B20789490E080589F4F821B91098F77992762
S1132B300895EE0FFF1F0590F491E02D09940F9373
S1132B401F93CF93DF938230910510F482E090E0DD
S1132B50E0910D05F0910E0520E030E0A0E0B0E03A
S1132B60309719F140815181028113814817590727
S1132B70C8F08417950769F4109731F012960C93F6
S1132B80129713961C9327C000930D0510930E05FE
S1132B9022C02115310519F04217530718F49A0180
S1132BA0BD01EF01DF01F801DBCF21153105F9F09B
S1132BB0281B390B2430310580F48A819B816115EF
S1132BC0710521F0FB019383828304C090930E0569
S1132BD080930D05FE01329644C0FE01E20FF31FFF
S1132BE08193919322503109398328833AC02091EB
S1132BF00B0530910C05232B41F4209102013091F7
S1132C00030130930C0520930B05209100013091B2
S1132C1001012115310541F42DB73EB7409104015E
S1132C2050910501241B350BE0910B05F0910C0527
S1132C30E217F307A0F42E1B3F0B2817390778F08F
S1132C40AC014E5F5F4F2417350748F04E0F5F1FEE
S1132C5050930C0540930B058193919302C0E0E0DF
S1132C60F0E0CF01DF91CF911F910F910895CF93A1
S1132C70DF93009709F481C0FC013297138212821A
S1132C80A0910D05B0910E05109781F4208131813A
S1132C90820F931F20910B0530910C0528173907DB
S1132CA051F5F0930C05E0930B0567C0ED0120E0AE
S1132CB030E0CE17DF0740F44A815B819E01411565
S1132CC05105F1F0EA01F5CFD383C28340815181EC
S1132CD0840F951FC817D90759F488819981840FE7
S1132CE0951F0296918380838A819B81938382833B
S1132CF02115310529F4F0930E05E0930D053DC02F
S1132D00E901FB83EA8349915991C40FD51FEC175C
S1132D10FD0761F480819181840F951F0296E9017A
S1132D2099838883828193819B838A83E0E0F0E0A6
S1132D3012968D919C911397009719F0FD01DC0177
S1132D40F7CF8D919C9111979D012E5F3F4F820F7C
S1132D50931F20910B0530910C052817390769F44E
S1132D60309729F410920E0510920D0502C01382BB
S1132D701282B0930C05A0930B05DF91CF910895B7
S1132D80FC0188279927E89421912032E9F329301E
S1132D9010F02E30C8F32B3241F02D3239F4689400
S1132DA004C00E946517820F911D219120532A307F
S1132DB0C0F31EF4909581959F4F0895FB01DC01AB
S1132DC002C005900D9241505040D8F70895FB0180
S1132DD0DC0105900D920020E1F7089540E951E0EF
S1132DE00E9433170895FB01DC0104C08D9101900A
S1132DF0801921F441505040C8F7881B990B08955D
S1132E00FB01DC010D900020E9F7119701900D9270
S1132E100020E1F70895FB01DC018D9101908019F8
S1132E200110D9F3990B0895FB01DC0101900D9277
S1132E300020E1F70895DC016C9161546A3108F0D7
S1132E4060526F596D93C1F70895FB01DC01415045
S1132E50504030F08D910190801919F40020B9F799
S1132E60881B990B0895FA01A191B081009719F478
S1132E701097E1F0CD01DC01CD010D90002011F49B
S1132E80C00113C0FB012191222319F02015D9F7A9
S1132E90F3CFFB012191201519F41E92119606C05F
S1132EA02223C1F70D900020A1F7D001FA01A193CC
S1132EB0B0830895BB274A3031F4992322F4BDE24C
S1132EC0909581959F4F0C946E177AE0979F902D63
S1132ED0879F802D910D11240895BB27FB01552751
S1132EE0AA27880F991FAA1FA41710F0A41B839563
S1132EF05051B9F7A05DAA3308F0A95DA1930097DA
S1132F0079F7B111B1931192CB010C947E19ABE016
S1132F10B0E0EDE8F7E10C947A1A6C017B018A01C8
S1132F20FC0117821682838181FFCCC1CE010196F8
S1132F303C01F6019381F70193FD859193FF819103
S1132F407F01882309F4BAC1853239F493FD859150
S1132F5093FF81917F01853229F4B60190E00E94AC
S1132F608E19E7CF912C212C312CFFE1F315D8F0E9
S1132F708B3279F038F4803279F08332A1F4232D46
S1132F8020611DC08D3261F0803369F4232D2160EE
S1132F9016C0832D8260382EE32DE4603E2E2AC0B5
S1132FA0F32DF8601DC037FC2DC020ED280F2A300A
S1132FB040F08E32B9F436FC81C1232D2064322EC8
S1132FC019C036FE06C08AE0989E200D1124922E68
S1132FD011C0EAE02E9E200D1124222EF32DF06262
S1132FE03F2E08C08C3621F4832D8068382E02C011
S1132FF0883641F4F70193FD859193FF81917F0118
S11330008111B3CF982F9F7D9554933028F40C5F92
S11330101F4F9FE399830DC0833631F0833771F0DE
S1133020833509F059C021C0F801808189830E5F7E
S11330301F4F88248394912C530113C02801F2E07C
S11330404F0E511CF801A080B18036FE03C0692DDB
S113305070E002C06FEF7FEFC5010E9473194C014D
S11330608201F32DFF773F2E16C0280122E0420E85
S1133070511CF801A080B18036FE03C0692D70E0B8
S113308002C06FEF7FEFC5010E9468194C01F32D58
S1133090F0683F2E820133FC1BC0822D90E088161D
S11330A09906B0F4B60180E290E00E948E192A9449
S11330B0F4CFF50137FC859137FE81915F01B601AC
S11330C090E00E948E1921102A9421E0821A91081E
S11330D08114910471F7E8C0843611F0893641F502
S11330E0F80137FE07C060817181828193810C5F92
S11330F01F4F08C060817181072E000C880B990B4B
S11331000E5F1F4FF32DFF763F2E97FF09C090955A
S11331108095709561957F4F8F4F9F4FF0683F2E3C
S11331202AE030E0A3010E94CA19882E861845C0FF
S1133130853731F4232D2F7EB22E2AE030E025C0CE
S1133140932D997FB92E8F36C1F018F4883579F014
S1133150B5C0803719F0883721F0B0C0E92FE0619D
S1133160BE2EB4FE0DC0FB2DF460BF2E09C034FE8C
S11331700AC0292F2660B22E06C028E030E005C020
S113318020E130E002C020E132E0F801B7FE07C0E0
S113319060817181828193810C5F1F4F06C06081C1
S11331A0718180E090E00E5F1F4FA3010E94CA1955
S11331B0882E8618FB2DFF773F2E36FE0DC0232D5B
S11331C02E7FA22E891458F434FE0BC032FC09C0A1
S11331D0832D8E7EA82E05C0B82CA32C03C0B82C3A
S11331E001C0B92CA4FE0FC0FE01E80DF11D8081C1
S11331F0803321F49A2D997EA92E09C0A2FE06C01F
S1133200B394B39404C08A2D867809F0B394A3FCD4
S113321011C0A0FE06C0B21488F4280C922C9B188E
S11332200EC0B21460F4B60180E290E00E948E19E0
S1133230B394F7CFB21418F42B1802C0982C212C95
S1133240A4FE10C0B60180E390E00E948E19A2FE95
S113325017C0A1FC03C088E790E002C088E590E0B5
S1133260B6010CC08A2D867859F0A1FE02C08BE20B
S113327001C080E2A7FC8DE2B60190E00E948E19A5
S1133280891438F4B60180E390E00E948E199A9470
S1133290F7CF8A94F301E80DF11D8081B60190E027
S11332A00E948E198110F5CF222009F442CEB60176
S11332B080E290E00E948E192A94F6CFF60186816E
S11332C0978102C08FEF9FEF2B96E2E10C94961A40
S11332D0FC010590615070400110D8F780959095DD
S11332E08E0F9F1F0895FC016150704001900110E2
S11332F0D8F7809590958E0F9F1F0895DC01FC01EF
S1133300672F71917723E1F7329704C07C916D9315
S113331070836291AE17BF07C8F308950F931F938C
S1133320CF93DF93FB01238121FD03C08FEF9FEF38
S11333302CC022FF16C04681578124813581421753
S1133340530744F4A081B1819D012F5F3F4F318326
S113335020838C93268137812F5F3F4F37832683C9
S113336014C08B01EC01FB010084F185E02D09956B
S1133370892BE1F6D80116968D919C9117970196A9
S113338017969C938E931697CE01DF91CF911F9140
S11333900F910895FA01AA27283051F1203181F1C3
S11333A0E8946F936E7F6E5F7F4F8F4F9F4FAF4F49
S11333B0B1E03ED0B4E03CD0670F781F891F9A1F5C
S11333C0A11D680F791F8A1F911DA11D6A0F711D10
S11333D0811D911DA11D20D009F468943F912AE01C
S11333E0269F11243019305D3193DEF6CF01089504
S11333F0462F4770405D4193B3E00FD0C9F7F6CF35
S1133400462F4F70405D4A3318F0495D31FD4052FC
S1133410419302D0A9F7EACFB4E0A6959795879592
S113342077956795BA95C9F7009761057105089571
S11334309B01AC010A2E069457954795379527951D
S1133440BA95C9F7620F731F841F951FA01D0895B5
S1133450DC01CB01FC01F999FECF06C0F2BDE1BD50
S1133460F89A319600B40D9241505040B8F708953F
S1133470F999FECF92BD81BDF89A992780B5089538
S1133480DC01A40FB51F4150504048F0CB01840F1C
S1133490951F2E910E94511A41505040D0F7089523
S11334A0262FF999FECF92BD81BDF89A019700B4F9
S11334B0021639F01FBA20BD0FB6F894FA9AF99A99
S11334C00FBE0895DC01CB0103C02D910E946D1A3B
S11334D041505040D0F70895262FF999FECF1FBAD6
S11334E092BD81BD20BD0FB6F894FA9AF99A0FBE29
S11334F0019608952F923F924F925F926F927F921E
S11335008F929F92AF92BF92CF92DF92EF92FF92EF
S11335100F931F93CF93DF93CDB7DEB7CA1BDB0B9B
S11335200FB6F894DEBF0FBECDBF09942A88398840
S113353048885F846E847D848C849B84AA84B98447
S1133540C884DF80EE80FD800C811B81AA81B98153
S1133550CE0FD11D0FB6F894DEBF0FBECDBFED0167
S10935600895F894FFCF6A
S113356600000F052000FFFFFFFF005105766F6C7A
S113357675700000000000006205766F6C646F775A
S11335866E000000017305736574766F6C000000AD
S11335960000F20467657461646376616C0002542A
S11335A60672656772656D0000000001AF07646509
S11335B66C72656D0000000000520873686F7772C4
S11335C6656D00000001AF0973657435766C65643A
S11335D6000001DB097365743376336C656400306F
S11335E6313233343536373839414243444546005F
S9030000FC
