S0120000566F6C4374726C5F46572E7372656350
S11300000C94E1040C94FE040C94FE040C94FE0481
S11300100C94FE040C94FE040C94FE040C94FE0454
S11300200C94FE040C94FE040C94FE040C94EA1448
S11300300C94FE040C94FE040C94FE040C94FE0434
S11300400C94FE040C94FE040C9494150C94C915A1
S11300500C94FE040C941B150C94FE040C94FE04E6
S11300600C94FE040C94FE040C94FE040C94FE0404
S11300700C94FE040C94FE040C94FE040C94FE04F4
S11300800C94FE040C94C6140C94FE040C94FE040C
S11300900C94FE040C94FE040C94FE040C94FE04D4
S11300A00C94FE040C94FE040C94FE040C94FE04C4
S11300B00C94FE04520DF90D270E930EB50E550E39
S11300C0740E496E76616C696420417267756D6562
S11300D06E74200D0A00335633204C4544204F469D
S11300E046210D0A00335633204C4544204F4E21FF
S11300F00D0A00496E76616C696420417267756D02
S1130100656E7420636F756E74210D0A00496E76F6
S1130110616C696420417267756D656E74200D0AA7
S1130120003556204C4544204F4646210D0A0035E3
S113013056204C4544204F4E210D0A00496E7661ED
S11301406C696420417267756D656E7420636F75A8
S11301506E74210D0A000D0A0020307800203078DA
S11301600020494458207C2050524F544F434F4C58
S1130170207C2049525F41444452207C2049525FF4
S1130180434D4420207C20434D4420202020202027
S1130190202020207C204445534352495054494F49
S11301A04E0D0A00496E76616C6964204172677570
S11301B06D656E7420636F756E74210D0A0044655D
S11301C06C65746564210D0A00496E646578206F5E
S11301D07574206F662072616E6765210D0A000DCB
S11301E00A0044656C657465204B657920776974F1
S11301F06820696E6465783A20004E6F2072656DE0
S11302006F7465206B6579207265676973746572B4
S113021065642E204E6F7468696E6720746F206465
S1130220656C657465210D0A00496E76616C6964BC
S113023020417267756D656E7420636F756E7421ED
S11302400D0A000D0A00202020666C6167733A20B5
S1130250307800202020636F6D6D616E643A203029
S11302607800202020616464726573733A203078CA
S11302700070726F746F636F6C3A203078004B6556
S11302807920726567697374657220737563636539
S1130290737366756C210D0A005772697465207456
S11302A06F20454550524F4D2E2E2E0D0A004B65A2
S11302B079707265737320726567697374657265AA
S11302C0640D0A000D0A000D0A54696D656F75749A
S11302D0210D0A005072657373207468652064658B
S11302E07369726564206B6579206F6E207468652C
S11302F02069722D72656D6F74650D0A00726567F1
S113030072656D3A20496E76616C6964206E756D14
S1130310626572206F6620617267756D656E7473B5
S113032020666F7220636D6420746F207265676944
S1130330737465720D0A0072656772656D3A2059AF
S11303406F7520747269656420746F2072656769C3
S113035073746572206120756E6B6E6F776E2063A7
S11303606F6D6D616E640D0A00546865206D61786F
S1130370696D756D206E756D6572206F66206B6595
S1130380797320746F20726567697374657220696C
S1130390732072656163686564210D0A000D0A00AB
S11303A0546172676574204144432076616C7565BD
S11303B03A2000417267756D656E74206F75742004
S11303C06F662072616E6765210D0A000D0A006177
S11303D07267763A20000D0A00617267633A200062
S11303E0736574766F6C2064657465637465640DFD
S11303F00A00496E76616C696420417267756D65A7
S11304006E7420636F756E74210D0A00766F6C64D0
S11304106F776E2064657465637465640D0A007695
S11304206F6C646F776E20646F6573206E6F7420D9
S1130430657870656374206120617267756D656E9F
S113044074210D0A00766F6C7570206465746563A1
S11304507465640D0A00566F6C757020646F657363
S1130460206E6F74206578706563742061206172FA
S113047067756D656E74210D0A000D0A00414443D1
S11304802056616C75653A20000A000A000B000BC7
S1130490000B000B000C000D000D000E000F0010EF
S11304A00011001300150016001800190019001A95
S11304B0001C001D001E001F0025002A003000350E
S11304C0003B00400045004A004F0054005A0060C1
S11304D00066006C00720077007D00830088008E47
S11304E000930098009C00A100A600AB00B000B4EB
S11304F000B900BF00C400C900CF00D500DC00E291
S113050000E800ED00F200F80000010B01170124DF
S11305100134014501550169017F019701B601D5F7
S113052001F4011302310250026E028D02AB02C9C2
S113053002E7020503230340035D037A039703B331
S113054003CE03E403F103F803FC03FE03FF03FFFC
S113055003FF03554152545F4E4F5F4441544120C1
S11305606F636375727265642100554152545F4232
S113057055464645525F4F564552464C4F57206F9D
S1130580636375727265642100554152545F4F561E
S1130590455252554E5F4552524F52206F63637518
S11305A0727265642100554152545F4652414D4573
S11305B05F4552524F52206F6363757272656421B6
S11305C0004C696E65206C656E677468206578639D
S11305D06565647320627566666572210052657193
S11305E0756972656420617267756D656E747320D8
S11305F06E6F742070726573656E74210D0A004D00
S1130600656D6F727920616C6C6F636174696F6E74
S1130610206661696C6564210D0A004D6178206172
S113062072672E20737472696E67206C656E6774CE
S113063068206578636565646564210D0A00546803
S113064065206E756D626572206F662061726775D4
S11306506D656E7473206578636565647320746872
S1130660652073706563696669656420706172737F
S11306706572206C696D6974210D0A00556E6B6E8C
S11306806F776E20636F6D6D616E64210D0A005685
S11306906F6C756D65207365617263682065727235
S11306A06F72210D0A004D6F746F722040206C6FC1
S11306B0776572206C696D2E210D0A004D6F746F81
S11306C0722040207570706572206C696D2E210D4A
S11306D00A004D6F746F722040206C6F7765722032
S11306E06C696D2E210D0A004D6F746F72204020CD
S11306F07570706572206C696D2E210D0A000D0AEB
S113070000202020666C6167733A20307800202036
S113071020636F6D6D616E643A2030780020202074
S1130720616464726573733A2030780070726F7418
S11307306F636F6C3A2030780036060906090609A3
S113074006090000000A0A000003070B100B100042
S11307500000000107070D0D00000105030A0E1833
S1130760030A040900101C283001010003050C0FC2
S11307701E050C040B001015252501010002050CB3
S11307801122050C050C0000000000010100020507
S11307900C1122050C050C00101020200101000191
S11307A00F15070B070B070B0F14000F14000100A4
S11307B0990993098F0987097F0976096F096B09DC
S11307C065096109590953094A0943093A09320972
S11307D02C09240920091A09160911090B0904090D
S11307E0FF08F608EF08E908E308DE08D608D10890
S11307F0C908C308B808B108AA08A3089C08940843
S11308008E0886087F08780874086F0869086008ED
S113081056084A084208380831082C0827082008D6
S1130820524144494F3100524349490047524545DA
S11308300049524D5031360053414D53554E4741B6
S1130840480056494E43454E54004D495453555F54
S113085048454156590050414E41534F4E4943007B
S1130860544543484E4943530041435032340053A6
S11308703130300046414E0050454E544158004DF1
S113088045524C494E0053414D53473438004C4770
S113089041495200535045414B45520052434D4D3E
S11308A031320052434D4D32340052434D4D3332B8
S11308B000524F4F4D42410054454C4546554E4B16
S11308C0454E004F5254454B0041315456424F5807
S11308D000424F53450054484F4D534F4E004C4532
S11308E0474F004E45433432004E45433136004EA7
S11308F04554424F58004B4154485245494E0049D3
S11309005236300052555749444F004E494B4F4ED2
S11309100052433641004A56430052434341520079
S1130920464443005349454D454E53004E4F4B49B1
S113093041004752554E4449470042414E47204FDB
S11309404C55004E5542455254005245435338309D
S11309504558004150504C450053414D53473332A4
S1130960005243360044454E4F4E00524335005228
S11309704543533830004B415345494B594F004D83
S11309804154535553480053414D53554E47004E1F
S1130990454300534952435300554E4B4E4F574E17
S11309A0000D0A0076312E300042433220566F6C1F
S11309B04374726C2046572056657273696F6E3AA1
S11309C0200011241FBECFEFD8E0DEBFCDBF11E061
S11309D0A0E0B1E0E8E0F7E302C005900D92A03991
S11309E0B107D9F724E0A0E9B1E001C01D92A83E07
S11309F0B207E1F70E9431150C94821B0C9400009D
S1130A00CF93DF93EC01FC01E60FF11D10829FEF01
S1130A10960F662391F0DE01A90FB11DFA01EF7064
S1130A20FF27E158FE4F20812C93529542954F7039
S1130A3045275F704527915070F7CE01DF91CF9124
S1130A400895CF93DF93CDB7DEB72B970FB6F89405
S1130A50DEBF0FBECDBF8DE794E00E945816F89418
S1130A6080910002909101024AE0BE016F5F7F4FC6
S1130A700E942B180E94491678948AE794E00E94F9
S1130A8058162B960FB6F894DEBF0FBECDBFDF917C
S1130A90CF9108958091030281110CC010929500AA
S1130AA010929400E1E9F0E080818460808381E029
S1130AB0809303020895E1E9F0E080818B7F8083D5
S1130AC010920302089510929500109294000895D4
S1130AD05B985A982FEF80E792E021508040904035
S1130AE0E1F700C0000008958A30910528F08F3F97
S1130AF0934020F480E0089581E0089582E0089511
S1130B0090910A01981728F486E594E00E945816FB
S1130B10089585E494E00E94581681E080930202CF
S1130B20089590911701981728F48FE194E00E949A
S1130B30581608958CE094E00E94581682E0809341
S1130B4002020895CF92DF92EF92FF920F931F93C8
S1130B50CF93DF9300D000D01F92CDB7DEB7E82E3D
S1130B606B01809124018E1528F482EF93E00E949A
S1130B70581660C080EE93E00E94581689ED93E009
S1130B800E9458160E2D10E04AE0BE016F5F7F4FA1
S1130B90C8010E942B180E94491686ED93E00E941A
S1130BA0581610161106BCF48601F12CEE0CFF1C2D
S1130BB0EC0CFD1C8FEC93E00E945816F801819117
S1130BC091918F010E9449168CEC93E00E94581673
S1130BD00E151F0579F7F601808191810E949F17F8
S1130BE08536910528F083EB93E00E94581622C0C5
S1130BF0FC01EE0FFF1FE757FB4F859194919093F3
S1130C00FF018093FE0183E08093020280EA93E077
S1130C100E9458164AE0BE016F5F7F4F8091FE012B
S1130C209091FF010E942B180E9449168DE993E0D0
S1130C300E9458160F900F900F900F900F90DF9115
S1130C40CF911F910F91FF90EF90DF90CF90089577
S1130C50882311F02D9A08952D98089539B129B15A
S1130C6033FB882780F990E0880F991F22FB99278E
S1130C7090F9892B813039F0823019F0811105C047
S1130C8009C081E0089582E0089581E00E94280669
S1130C908FEF089580E008950E942E06882319F0AE
S1130CA0823021F008955B9A5A9808950E9468054D
S1130CB00E945B052FEF80E792E021508040904036
S1130CC0E1F700C000005B9A5A9808950E942E062E
S1130CD0813039F018F08230B9F013C05B985A9A19
S1130CE008950E9468050E945B052FEF80E792E05B
S1130CF0215080409040E1F700C000005B985A9A70
S1130D00089581E00E94280608959F92AF92BF92B1
S1130D10CF92DF92EF92FF920F931F93CF93DF93C3
S1130D20CDB7DEB7E5970FB6F894DEBF0FBECDBFE3
S1130D30982E6B018091FD018E3028F089E693E0B6
S1130D400E9458162BC1FB0160817181CE018296ED
S1130D500E94F317F601A280B3800F2EFDE0EF2E60
S1130D60F1E0FF2EF02D00E010E0B701C5010E9474
S1130D70EA17892B89F40E83292D30E0225031099A
S1130D808DE0089FF0011124E65FFE4F808190E022
S1130D902817390751F40EC00F5F1F4F9DE0E90E6D
S1130DA0F11C0930110509F7F5C08DEF92E00E949E
S1130DB05816F4C01F828DEF890D8D3F10F5860102
S1130DC00C5F1F4F892D90E0880F991FC80ED91E04
S1130DD07E01E7E0EE0EF11C6894AA24A5F8B12C7C
S1130DE0F70101900020E9F73197B182A082F80160
S1130DF0619171918F01C7010E94DF170C151D05C8
S1130E0079F784ED92E00E9458160F2EF4EFEF2E3E
S1130E10FF24F394F02D00E010E01DC0193058F0C9
S1130E20003120F08DE00E94301600E08EE20E9436
S1130E3030160F5F10E08FE19EE40197F1F700C0D8
S1130E4000001F5F91E0E91AF10829F487EC92E0B1
S1130E500E945816A3C081E393E00E943A108823AD
S1130E60E9F284EC92E00E9458168EEA92E00E9425
S1130E70581601E313E0F80180818983818192810E
S1130E809B838A83838194819D838C838091FD01DC
S1130E90F1E28F9FD0011124A95CBC4F91E2FE01C5
S1130EA0319601900D929A95E1F78F5F8093FD0141
S1130EB089E992E00E9458168091FD0190E0019723
S1130EC0BC01660F771F880F991F880F991F880F21
S1130ED0991F680F791F605070404AE050E0CE01BE
S1130EE082960E94111B4DEA51E062E870E087E3AC
S1130EF093E00E94111B6091FD0181E392E00E9446
S1130F00211B8EE792E00E94581681E792E00E942E
S1130F105816F801408150E062E0CE018C960E94A0
S1130F200005CE018C960E94491682E692E00E944A
S1130F305816F8014181528164E0CE018C960E94DA
S1130F400005CE018C960E94491683E592E00E942A
S1130F505816F8014381548164E0CE018C960E94B6
S1130F600005CE018C960E94491686E492E00E9408
S1130F705816F801458150E062E0CE018C960E943B
S1130F800005CE018C960E94491683E492E00E94EB
S1130F90581604C087E393E00E945816E5960FB6EE
S1130FA0F894DEBF0FBECDBFDF91CF911F910F919B
S1130FB0FF90EF90DF90CF90BF90AF909F900895F7
S1130FC0AF92BF92CF92DF92EF92FF920F931F9353
S1130FD0CF93DF93CDB7DEB72A970FB6F894DEBF71
S1130FE00FBECDBF8B0190914B01981728F489E275
S1130FF092E00E94581676C08091FD01811105C0CF
S11310008AEF91E00E9458166DC082EE91E00E9432
S11310105816F801808191810E9449168FED91E064
S11310200E945816F801808191810E949F175C01EB
S1131030BB2495012F5F3F4F8091FD0190E0821703
S113104093072CF489EC91E00E9458164BC00F2EA4
S1131050F7E3CF2EF3E0DF2EF02D0F2EFAE0EF2E84
S1131060F0E0FF2EF02D00E010E00A151B05C4F09F
S113107081E2F601B196D60101900D928A95E1F7CD
S11310804AE050E0B701CE0101960E94F91A4AE005
S113109050E0B7016A507109CE0101960E94331BDA
S11310A00F5F1F4FF1E2CF0ED11C8AE0E80EF11C56
S11310B00C301105D1F68091FD0181508093FD0122
S11310C04DEA51E062E870E087E393E00E94111B6F
S11310D06091FD0181E392E00E94211B8EEB91E07F
S11310E00E9458162A960FB6F894DEBF0FBECDBFE5
S11310F0DF91CF911F910F91FF90EF90DF90CF90F0
S1131100BF90AF9008952F923F924F925F926F924B
S11311107F928F929F92AF92BF92CF92DF92EF9283
S1131120FF920F931F93CF93DF93CDB7DEB76897EA
S11311300FB6F894DEBF0FBECDBF9091580198173B
S113114028F484EA91E00E94581621C181E691E0D6
S11311500E9458168091FD01882309F418C180E08B
S113116090E0988F8F8B0F2EF7E34F2EF3E05F2ED6
S1131170F02D212C312C8E01055F1F4F689488249B
S113118082F8912C0F2EF9E0AF2EB12CF02D0F2EFA
S1131190F6E0CF2ED12CF02D0F2EFDE06F2E712C0A
S11311A0F02D80E20E9430164AE0B801C1010E948D
S11311B02B180E944916E12CF12C06C080E20E94F3
S11311C030169FEFE91AF90AF80101900020E9F7B7
S11311D03197E01BF10BC4018E1B9F0BE816F90637
S11311E068F38CE70E94301680E20E9430165E8A13
S11311F04D8AD201EC91F0E0EE0FFF1FE055F84F5D
S113120065917491C8010E94C617C8010E944916CD
S1131210E12CF12C06C080E20E943016BFEFEB1ADD
S1131220FB0AF80101900020E9F73197E01BF10B6C
S1131230C5018E1B9F0BE816F90668F38CE70E9424
S113124030168DE591E00E945816ED89FE894181A2
S1131250528164E0C8010E9400050E944916E12CF5
S1131260F12C06C080E20E943016FFEFEF1AFF0A4D
S1131270F80101900020E9F73197E01BF10BC6015A
S11312808E1B9F0BE816F90668F38CE70E94301654
S113129089E591E00E945816AD89BE8913964D9157
S11312A05C91149764E0C8010E9400050E944916ED
S11312B0E12CF12C06C080E20E943016BFEFEB1A3D
S11312C0FB0AF80101900020E9F73197E01BF10BCC
S11312D0C6018E1B9F0BE816F90668F38CE70E9483
S11312E0301680E20E943016ED89FE896581FDE0AA
S11312F0F69FB0011124635F7E4FC8010E94F3176B
S1131300B2016A5F7F4FC8010E94DF17C8010E94C3
S11313104916E12CF12C06C080E20E9430168FEFB2
S1131320E81AF80AF80101900020E9F73197E01B68
S1131330F10BC3018E1B9F0BE816F90668F38CE7CB
S11313400E94301680E20E9430164AE050E06F8915
S1131350788DCE0101960E94F91ACE0101960E9461
S1131360491686E591E00E9458169FEF291A390A1A
S1131370AF89B88D1A96B88FAF8BB1E24B0E511C62
S11313808091FD0190E0281639060CF40ACF689686
S11313900FB6F894DEBF0FBECDBFDF91CF911F9182
S11313A00F91FF90EF90DF90CF90BF90AF909F9000
S11313B08F907F906F905F904F903F902F90089503
S11313C090916501981728F48CE391E00E945816D7
S11313D00895DB01ED91FC918081813359F4719A78
S11313E061E080E392E00E94211B8FE291E00E9481
S11313F058160895803359F4719860E080E392E0C0
S11314000E94211B81E291E00E94581608958DE00C
S113141091E00E945816089590917201981728F44B
S113142083EF90E00E9458160895DB01ED91FC9142
S11314308081813359F45D9A61E08FE292E00E94E9
S1131440211B85EE90E00E9458160895803359F4CC
S11314505D9860E08FE292E00E94211B86ED90E0AF
S11314600E945816089582EC90E00E945816089540
S1131470CF92DF92EF92FF920F931F93CF93DF935C
S1131480CDB7DEB729970FB6F894DEBF0FBECDBF38
S11314908C0180E29CE29A8389831B82C8010E94AA
S11314A0FA17BE016F5F7F4FC8010E94CD176C0110
S11314B00DE011E0E12CF12CB801C6010E94EA17FD
S11314C0892B59F42DE02E9DC0012F9D900D1124E0
S11314D0865F9E4F892B81F409C02FEFE21AF20A2E
S11314E0035F1F4F39E0E316F10431F78CE796E010
S11314F00E9458168FEF9DC0BE016F5F7F4F80E042
S113150090E00E94CD178C01892B09F470C0D12C76
S1131510F8018081882399F1F2E0FD1528F48EE327
S113152096E00E94581637C0F80101900020E9F7B0
S11315303197CF01801B910B992701968A30910531
S11315402CF08BE196E00E94581625C00E947E166E
S1131550ED2DF0E0EE0FFF1F21E030E02C0F3D1FDA
S1131560E20FF31F94838383009729F48FEF95E0B0
S11315700E94581610C0B8010E94F317D394BE01FC
S11315806F5F7F4F80E090E00E94CD178C01892B24
S113159009F0BECF2DC08DE08E9DF0018F9DF00D22
S11315A01124E65FFE4F8081D81670F1CC24C394D9
S11315B005C08DED95E00E94581626C0DD2091F0FF
S11315C08E010C5F1F4FED2CF12CEE0CFF1CE00E76
S11315D0F11EF801819191918F010E9416170E1549
S11315E01F05B9F781E0C11024C080E022C0D12CCE
S11315F08DE08E9DF0018F9DF00D1124E65FFE4F6E
S11316008081D81620F4D5CFCC24C394D7CF8DE0D5
S11316108E9DF0018F9DF00D1124E65FFE4F018039
S1131620F281E02DBE016C5F7F4F8D2D0995C12C99
S1131630C5CF29960FB6F894DEBF0FBECDBFDF919C
S1131640CF911F910F91FF90EF90DF90CF9008956D
S1131650CF92DF92EF92FF920F931F93CF93DF937A
S113166000D01F92CDB7DEB720E23CE23A83298353
S11316701B82FC0101900020E9F73197E81709F477
S113168051C0BE016F5F7F4F0E94CD176C010F2EBA
S1131690FDE0EF2EF1E0FF2EF02D00E010E0B701A9
S11316A0C6010E94EA17892B19F40F3F59F43CC074
S11316B00F5F1F4F8DE0E80EF11C0930110579F71B
S11316C08FEF3DC0023090F1023091F5BE016F5FA3
S11316D07F4F80E090E00E94CD170097E1F010E08A
S11316E0FC012081222369F0133020F501900020B1
S11316F0E9F73197E81BF90BFF2731963A97E4F4A1
S11317001F5FBE016F5F7F4F80E090E00E94CD17A6
S1131710009731F701C010E080912401811771F026
S11317208FEF0DC08FEF0BC08FEF09C0802F07C064
S11317308FEF05C08FEF03C08FEF01C082E00F90E1
S11317400F900F90DF91CF911F910F91FF90EF9029
S1131750DF90CF90089593FF07C086EA95E00E943A
S1131760581620E038E01DC092FF07C089E895E0D4
S11317700E94581620E034E014C091FF07C08AE6A6
S113178095E00E94581620E032E00BC09C0122270D
S1131790317090FF06C083E595E00E94581620E062
S11317A031E0C9010895FF920F931F93CF93DF9304
S11317B0EC010E946A16892B09F447C00E94101696
S11317C0182FF92E0E94AB0B009731F0812F9F2D1B
S11317D00E94AB0B82603EC01D3049F420919201FF
S11317E0222319F01092920135C0188233C01830A8
S11317F011F01F3779F480919201882319F08150F8
S11318008093920180919201C80FD11D188281E0CA
S113181090E020C01A30E1F080919201883270F497
S113182091E0980F90939201FE01E80FF11D10834F
S1131830C90FD11D188281E090E00CC081EC95E0C5
S11318400E94581682E090E005C081E090E002C05A
S113185081E090E0DF91CF911F910F91FF90089567
S11318604F925F926F927F928F929F92AF92BF92AC
S1131870CF92DF92EF92FF920F931F93CF93DF9358
S113188000D000D000D0CDB7DEB73901E8E9F1E0EF
S1131890A1E3B3E011968D919C9112979283818379
S11318A013968D919C911497948383838C91808358
S11318B05090FD01552059F10F2EF7E3AF2EF3E0C0
S11318C0BF2EF02DC12CD12C460145E050E0B501CE
S11318D088E991E00E94D217892B89F481E2889DDE
S11318E0F001899DF00D1124E95CFC4F8581F8011C
S11318F08083F701C08281E0F30180830DC0FFEF94
S1131900CF1ADF0A81E2A80EB11CC514E8F2F30174
S113191010828FEFF801808326960FB6F894DEBF0D
S11319200FBECDBFDF91CF911F910F91FF90EF902C
S1131930DF90CF90BF90AF909F908F907F906F90EB
S11319405F904F900895EF92FF920F931F93CF9360
S1131950DF93CDB7DEB7A8970FB6F894DEBF0FBEFE
S1131960CDBF809193018823A1F10F2EF6E9EF2ECC
S1131970F1E0FF2EF02D07E911E025E931E0409177
S11319803103509132036091330370913403809199
S11319903503909136030E94300C80919501882381
S11319A091F080919701811106C081E08093020239
S11319B01092930132C0813031F482E080930202AC
S11319C0109293012AC00E945B050E946805109240
S11319D0020280919401882301F169E073E0CE0151
S11319E001960E94F317CE0101960E94280B8111E3
S11319F006C081E080930202109294010EC08130EF
S1131A0031F482E0809302021092940106C00E9495
S1131A105B050E94680510920202A8960FB6F8941E
S1131A20DEBF0FBECDBFDF91CF911F910F91FF900D
S1131A30EF900895DF92EF92FF920F931F93CF934D
S1131A40DF93CDB7DEB7E2970FB6F894DEBF0FBED3
S1131A50CDBF89E093E00E94D30B892B19F481E078
S1131A608093940181E393E00E943A10882319F053
S1131A7081E080939301F894809100029091010297
S1131A809093C6018093C5017894E09102028E2F51
S1131A9090E08730910508F007C2FC01E65AFF4F39
S1131AA00C94781680919401882331F089E093E0B6
S1131AB00E94380A1092940180919301882309F4BA
S1131AC0F3C18CE297E00E94581601E313E0F80199
S1131AD0408150E062E0CE0189960E940005CE016B
S1131AE089960E9449168DE197E00E945816F801E4
S1131AF04181528164E0CE0189960E940005CE01A5
S1131B0089960E9449168EE097E00E945816F801C3
S1131B104381548164E0CE0189960E940005CE0180
S1131B2089960E94491681E097E00E945816F801B0
S1131B30458150E062E0CE0189960E940005CE0105
S1131B4089960E9449168EEF96E00E945816F80175
S1131B508581813019F410929301A6C1E8E9F1E07E
S1131B60A1E3B3E011968D919C91129792838183A6
S1131B7013968D919C911497948383838C91808385
S1131B808091FD01882391F107E313E0E12CF12C0E
S1131B900F2EFDE0DF2EF02D45E050E0B80188E97E
S1131BA091E00E94D217892BB1F4F8016581D69E89
S1131BB0B0011124635F7E4F8DE991E00E94F31719
S1131BC0B8016A5F7F4F8DE991E00E94DF178DE9CC
S1131BD091E00E94380AFFEFEF1AFF0A0F5D1F4FD2
S1131BE08091FD0190E0E816F906B4F21092930199
S1131BF05BC18091C5019091C6010E947405823039
S1131C0059F488EE96E00E945816109202020E943F
S1131C105B050E94680548C18091030281110FC0D1
S1131C200E944A050E942E06811103C00E944C06A0
S1131C300AC081E00E9428060E94680504C00E9430
S1131C4063050E944C0685E0809302022DC18091B9
S1131C50C5019091C6010E947405813059F482ED4A
S1131C6096E00E945816109202020E945B050E94A0
S1131C7068051AC18091030281110FC00E944A05B0
S1131C800E942E06811103C00E9466060AC081E0EC
S1131C900E9428060E94680504C00E9463050E94F1
S1131CA0660686E080930202FFC0809103028111E0
S1131CB005C00E94680510920202F6C00E94A30C9F
S1131CC08091C5019091C6010E947405823009F08B
S1131CD0EBC08CEB96E00E9458160E9468050E94A7
S1131CE05B0510920202E0C080910302811105C0DD
S1131CF00E94680510920202D7C00E94A30C809132
S1131D00C5019091C6010E947405813009F0CCC0D0
S1131D1086EA96E00E9458160E9468050E945B05B8
S1131D2010920202C1C04091C5015091C601209198
S1131D30FE013091FF01CA01821B930B9093C801ED
S1131D408093C701892B29F40E946805109202022E
S1131D50ABC04217530718F40E944C0602C00E94FD
S1131D60660684E0809302029FC08091C501909131
S1131D70C6012091FE013091FF01821B930B9093C9
S1131D80C8018093C7011816190624F40E942E0670
S1131D90823051F48091C7019091C80199237CF459
S1131DA00E942E06813059F00E9468058FE896E063
S1131DB00E9458161092020281E00E942806809127
S1131DC0C7019091C801892B29F40E9468051092DB
S1131DD002026AC080919301882309F443C00F2E44
S1131DE0F6E9EF2EF1E0FF2EF02D07E911E025E9E9
S1131DF031E040913103509132036091330370918B
S1131E00340380913503909136030E94300C809105
S1131E109501882311F180919701823018F4109272
S1131E2093011BC08230C9F467E271E08DE991E04F
S1131E300E94F3176091960181E2689FB00111241A
S1131E40635C7C4F8DE991E00E94DF178DE991E09E
S1131E500E94380A1092930127C00E9468051092CC
S1131E60020222C0809194018823F1F069E073E0BA
S1131E70CE0101960E94F317CE0101960E94280B11
S1131E8080939701823018F41092940109C0823033
S1131E9039F489E093E00E94380A1092940104C056
S1131EA00E94680510920202E2960FB6F894DEBF13
S1131EB00FBECDBFDF91CF911F910F91FF90EF9097
S1131EC0DF9008952091F4019091FC01921748F15C
S1131ED03091F501931728F53091FA013323A9F0D5
S1131EE0482F50E0692F621B9A0102C0220F331F52
S1131EF06A95E2F74091E0015091E101242B352BE2
S1131F003093E1012093E00138C02091E001309149
S1131F10E101220F331F282B3093E1012093E001CC
S1131F202CC02091F601921740F13091F7019317DC
S1131F3020F53091FA013323A9F0482F50E0692F9E
S1131F40621B9A0102C0220F331F6A95E2F7409187
S1131F50DE015091DF01242B352B3093DF012093D8
S1131F60DE010BC02091DE013091DF01220F331F0F
S1131F70282B3093DF012093DE012091EB012330E5
S1131F80C9F42FEE290F243008F06DC0282F30E05B
S1131F908FEE890F02C0220F331F8A95E2F740911A
S1131FA0DC015091DD01242B352B3093DD0120938E
S1131FB0DC0159C0253009F056C02CEE290F24301D
S1131FC0A0F4282F30E048EF490F02C0220F331F3E
S1131FD04A95E2F74091DE015091DF01242B352B25
S1131FE03093DF012093DE0112C028EE290F243044
S1131FF070F4282F30E04CEE490F02C0220F331F3B
S11320004A95E2F73091D501232B2093D5019033E3
S113201050F58823A1F0E92FE695E695E695F0E0E2
S1132020EA52FE4F892F877021E030E002C0220F70
S1132030331F8A95E2F78081282B208314C0E92F6F
S1132040E695E695E695F0E0EA52FE4F892F877013
S113205021E030E002C0220F331F8A95E2F7209579
S11320608081282320839F5F9093FC0108955E98CC
S113207056980895FC018091EA01882309F4B8C0B8
S11320809091E901933059F018F4923099F18CC091
S1132090973009F480C0923309F465C085C020915B
S11320A0E5013091E6018091E5019091E601232F4D
S11320B033278095909599272817390709F088C008
S11320C08091E5019091E60199279093E601809330
S11320D0E5018091E3019091E4012091E5013091C3
S11320E0E601982F8827822B932B9093E601809307
S11320F0E5015AC02091E5013091E6018091E501A6
S11321009091E601232F33278095909599272817DE
S1132110390751F48091E5019091E6019927909354
S1132120E6018093E50140C08091E7019091E801C8
S11321308E3E974809F04CC08BE08093E901809172
S1132140E5019091E601892F99279093E801809306
S1132150E7018091E5019091E60199279093E601CA
S11321608093E50121C02091E5013091E601809141
S1132170E5019091E601232F332799272817390782
S113218039F58091E5019091E60199279093E60154
S11321908093E50109C08091E7019091E8018F7D6A
S11321A09093E8018093E7018091E9018083809115
S11321B0E7019091E801928381838091E5019091F8
S11321C0E601948383838091E201858381E003C0E7
S11321D01092E90180E01092E6011092E50110925C
S11321E0E8011092E7011092E2011092EA010895C9
S11321F080E00895CF93DF9389B19091EA01911122
S113220096C380749091D401911138C0811106C095
S11322108091D3018F5F8093D30189C38091D301CF
S11322208823E9F081E08093D4018093D201109255
S1132230D1011092DF011092DE011092E10110929F
S1132240E0011092D5011092DD011092DC019FEFA4
S11322509093FC018093D0011092CF0168C38091C8
S1132260CD019091CE018F3F2FEF920709F45FC308
S113227001969093CE018093CD0159C39091D201E0
S1132280992309F4ADC0882379F08091D0018F5F40
S11322908093D0018A3E08F443C21092D401109274
S11322A0D3011092D00143C38091D30191EE980FD2
S11322B09B3030F49091D0019650953008F43AC395
S11322C092EA980F943558F49091D00122ED290F99
S11322D02C3208F432C39751973108F431C394EC8B
S11322E0980F903130F49091D0019C53903108F4C0
S11322F02AC398ED980F973130F49091D0019351FF
S11323009D3008F423C395EF980F963020F09AEE91
S1132310980F9B3000F59091D00125EF290F2630BE
S113232020F02AEE290F2B30B0F49093CC01815188
S1132330803118F09151903140F41092CB0180E437
S11323408093CF016AE477E003C381E08093CB01FB
S11323506AE477E0FDC28650843080F48091D00135
S11323609DED980F973050F48093CC0181E08093D9
S1132370CA018093CB0169E377E0EAC21092D401E9
S11323801092FC018091FB0180FF22C09091EB012F
S11323909731F1F09930E1F02091ED014091D001B5
S11323A0241770F450E030E0220F331F2417350750
S11323B03CF08695817091E089270E94620F08C0E5
S11323C09091CB01911104C0869581700E94620F97
S11323D081E08093D3011092D0011092D2019BC16D
S11323E09091D101992309F472C1882309F4B7C2E9
S11323F09091F8012091FC0192131CC08091F90185
S11324008130C1F48091FB0180FD0AC08091D30129
S11324109091F001891738F09091F101981718F014
S11324201092F9017DC11092D4011092D30110923F
S1132430D0017DC28091D0018F5F8093D001309113
S1132440EB01313031F5482F50E04C3051050CF19F
S11324502B30F8F0EBEEF1E081E0820F8587822FDC
S113246090E00B97982F88274091E0015091E1016B
S1132470842B952B9093E1018093E0018385280FB1
S11324802F5F24878AE08093D001808980FFE5C094
S11324906CC04091FB0140FF1DC0682F70E040916B
S11324A0EF0150E0440F551F641775079CF0622F2D
S11324B070E0492F50E0425051096417750754F0F9
S11324C04091F901411106C0EBEEF1E081E086870D
S11324D080894BC08A3E08F423C1422F50E0892FE3
S11324E090E001974817590741F48091F90181114F
S11324F004C02F5F2093FC0113C1323011F03C3132
S113250069F521112BC08091CD019091CE018830C5
S1132510974008F5EBEEF1E081E0868782E0808366
S1132520158680910801909109019093E1018093AF
S1132530E00180910601909107019093DF0180935F
S1132540DE018091E20181608093E2011092CE016C
S11325501092CD01E5C01092EA01E2C01092D401BC
S11325601092D3011092D001E2C19091D301209135
S1132570ED01291798F48695817091E089270E94CE
S1132580620FCBEED1E08889869581700E94620F3C
S11325908889869581708093CB0122C08091EC015B
S11325A09817D0F08091EF012091CC01821778F434
S11325B030E090E0880F991F8217930744F081E080
S11325C09091CB01911180E08093CB0102C0809166
S11325D0CB010E94620F04C01092D4011092D0016A
S11325E08091D0018093CC011092D1016CC0809174
S11325F0EB01833091F58091FC01803171F580917C
S1132600D3018550883020F58091D00194EC980F47
S1132610903130F41092D10181E18093FC0153C0D8
S1132620EBEEF1E09AE0908390E1938790E2948757
S113263095878F50803130F481E00E94620F1092B0
S1132640D10141C080E00E94620F1092D1013BC0D1
S11326501092D4011092D00136C08091D301909190
S1132660EC018917A0F09091ED01981780F09091FA
S1132670D0012091EE01921750F02091EF0129171B
S113268030F081E00E94620F1092D1011CC0909141
S1132690F0018917A0F09091F101981780F08091D2
S11326A0D0019091F201891750F09091F30198179D
S11326B030F080E00E94620F1092D10104C01092A9
S11326C0D4011092D00181E08093D30124C0811100
S11326D006C08091D3018F5F8093D30121C081E034
S11326E08093D1018093D0018091EB018633C1F4B2
S11326F08091CA018823A1F08091D301873030F002
S113270087508093D3011092CB0103C081E0809362
S1132710CB011092CA018091D401882309F407C126
S11327208091F8019091FC01891301C19091F90104
S11327309111FDC020910601309107014091DE0105
S11327405091DF012417350789F44091CD01509150
S1132750CE01403B544050F49091C9019F5F909347
S1132760C9019091EB01913041F012C01092C9015E
S11327709091EB01913061F4F7C08091C9018150CF
S1132780823008F0F1C01092CE011092CD018FC0BA
S113279041E04093EA01923011F58111E9C0409182
S11327A0CD015091CE0148305740B0F4409108011A
S11327B0509109015093E1014093E0013093DF010E
S11327C02093DE018091E20181608093E201109206
S11327D0CE011092CD01CCC01092EA01C9C095304F
S11327E0C1F5E6EDF1E0808191814281282F2F70BF
S11327F082958F708227292F2F70822792959F7040
S11328009827892F90E0242F2F7030E082179307A8
S113281011F01092EA01E6EDF1E08381942F9827FC
S113282084818927958189131092EA019091E201AC
S11328308091D501892B8093E20185E08093E901A1
S11328408091E0019091E1019093E8018093E70188
S11328501EC09093E9012091E0013091E101309391
S1132860E8012093E701923029F430930901209381
S113287008010DC0973059F42091CF018091DE01F9
S11328809091DF01822B9093DF018093DE01809190
S1132890DE019091DF019093E6018093E501809140
S11328A0DC019091DD019093E4018093E301809138
S11328B0EA01882391F18091DE019091DF0120915A
S11328C006013091070128173907B9F4409108012E
S11328D0509109012091E0013091E1014217530721
S11328E061F42091CD013091CE012A3C384028F486
S11328F02091E20121602093E2012091E0013091D6
S1132900E10130930901209308019093070180931A
S113291006011092CE011092CD011092D4011092B2
S1132920DF011092DE011092D3011092D001809148
S1132930EA0129C06FE977E00BC06EE877E008C0D0
S11329406DE777E005C06CE677E002C06BE577E001
S113295041E150E08BEE91E00E94BD1711CD8091D2
S1132960FB0180FF44CE01CE81E08093EA0171CF68
S11329709093E9012091E0013091E1013093E80165
S11329802093E70172CFDF91CF9108951F920F92A8
S11329900FB60F9211242F933F934F935F936F932E
S11329A07F938F939F93AF93BF93EF93FF930E9473
S11329B05B05FF91EF91BF91AF919F918F917F91B3
S11329C06F915F914F913F912F910F900FBE0F9098
S11329D01F9018951F920F920FB60F9211242F93E8
S11329E03F934F935F936F937F938F939F93AF9393
S11329F0BF93EF93FF930E94FA10FF91EF91BF9161
S1132A00AF919F918F917F916F915F914F913F9182
S1132A102F910F900FBE0F901F90189510927C006D
S1132A20EAE7F0E08FEA808380818064808381E03C
S1132A3080937E0008951F920F920FB60F92112477
S1132A408F939F93809178009091790090930102E5
S1132A50809300029F918F910F900FBE0F901F9053
S1132A6018950E94371084E192E090938900809336
S1132A70880089E080938100C2E0C0936F0088E001
S1132A80809391008FE492E1909399008093980051
S1132A90C09371000E940E1588E090E00E94F51525
S1132AA089EA99E00E94581684EA99E00E9458162F
S1132AB081EA99E00E94581680E284B984E087B9DB
S1132AC0CDB98CE28AB918B880E00E94280681E367
S1132AD092E00E94091B8093FD014DEA51E062E8F7
S1132AE070E087E393E00E94F91A80E392E00E9489
S1132AF0091B882311F0719A01C071988FE292E04A
S1132B000E94091B882311F05D9A01C05D982FEF84
S1132B1082E597E0215080409040E1F700C000003A
S1132B2078940E941A0DFDCF1F920F920FB60F9248
S1132B3011242F933F934F935F938F939F93EF931E
S1132B40FF932091C0003091C60028718091060245
S1132B5090E001968F7799274091050250E0841701
S1132B60950739F080930602FC01E75FFD4F30833F
S1132B7001C022E020930402FF91EF919F918F9175
S1132B805F914F913F912F910F900FBE0F901F9027
S1132B9018951F920F920FB60F9211248F939F9343
S1132BA0EF93FF939091080280910702981779F0B0
S1132BB08091070290E001968F779927809307020E
S1132BC0FC01E757FD4F80818093C60005C0E1EC0E
S1132BD0F0E080818F7D8083FF91EF919F918F91B1
S1132BE00F900FBE0F901F901895F8941092080242
S1132BF0109207021092060210920502789499230B
S1132C0024F422E02093C0009F779093C500809322
S1132C10C40088E98093C10086E08093C2000895CF
S1132C20F8949091060280910502981304C0789458
S1132C3080E091E0089578948091050290E00196F7
S1132C408F77992780930502FC01E75FFD4F208170
S1132C508091040290E0982F8827820F911D089597
S1132C604091080250E04F5F5F4F4F775527209106
S1132C70070230E042175307D1F3FA01E757FD4F3B
S1132C80808340930802E1ECF0E0808180628083DD
S1132C900895CF93DF93EC018881882331F0219646
S1132CA00E94301689918111FBCFDF91CF91089555
S1132CB0CF93DF93EC012196FC018491882339F0B2
S1132CC00E943016FE01849121968111F9CFDF9183
S1132CD0CF910895F894809106022091050278948A
S1132CE090E080589F4F821B91098F779927089510
S1132CF0EE0FFF1F0590F491E02D09940F931F939D
S1132D00CF93DF938230910510F482E090E0E0915C
S1132D10E604F091E70420E030E0A0E0B0E0309772
S1132D2019F1408151810281138148175907C8F074
S1132D308417950769F4109731F012960C93129743
S1132D4013961C9327C00093E6041093E70422C053
S1132D502115310519F04217530718F49A01BD01E2
S1132D60EF01DF01F801DBCF21153105F9F0281B54
S1132D70390B2430310580F48A819B8161157105FA
S1132D8021F0FB019383828304C09093E704809332
S1132D90E604FE01329644C0FE01E20FF31F819364
S1132DA0919322503109398328833AC02091E40455
S1132DB03091E504232B41F4209102013091030169
S1132DC03093E5042093E404209100013091010143
S1132DD02115310541F42DB73EB7409104015091BE
S1132DE00501241B350BE091E404F091E504E2179E
S1132DF0F307A0F42E1B3F0B2817390778F0AC011A
S1132E004E5F5F4F2417350748F04E0F5F1F5093F6
S1132E10E5044093E4048193919302C0E0E0F0E080
S1132E20CF01DF91CF911F910F910895CF93DF933D
S1132E30009709F481C0FC01329713821282A09199
S1132E40E604B091E704109781F420813181820F68
S1132E50931F2091E4043091E5042817390751F5B4
S1132E60F093E504E093E40467C0ED0120E030E072
S1132E70CE17DF0740F44A815B819E01411551055D
S1132E80F1F0EA01F5CFD383C28340815181840FED
S1132E90951FC817D90759F488819981840F951F04
S1132EA00296918380838A819B81938382832115F7
S1132EB0310529F4F093E704E093E6043DC0E90109
S1132EC0FB83EA8349915991C40FD51FEC17FD0781
S1132ED061F480819181840F951F0296E9019983A1
S1132EE08883828193819B838A83E0E0F0E0129659
S1132EF08D919C911397009719F0FD01DC01F7CF98
S1132F008D919C9111979D012E5F3F4F820F931FCE
S1132F102091E4043091E5042817390769F43097C7
S1132F2029F41092E7041092E60402C0138212827C
S1132F30B093E504A093E404DF91CF910895FC01DC
S1132F4088279927E89421912032E9F3293010F059
S1132F502E30C8F32B3241F02D3239F4689404C07A
S1132F600E943618820F911D219120532A30C0F3FC
S1132F701EF4909581959F4F0895FB01DC0102C0DA
S1132F8005900D9241505040D8F70895FB01DC01A3
S1132F9005900D920020E1F7089540E951E00E9468
S1132FA004180895FB01DC0104C08D91019080197F
S1132FB021F441505040C8F7881B990B0895FB0138
S1132FC0DC010D900020E9F7119701900D9200208B
S1132FD0E1F70895FB01DC018D9101908019011046
S1132FE0D9F3990B0895FB01DC0101900D920020A7
S1132FF0E1F70895DC016C9161546A3108F0605284
S11330006F596D93C1F70895FA01A191B0810097AA
S113301019F41097E1F0CD01DC01CD010D900020F1
S113302011F4C00113C0FB012191222319F02015D2
S1133030D9F7F3CFFB012191201519F41E921196B3
S113304006C02223C1F70D900020A1F7D001FA0198
S1133050A193B0830895BB274A3031F4992322F415
S1133060BDE2909581959F4F0C943F187AE0979F0D
S1133070902D879F802D910D11240895BB27FB016E
S11330805527AA27880F991FAA1FA41710F0A41B5D
S113309083955051B9F7A05DAA3308F0A95DA193B7
S11330A0009779F7B111B1931192CB010C944F1A97
S11330B0ABE0B0E0EEE5F8E10C944B1B6C017B0156
S11330C08A01FC0117821682838181FFCCC1CE0163
S11330D001963C01F6019381F70193FD859193FFDD
S11330E081917F01882309F4BAC1853239F493FDB3
S11330F0859193FF81917F01853229F4B60190E097
S11331000E945F1AE7CF912C212C312CFFE1F3159B
S1133110D8F08B3279F038F4803279F08332A1F42C
S1133120232D20611DC08D3261F0803369F4232D7D
S1133130216016C0832D8260382EE32DE4603E2E7C
S11331402AC0F32DF8601DC037FC2DC020ED280FD8
S11331502A3040F08E32B9F436FC81C1232D20642C
S1133160322E19C036FE06C08AE0989E200D112426
S1133170922E11C0EAE02E9E200D1124222EF32D52
S1133180F0623F2E08C08C3621F4832D8068382EDF
S113319002C0883641F4F70193FD859193FF819134
S11331A07F018111B3CF982F9F7D9554933028F4DC
S11331B00C5F1F4F9FE399830DC0833631F0833733
S11331C071F0833509F059C021C0F80180818983E9
S11331D00E5F1F4F88248394912C530113C0280140
S11331E0F2E04F0E511CF801A080B18036FE03C0FE
S11331F0692D70E002C06FEF7FEFC5010E94441A91
S11332004C018201F32DFF773F2E16C0280122E0E6
S1133210420E511CF801A080B18036FE03C0692D16
S113322070E002C06FEF7FEFC5010E94391A4C01B4
S1133230F32DF0683F2E820133FC1BC0822D90E0F9
S113324088169906B0F4B60180E290E00E945F1AF5
S11332502A94F4CFF50137FC859137FE81915F0103
S1133260B60190E00E945F1A21102A9421E0821A8C
S113327091088114910471F7E8C0843611F08936FD
S113328041F5F80137FE07C0608171818281938125
S11332900C5F1F4F08C060817181072E000C880BE2
S11332A0990B0E5F1F4FF32DFF763F2E97FF09C03A
S11332B090958095709561957F4F8F4F9F4FF068E3
S11332C03F2E2AE030E0A3010E949B1A882E861824
S11332D045C0853731F4232D2F7EB22E2AE030E00D
S11332E025C0932D997FB92E8F36C1F018F48835F7
S11332F079F0B5C0803719F0883721F0B0C0E92FD4
S1133300E061BE2EB4FE0DC0FB2DF460BF2E09C0DB
S113331034FE0AC0292F2660B22E06C028E030E011
S113332005C020E130E002C020E132E0F801B7FE40
S113333007C060817181828193810C5F1F4F06C039
S11333406081718180E090E00E5F1F4FA3010E94B5
S11333509B1A882E8618FB2DFF773F2E36FE0DC054
S1133360232D2E7FA22E891458F434FE0BC032FC78
S113337009C0832D8E7EA82E05C0B82CA32C03C0B3
S1133380B82C01C0B92CA4FE0FC0FE01E80DF11D3C
S11333908081803321F49A2D997EA92E09C0A2FE42
S11333A006C0B394B39404C08A2D867809F0B3940C
S11333B0A3FC11C0A0FE06C0B21488F4280C922C01
S11333C09B180EC0B21460F4B60180E290E00E9433
S11333D05F1AB394F7CFB21418F42B1802C0982CC8
S11333E0212CA4FE10C0B60180E390E00E945F1A75
S11333F0A2FE17C0A1FC03C088E790E002C088E5E4
S113340090E0B6010CC08A2D867859F0A1FE02C066
S11334108BE201C080E2A7FC8DE2B60190E00E943D
S11334205F1A891438F4B60180E390E00E945F1AB1
S11334309A94F7CF8A94F301E80DF11D8081B601C7
S113344090E00E945F1A8110F5CF222009F442CE49
S1133450B60180E290E00E945F1A2A94F6CFF6014A
S11334608681978102C08FEF9FEF2B96E2E10C9447
S1133470671BFC010590615070400110D8F78095DE
S113348090958E0F9F1F0895FC016150704001902C
S11334900110D8F7809590958E0F9F1F0895DC0139
S11334A0FC01672F71917723E1F7329704C07C9177
S11334B06D9370836291AE17BF07C8F308950F939D
S11334C01F93CF93DF93FB01238121FD03C08FEF73
S11334D09FEF2CC022FF16C046815781248135817D
S11334E04217530744F4A081B1819D012F5F3F4FE0
S11334F0318320838C93268137812F5F3F4F37831D
S1133500268314C08B01EC01FB010084F185E02DBE
S11335100995892BE1F6D80116968D919C91179700
S1133520019617969C938E931697CE01DF91CF91B7
S11335301F910F910895FA01AA27283051F12031E3
S113354081F1E8946F936E7F6E5F7F4F8F4F9F4F33
S1133550AF4FB1E03ED0B4E03CD0670F781F891F75
S11335609A1FA11D680F791F8A1F911DA11D6A0F43
S1133570711D811D911DA11D20D009F468943F91F6
S11335802AE0269F11243019305D3193DEF6CF01F5
S11335900895462F4770405D4193B3E00FD0C9F7BB
S11335A0F6CF462F4F70405D4A3318F0495D31FD28
S11335B04052419302D0A9F7EACFB4E0A69597957B
S11335C0879577956795BA95C9F700976105710551
S11335D008959B01AC010A2E06945795479537959B
S11335E02795BA95C9F7620F731F841F951FA01DF5
S11335F00895DC01CB01FC01F999FECF06C0F2BDB0
S1133600E1BDF89A319600B40D9241505040B8F79C
S11336100895F999FECF92BD81BDF89A992780B596
S11336200895DC01A40FB51F4150504048F0CB0170
S1133630840F951F2E910E94221B41505040D0F7B9
S11336400895262FF999FECF92BD81BDF89A01976E
S113365000B4021639F01FBA20BD0FB6F894FA9AD6
S1133660F99A0FBE0895DC01CB0103C02D910E948D
S11336703E1B41505040D0F70895262FF999FECFB4
S11336801FBA92BD81BD20BD0FB6F894FA9AF99A7B
S11336900FBE019608952F923F924F925F926F92C0
S11336A07F928F929F92AF92BF92CF92DF92EF92CE
S11336B0FF920F931F93CF93DF93CDB7DEB7CA1B4F
S11336C0DB0B0FB6F894DEBF0FBECDBF09942A887A
S11336D0398848885F846E847D848C849B84AA8422
S11336E0B984C884DF80EE80FD800C811B81AA81AF
S11336F0B981CE0FD11D0FB6F894DEBF0FBECDBF7A
S10B3700ED010895F894FFCFD8
S11337080000E8042000FFFFFFFF008005766F6CCF
S113371875700000000000009105766F6C646F7787
S11337286E00000001A205736574766F6C000000DA
S11337380000210567657461646376616C00028525
S11337480672656772656D0000000001E007646534
S11337586C72656D0000000000830873686F7772EF
S1133768656D00000001E00973657435766C656465
S11337780000010C0A7365743376336C6564003099
S113378831323334353637383941424344454600BB
S9030000FC
