:100000000C94D6040C94F3040C94F3040C94F304B1
:100010000C94F3040C94F3040C94F3040C94F30484
:100020000C94F3040C94F3040C94F3040C947714E0
:100030000C94F3040C94F3040C94F3040C94F30464
:100040000C94F3040C94F3040C9444150C9479155B
:100050000C94F3040C94A8140C94F3040C94F3047F
:100060000C94F3040C94F3040C94F3040C94F30434
:100070000C94F3040C94F3040C94F3040C94F30424
:100080000C94F3040C9453140C94F3040C94F304A4
:100090000C94F3040C94F3040C94F3040C94F30404
:1000A0000C94F3040C94F3040C94F3040C94F304F4
:1000B0000C94F3042C0D860DB40D200E420EE20DAF
:1000C000010E6D730D0A00494E435F445552415471
:1000D000494F4E2056414C5545203D200045525237
:1000E0004F523A20494E435F4455522045455052A5
:1000F0004F4D2052414D204D4953534D415443489B
:10010000210D0A00496E76616C6964204172677541
:100110006D656E7420636F756E74210D0A00494E13
:10012000435F4455524154494F4E2076616C75658A
:1001300020757064617465640D0A00417267756DA5
:10014000656E74206F7574206F662072616E6765CE
:10015000210D0A00496E76616C69642041726775F1
:100160006D656E7420636F756E74210D0A00496EA3
:1001700076616C696420417267756D656E74200DDF
:100180000A00335633204C4544204F4646210D0A81
:1001900000335633204C4544204F4E210D0A004970
:1001A0006E76616C696420417267756D656E74204E
:1001B000636F756E74210D0A00496E76616C696417
:1001C00020417267756D656E74200D0A00355620EA
:1001D0004C4544204F4646210D0A003556204C45DB
:1001E00044204F4E210D0A00496E76616C696420EF
:1001F000417267756D656E7420636F756E74210D45
:100200000A000D0A00203078002030780020494490
:1002100058207C2050524F544F434F4C207C204953
:10022000525F41444452207C2049525F434D442058
:10023000207C20434D4420202020202020202020EE
:100240007C204445534352495054494F4E0D0A00B7
:10025000496E76616C696420417267756D656E7474
:1002600020636F756E74210D0A0044656C657465BA
:1002700064210D0A00496E646578206F7574206FE3
:10028000662072616E6765210D0A000D0A004465E3
:100290006C657465204B6579207769746820696E98
:1002A0006465783A20004E6F2072656D6F7465202A
:1002B0006B657920726567697374657265642E2059
:1002C0004E6F7468696E6720746F2064656C657426
:1002D00065210D0A00496E76616C69642041726780
:1002E000756D656E7420636F756E74210D0A004B19
:1002F00065792072656769737465722073756363CD
:1003000065737366756C210D0A00577269746520F8
:10031000746F20454550524F4D2E2E2E0D0A004B26
:10032000657970726573732072656769737465723D
:1003300065640D0A000D0A000D0A54696D656F753C
:1003400074210D0A0050726573732074686520640F
:10035000657369726564206B6579206F6E207468BF
:10036000652069722D72656D6F74650D0A00726586
:100370006772656D3A20496E76616C6964206E75AE
:100380006D626572206F6620617267756D656E744F
:100390007320666F7220636D6420746F20726567CE
:1003A00069737465720D0A0072656772656D3A2033
:1003B000596F7520747269656420746F2072656767
:1003C0006973746572206120756E6B6E6F776E2035
:1003D000636F6D6D616E640D0A00546865206D6118
:1003E00078696D756D206E756D6572206F66206B16
:1003F00065797320746F2072656769737465722004
:1004000069732072656163686564210D0A00417239
:1004100067756D656E74206F7574206F66207261EC
:100420006E6765210D0A00736574766F6C0D0A00A6
:10043000496E76616C696420417267756D656E7492
:1004400020636F756E74210D0A00766F6C646F7790
:100450006E0D0A00766F6C646F776E20646F657343
:10046000206E6F74206578706563742061206172FE
:1004700067756D656E74210D0A00766F6C75700D71
:100480000A00566F6C757020646F6573206E6F7410
:1004900020657870656374206120617267756D6591
:1004A0006E74210D0A000D0A004144432056616C10
:1004B00075653A20000A000A000B000B000B000BC8
:1004C000000C000D000D000E000F001000110013B5
:1004D00000150016001800190019001A001C001D54
:1004E000001E001F0025002A00300035003B0040A0
:1004F0000045004A004F0054005A00600066006C3E
:1005000000720077007D00830088008E00930098C1
:10051000009C00A100A600AB00B000B400B900BF71
:1005200000C400C900CF00D500DC00E200E800ED07
:1005300000F200F80000010B01170124013401450D
:1005400001550169017F019701B601D501F401133D
:1005500002310250026E028D02AB02C902E70205AF
:1005600003230340035D037A039703B303CE03E43D
:1005700003F103F803FC03FE03FF03FF03FF03552E
:100580004152545F4E4F5F44415441206F63637545
:10059000727265642100554152545F42554646458A
:1005A000525F4F564552464C4F57206F63637572EA
:1005B0007265642100554152545F4F564552525561
:1005C0004E5F4552524F52206F636375727265647D
:1005D0002100554152545F4652414D455F455252AC
:1005E0004F52206F6363757272656421004C696EAF
:1005F00065206C656E6774682065786365656473F3
:100600002062756666657221005265717569726552
:100610006420617267756D656E7473206E6F7420EF
:1006200070726573656E74210D0A004D656D6F7291
:100630007920616C6C6F636174696F6E20666169AB
:100640006C6564210D0A004D6178206172672E206F
:10065000737472696E67206C656E67746820657864
:10066000636565646564210D0A00546865206E75D4
:100670006D626572206F6620617267756D656E745C
:100680007320657863656564732074686520737092
:100690006563696669656420706172736572206C58
:1006A000696D6974210D0A00556E6B6E6F776E204F
:1006B000636F6D6D616E64210D0A00566F6C756D10
:1006C0006520736561726368206572726F72210DB7
:1006D0000A004D6F746F722040206C6F7765722036
:1006E0006C696D2E210D0A004D6F746F72204020D1
:1006F0007570706572206C696D2E210D0A004D6F4A
:10070000746F722040206C6F776572206C696D2E5B
:10071000210D0A004D6F746F722040207570706556
:1007200072206C696D2E210D0A0036060906090635
:100730000906090000000A0A000003070B100B104D
:10074000000000000107070D0D00000105030A0E5F
:1007500018030A040900101C283001010003050CCD
:100760000F1E050C040B00101525250101000205C4
:100770000C1122050C050C00000000000101000214
:10078000050C1122050C050C0010102020010100A1
:10079000010F15070B070B070B0F14000F140001B7
:1007A000008A098409800978097009670960095C71
:1007B00009560952094A0944093B0934092B0923FE
:1007C000091D09150911090B0907090209FC08F59A
:1007D00008F008E708E008DA08D408CF08C708C21C
:1007E00008BA08B408A908A2089B0894088D0885CF
:1007F000087F08770870086908650860085A08517A
:100800000847083B083308290822081D0818081162
:1008100008524144494F310052434949004752452B
:10082000450049524D5031360053414D53554E47C6
:1008300041480056494E43454E54004D4954535586
:100840005F48454156590050414E41534F4E494330
:1008500000544543484E494353004143503234000D
:10086000533130300046414E0050454E54415800FF
:100870004D45524C494E0053414D53473438004C7E
:100880004741495200535045414B45520052434D58
:100890004D31320052434D4D32340052434D4D33B1
:1008A0003200524F4F4D42410054454C4546554E43
:1008B0004B454E004F5254454B0041315456424F28
:1008C0005800424F53450054484F4D534F4E004C33
:1008D00045474F004E45433432004E4543313600C4
:1008E0004E4554424F58004B4154485245494E00E2
:1008F000495236300052555749444F004E494B4FEC
:100900004E0052433641004A56430052434341523F
:1009100000464443005349454D454E53004E4F4B0E
:100920004941004752554E4449470042414E4720F5
:100930004F4C55004E554245525400524543533892
:10094000304558004150504C450053414D534733BA
:1009500032005243360044454E4F4E00524335005C
:10096000524543533830004B415345494B594F0092
:100970004D4154535553480053414D53554E470034
:100980004E454300534952435300554E4B4E4F572B
:100990004E000D0A0076312E300042433220566F51
:1009A0006C4374726C2046573A20000011241FBE1D
:1009B000CFEFD8E0DEBFCDBF11E0A0E0B1E0E8EBC3
:1009C000F9E302C005900D92AA3AB107D9F725E0E4
:1009D000AAEAB1E001C01D92A430B207E1F70E947B
:1009E000BE140C94DA1C0C940000CF93DF93EC013E
:1009F000FC01E60FF11D10829FEF960F662391F028
:100A0000DE01A90FB11DFA01EF70FF27E756FE4F77
:100A100020812C93529542954F7045275F70452752
:100A2000915070F7CE01DF91CF910895CF93DF936E
:100A3000CDB7DEB72B970FB6F894DEBF0FBECDBF94
:100A400089EA94E00E940816F89480911A02909125
:100A50001B024AE0BE016F5F7F4F0E9477190E9420
:100A6000F915789486EA94E00E9408162B960FB642
:100A7000F894DEBF0FBECDBFDF91CF910895809176
:100A80001D0281110CC01092950010929400E1E9B2
:100A9000F0E080818460808381E080931D0208956E
:100AA000E1E9F0E080818B7F808310921D02089540
:100AB000109295001092940008955B985A982FEF29
:100AC00080E792E0215080409040E1F700C00000B4
:100AD00008958A30910528F08F3F934020F480E0FC
:100AE000089581E0089582E0089590910A01981791
:100AF00028F482E894E00E94081608958AE794E0BA
:100B00000E94081681E080931C02089590911701BD
:100B1000981728F484E594E00E94081608958AE462
:100B200094E00E94081682E080931C020895CF93FF
:100B3000DF93EB0190912401981728F480E394E06F
:100B40000E9408161EC087E294E00E940816888161
:100B500099810E94EB188536910528F08EE094E08B
:100B60000E9408160EC0FC01EE0FFF1FEB54FB4F56
:100B700085919491909319028093180283E0809359
:100B80001C02DF91CF910895882311F02D9A0895CA
:100B90002D98089539B129B133FB882780F990E069
:100BA000880F991F22FB992790F9892B813039F002
:100BB000823019F0811105C009C081E0089582E0FA
:100BC000089581E00E94C4058FEF089580E00895A4
:100BD0000E94CA05882319F0823021F008955B9A9B
:100BE0005A9808950E945D050E9450052FEF80E7F6
:100BF00092E0215080409040E1F700C000005B9AF5
:100C00005A9808950E94CA05813039F018F0823050
:100C1000B9F013C05B985A9A08950E945D050E942E
:100C200050052FEF80E792E0215080409040E1F79F
:100C300000C000005B985A9A089581E00E94C405A4
:100C400008959F92AF92BF92CF92DF92EF92FF9260
:100C50000F931F93CF93DF93CDB7DEB7AB970FB64C
:100C6000F894DEBF0FBECDBF982E6B0180911702A6
:100C70008E3028F08AED93E00E940816E6C0FB0152
:100C800060817181CE0182960E943F19F601A28097
:100C9000B3800F2EFDE0EF2EF1E0FF2EF02D00E0EF
:100CA00010E0B701C5010E943619892B89F40E8323
:100CB000292D30E0225031098DE0089FF0011124E8
:100CC000E65FFE4F808190E02817390751F40EC08F
:100CD0000F5F1F4F9DE0E90EF11C0B30110509F766
:100CE000B0C08EE693E00E940816AFC01F828DEF61
:100CF000890D8D3F10F586010C5F1F4F892D90E007
:100D0000880F991FC80ED91E7E01E7E0EE0EF11C78
:100D10006894AA24A5F8B12CF70101900020E9F706
:100D20003197B182A082F801619171918F01C70161
:100D30000E942B190C151D0579F785E493E00E949C
:100D400008160F2EF4EFEF2EFF24F394F02D00E0A1
:100D500010E01DC0193058F0003120F08DE00E94E5
:100D6000E01500E08EE20E94E0150F5F10E08FE1D9
:100D70009EE40197F1F700C000001F5F91E0E91ABF
:100D8000F10829F488E393E00E9408165EC08BE422
:100D900093E00E94C70F8823E9F285E393E00E9465
:100DA00008168FE193E00E940816EBE4F3E08081DF
:100DB0008983818192819B838A83838194819D83AE
:100DC0008C8380911702E1E28E9FD0011124AD5AED
:100DD000BC4F91E2FE01319601900D929A95E1F798
:100DE0008F5F809317028AE093E00E94081680913B
:100DF000170290E00197BC01660F771F880F991FBB
:100E0000880F991F880F991F680F791F6E5F7F4F9A
:100E10004AE050E0CE0182960E94631C4DEA51E008
:100E200064E870E083E593E00E94631C6091170220
:100E300083E392E00E94731C8FEE92E00E940816FA
:100E400004C088EA93E00E940816AB960FB6F894A7
:100E5000DEBF0FBECDBFDF91CF911F910F91FF90ED
:100E6000EF90DF90CF90BF90AF909F900895AF929A
:100E7000BF92CF92DF92EF92FF920F931F93CF9387
:100E8000DF93CDB7DEB72A970FB6F894DEBF0FBE5B
:100E9000CDBF8B0190914B01981728F485ED92E01E
:100EA0000E94081676C080911702811105C086EA5B
:100EB00092E00E9408166DC08EE892E00E9408162B
:100EC000F801808191810E94F9158BE892E00E94DF
:100ED0000816F801808191810E94EB185C01BB2407
:100EE00095012F5F3F4F8091170290E08217930783
:100EF0002CF485E792E00E9408164BC00F2EF3E514
:100F0000CF2EF3E0DF2EF02D0F2EFCE0EF2EF0E0E1
:100F1000FF2EF02D00E010E00A151B05C4F081E261
:100F2000F601B196D60101900D928A95E1F74AE05B
:100F300050E0B701CE0101960E94451C4AE050E006
:100F4000B7016A507109CE0101960E948B1C0F5F98
:100F50001F4FF1E2CF0ED11C8AE0E80EF11C0C30DD
:100F60001105D1F6809117028150809317024DEA46
:100F700051E064E870E083E593E00E94631C6091B7
:100F8000170283E392E00E94731C8AE692E00E94BB
:100F900008162A960FB6F894DEBF0FBECDBFDF91BC
:100FA000CF911F910F91FF90EF90DF90CF90BF9066
:100FB000AF9008952F923F924F925F926F927F92DF
:100FC0008F929F92AF92BF92CF92DF92EF92FF9259
:100FD0000F931F93CF93DF93CDB7DEB768970FB60C
:100FE000F894DEBF0FBECDBF90915801981728F43A
:100FF00080E592E00E94081621C18DE092E00E94F7
:10100000081680911702882309F418C182E090E045
:10101000988F8F8B0F2EF3E54F2EF3E05F2EF02D80
:10102000212C312C8E01055F1F4F6894882482F893
:10103000912C0F2EF9E0AF2EB12CF02D0F2EF6E0F3
:10104000CF2ED12CF02D0F2EFDE06F2E712CF02D18
:1010500080E20E94E0154AE0B801C1010E947719C0
:101060000E94F915E12CF12C06C080E20E94E015E7
:101070009FEFE91AF90AF80101900020E9F731978A
:10108000E01BF10BC4018E1B9F0BE816F90668F3F9
:101090008CE70E94E01580E20E94E0155E8A4D8A8E
:1010A000D201EC91F0E0EE0FFF1FEF55F84F659184
:1010B0007491C8010E941219C8010E94F915E12C0F
:1010C000F12C06C080E20E94E015BFEFEB1AFB0A8C
:1010D000F80101900020E9F73197E01BF10BC50101
:1010E0008E1B9F0BE816F90668F38CE70E94E0154B
:1010F00089E092E00E940816ED89FE8941815281C3
:1011000064E0C8010E94F5040E94F915E12CF12C5D
:1011100006C080E20E94E015FFEFEF1AFF0AF80117
:1011200001900020E9F73197E01BF10BC6018E1BFF
:101130009F0BE816F90668F38CE70E94E01585E03E
:1011400092E00E940816AD89BE8913964D915C917C
:10115000149764E0C8010E94F5040E94F915E12C7F
:10116000F12C06C080E20E94E015BFEFEB1AFB0AEB
:10117000F80101900020E9F73197E01BF10BC6015F
:101180008E1B9F0BE816F90668F38CE70E94E015AA
:1011900080E20E94E015ED89FE896581FDE0F69F01
:1011A000B0011124635F7E4FC8010E943F19B20154
:1011B0006A5F7F4FC8010E942B19C8010E94F91570
:1011C000E12CF12C06C080E20E94E0158FEFE81AB6
:1011D000F80AF80101900020E9F73197E01BF10BC4
:1011E000C3018E1B9F0BE816F90668F38CE70E947B
:1011F000E01580E20E94E0154AE050E06F89788DAA
:10120000CE0101960E94451CCE0101960E94F9155F
:1012100082E092E00E9408169FEF291A390AAF89EE
:10122000B88D1A96B88FAF8BB1E24B0E511C8091DE
:10123000170290E0281639060CF40ACF68960FB60C
:10124000F894DEBF0FBECDBFDF91CF911F910F91FC
:10125000FF90EF90DF90CF90BF90AF909F908F90D6
:101260007F906F905F904F903F902F900895909156
:101270006501981728F488EE91E00E9408160895F9
:10128000DB01ED91FC918081813359F4719A61E029
:1012900082E392E00E94731C8BED91E00E9408169D
:1012A0000895803359F4719860E082E392E00E94DF
:1012B000731C8DEC91E00E940816089589EB91E073
:1012C0000E940816089590917201981728F48FE9EA
:1012D00091E00E9408160895DB01ED91FC91808158
:1012E000813359F45D9A61E081E392E00E94731CBE
:1012F00081E991E00E9408160895803359F45D98C1
:1013000060E081E392E00E94731C82E891E00E9419
:10131000081608958EE691E00E94081608959091AF
:101320007F01981728F484E591E00E94081608953B
:10133000FB01808191810E94EB188937F5E09F07BE
:1013400028F08BE391E00E940816089590935203D1
:1013500080935103BC0180E090E00E94C91620E018
:1013600034E244EF5AE40E94571720E030E040E8AE
:101370005BE30E94571720E030E04AE754E40E9404
:1013800028160E949A1670939900609398006091B5
:1013900051037091520380E090E00E94851C8EE121
:1013A00091E00E9408160895CF93DF9300D000D0FB
:1013B0001F92CDB7DEB790917F01981728F484E093
:1013C00091E00E94081626C080E090E00E945D1C1B
:1013D00020915103309152038217930739F08DED1C
:1013E00090E00E94081681E00E94C40587EC90E01E
:1013F0000E9408164AE0BE016F5F7F4F8091510343
:10140000909152030E9477190E94F91582EC90E0A6
:101410000E9408160F900F900F900F900F90DF9181
:10142000CF910895CF92DF92EF92FF920F931F9387
:10143000CF93DF93CDB7DEB729970FB6F894DEBF11
:101440000FBECDBF8C0180E29CE29A8389831B8210
:10145000C8010E944619BE016F5F7F4FC8010E94FC
:1014600019196C010DE011E0E12CF12CB801C60155
:101470000E943619892B59F42DE02E9DC0012F9D15
:10148000900D1124865F9E4F892B81F409C02FEFA8
:10149000E21AF20A035F1F4F3BE0E316F10431F753
:1014A00088EA96E00E9408168FEF9DC0BE016F5F2C
:1014B0007F4F80E090E00E9419198C01892B09F47C
:1014C00070C0D12CF8018081882399F1F2E0FD15DC
:1014D00028F48AE696E00E94081637C0F8010190C9
:1014E0000020E9F73197CF01801B910B99270196D6
:1014F0008A3091052CF087E496E00E94081625C0FA
:101500000E94CA17ED2DF0E0EE0FFF1F21E030E042
:101510002C0F3D1FE20FF31F94838383009729F460
:101520008BE296E00E94081610C0B8010E943F1995
:10153000D394BE016F5F7F4F80E090E00E94191945
:101540008C01892B09F0BECF2DC08DE08E9DF0015E
:101550008F9DF00D1124E65FFE4F8081D81670F14B
:10156000CC24C39405C089E096E00E94081626C0EA
:10157000DD2091F08E010C5F1F4FED2CF12CEE0C55
:10158000FF1CE00EF11EF801819191918F010E94E4
:1015900062180E151F05B9F781E0C11024C080E064
:1015A00022C0D12C8DE08E9DF0018F9DF00D112475
:1015B000E65FFE4F8081D81620F4D5CFCC24C394AB
:1015C000D7CF8DE08E9DF0018F9DF00D1124E65F49
:1015D000FE4F0180F281E02DBE016C5F7F4F8D2DAB
:1015E0000995C12CC5CF29960FB6F894DEBF0FBE62
:1015F000CDBFDF91CF911F910F91FF90EF90DF90C2
:10160000CF900895CF92DF92EF92FF920F931F93A6
:10161000CF93DF9300D01F92CDB7DEB720E23CE23C
:101620003A8329831B82FC0101900020E9F731975E
:10163000E81709F451C0BE016F5F7F4F0E9419196E
:101640006C010F2EFDE0EF2EF1E0FF2EF02D00E0FB
:1016500010E0B701C6010E943619892B19F40F3F1B
:1016600059F43CC00F5F1F4F8DE0E80EF11C0B30AA
:10167000110579F78FEF3DC0023090F1023091F5FE
:10168000BE016F5F7F4F80E090E00E9419190097C4
:10169000E1F010E0FC012081222369F0133020F5F5
:1016A00001900020E9F73197E81BF90BFF273196ED
:1016B0003A97E4F41F5FBE016F5F7F4F80E090E0D8
:1016C0000E941919009731F701C010E080912401A0
:1016D000811771F08FEF0DC08FEF0BC08FEF09C036
:1016E000802F07C08FEF05C08FEF03C08FEF01C0C1
:1016F00082E00F900F900F90DF91CF911F910F918B
:10170000FF90EF90DF90CF90089593FF07C082ED98
:1017100095E00E94081620E038E01DC092FF07C047
:1017200085EB95E00E94081620E034E014C091FF9C
:1017300007C086E995E00E94081620E032E00BC061
:101740009C012227317090FF06C08FE795E00E9430
:10175000081620E031E0C9010895FF920F931F930E
:10176000CF93DF93EC010E941A16892B09F447C02E
:101770000E94C015182FF92E0E94850B009731F09A
:10178000812F9F2D0E94850B82603EC01D3049F441
:101790002091AC01222319F01092AC0135C01882BF
:1017A00033C0183011F01F3779F48091AC018823D1
:1017B00019F081508093AC018091AC01C80FD11D0C
:1017C000188281E090E020C01A30E1F08091AC01F5
:1017D000883270F491E0980F9093AC01FE01E80F0D
:1017E000F11D1083C90FD11D188281E090E00CC05B
:1017F0008DEE95E00E94081682E090E005C081E041
:1018000090E002C081E090E0DF91CF911F910F91B5
:10181000FF9008954F925F926F927F928F929F9266
:10182000AF92BF92CF92DF92EF92FF920F931F93EE
:10183000CF93DF9300D000D000D0CDB7DEB7390111
:10184000E2EBF1E0ABE4B3E011968D919C9112973D
:101850009283818313968D919C91149794838383B3
:101860008C91808350901702552059F10F2EF3E58B
:10187000AF2EF3E0BF2EF02DC12CD12C460145E058
:1018800050E0B50182EB91E00E941E19892B89F48A
:1018900081E2889DF001899DF00D1124ED5AFC4FE5
:1018A0008581F8018083F701C08281E0F3018083A4
:1018B0000DC0FFEFCF1ADF0A81E2A80EB11CC514DC
:1018C000E8F2F30110828FEFF801808326960FB6BD
:1018D000F894DEBF0FBECDBFDF91CF911F910F9166
:1018E000FF90EF90DF90CF90BF90AF909F908F9040
:1018F0007F906F905F904F900895EF92FF920F93BB
:101900001F93CF93DF93CDB7DEB7A8970FB6F894A8
:10191000DEBF0FBECDBF8091AD018823A1F10F2E98
:10192000F0EBEF2EF1E0FF2EF02D01EB11E02FEAAE
:1019300031E040914B0350914C0360914D03709105
:101940004E0380914F03909150030E940A0C8091A6
:10195000AF01882391F08091B101811106C081E02F
:1019600080931C021092AD0132C0813031F482E0CC
:1019700080931C021092AD012AC00E9450050E9463
:101980005D0510921C028091AE01882301F163E293
:1019900073E0CE0101960E943F19CE0101960E948C
:1019A000020B811106C081E080931C021092AE01EF
:1019B0000EC0813031F482E080931C021092AE019F
:1019C00006C00E9450050E945D0510921C02A89658
:1019D0000FB6F894DEBF0FBECDBFDF91CF911F9140
:1019E0000F91FF90EF900895DF92EF92FF920F9387
:1019F0001F93CF93DF93CDB7DEB7A8970FB6F894B8
:101A0000DEBF0FBECDBF83E293E00E94AD0B892BFA
:101A100019F481E08093AE018BE493E00E94C70F3C
:101A2000882319F081E08093AD01F89480911A0227
:101A300090911B029093E0018093DF017894E091F4
:101A40001C028E2F90E08730910508F0BAC1FC018E
:101A5000E65AFF4F0C94C4178091AE01882331F0F1
:101A600083E293E00E94120A1092AE018091AD01D0
:101A7000882309F4A6C1E2EBF1E0ABE4B3E01196F0
:101A80008D919C9112979283818313968D919C9155
:101A90001497948383838C91808380911702882389
:101AA00091F103E513E0E12CF12C0F2EFDE0DF2E88
:101AB000F02D45E050E0B80182EB91E00E941E1944
:101AC000892BB1F4F8016581D69EB0011124635FC2
:101AD0007E4F87EB91E00E943F19B8016A5F7F4F0C
:101AE00087EB91E00E942B1987EB91E00E94120A8C
:101AF000FFEFEF1AFF0A0F5D1F4F8091170290E072
:101B0000E816F906B4F21092AD015BC18091DF01D5
:101B10009091E0010E946905823059F484E197E0D8
:101B20000E94081610921C020E9450050E945D053A
:101B300048C180911D0281110FC00E943F050E9483
:101B4000CA05811103C00E94E8050AC081E00E9415
:101B5000C4050E945D0504C00E9458050E94E80566
:101B600085E080931C022DC18091DF019091E001FE
:101B70000E946905813059F48EEF96E00E940816A4
:101B800010921C020E9450050E945D051AC18091AE
:101B90001D0281110FC00E943F050E94CA058111DC
:101BA00003C00E9402060AC081E00E94C4050E9490
:101BB0005D0504C00E9458050E94020686E08093DD
:101BC0001C02FFC080911D02811105C00E945D05AD
:101BD00010921C02F6C00E947D0C8091DF01909152
:101BE000E0010E946905823009F0EBC088EE96E0C2
:101BF0000E9408160E945D050E94500510921C026A
:101C0000E0C080911D02811105C00E945D05109207
:101C10001C02D7C00E947D0C8091DF019091E001F1
:101C20000E946905813009F0CCC082ED96E00E94E7
:101C300008160E945D050E94500510921C02C1C04A
:101C40004091DF015091E00120911802309119027A
:101C5000CA01821B930B9093E2018093E101892BCF
:101C600029F40E945D0510921C02ABC04217530775
:101C700018F40E94E80502C00E94020684E08093E6
:101C80001C029FC08091DF019091E0012091180219
:101C900030911902821B930B9093E2018093E10132
:101CA0001816190624F40E94CA05823051F4809156
:101CB000E1019091E20199237CF40E94CA058130F0
:101CC00059F00E945D058BEB96E00E940816109279
:101CD0001C0281E00E94C4058091E1019091E20123
:101CE000892B29F40E945D0510921C026AC0809124
:101CF000AD01882309F443C00F2EF0EBEF2EF1E085
:101D0000FF2EF02D01EB11E02FEA31E040914B0363
:101D100050914C0360914D0370914E0380914F039D
:101D2000909150030E940A0C8091AF01882311F119
:101D30008091B101823018F41092AD011BC0823045
:101D4000C9F467E271E087EB91E00E943F1960916E
:101D5000B00181E2689FB0011124675A7C4F87EB84
:101D600091E00E942B1987EB91E00E94120A1092D9
:101D7000AD0127C00E945D0510921C0222C0809117
:101D8000AE018823F1F063E273E0CE0101960E9478
:101D90003F19CE0101960E94020B8093B10182305F
:101DA00018F41092AE0109C0823039F483E293E056
:101DB0000E94120A1092AE0104C00E945D051092AA
:101DC0001C02A8960FB6F894DEBF0FBECDBFDF9100
:101DD000CF911F910F91FF90EF90DF900895209188
:101DE0000E0290911602921748F130910F0293174C
:101DF00028F5309114023323A9F0482F50E0692FC1
:101E0000621B9A0102C0220F331F6A95E2F74091CC
:101E1000FA015091FB01242B352B3093FB012093C9
:101E2000FA0138C02091FA013091FB01220F331FD3
:101E3000282B3093FB012093FA012CC02091100233
:101E4000921740F130911102931720F5309114024E
:101E50003323A9F0482F50E0692F621B9A0102C07A
:101E6000220F331F6A95E2F74091F8015091F90172
:101E7000242B352B3093F9012093F8010BC02091CE
:101E8000F8013091F901220F331F282B3093F9010B
:101E90002093F801209105022330C9F42FEE290F79
:101EA000243008F06DC0282F30E08FEE890F02C07B
:101EB000220F331F8A95E2F74091F6015091F70106
:101EC000242B352B3093F7012093F60159C0253090
:101ED00009F056C02CEE290F2430A0F4282F30E052
:101EE00048EF490F02C0220F331F4A95E2F7409195
:101EF000F8015091F901242B352B3093F9012093EF
:101F0000F80112C028EE290F243070F4282F30E099
:101F10004CEE490F02C0220F331F4A95E2F7309171
:101F2000EF01232B2093EF01903350F58823A1F08C
:101F3000E92FE695E695E695F0E0E051FE4F892F12
:101F4000877021E030E002C0220F331F8A95E2F74C
:101F50008081282B208314C0E92FE695E695E6952D
:101F6000F0E0E051FE4F892F877021E030E002C0A1
:101F7000220F331F8A95E2F7209580812823208342
:101F80009F5F9093160208955E9856980895FC01FD
:101F900080910402882309F4B8C090910302933021
:101FA00059F018F4923099F18CC0973009F480C040
:101FB000923309F465C085C02091FF013091000281
:101FC0008091FF0190910002232F332780959095F7
:101FD00099272817390709F088C08091FF0190914F
:101FE00000029927909300028093FF018091FD01E8
:101FF0009091FE012091FF0130910002982F8827D7
:10200000822B932B909300028093FF015AC0209162
:10201000FF01309100028091FF0190910002232F77
:1020200033278095909599272817390751F4809187
:10203000FF01909100029927909300028093FF0185
:1020400040C080910102909102028E3E974809F0B3
:102050004CC08BE0809303028091FF0190910002BD
:10206000892F992790930202809301028091FF01AA
:10207000909100029927909300028093FF0121C064
:102080002091FF01309100028091FF0190910002A8
:10209000232F332799272817390739F58091FF0116
:1020A000909100029927909300028093FF0109C04C
:1020B00080910102909102028F7D909302028093A1
:1020C00001028091030280838091010290910202BB
:1020D000928381838091FF01909100029483838396
:1020E0008091FC01858381E003C01092030280E0AF
:1020F000109200021092FF0110920202109201024F
:102100001092FC0110920402089580E00895CF938C
:10211000DF9389B190910402911196C380749091DC
:10212000EE01911138C0811106C08091ED018F5FE1
:102130008093ED0189C38091ED018823E9F081E06E
:102140008093EE018093EC011092EB011092F90163
:102150001092F8011092FB011092FA011092EF0117
:102160001092F7011092F6019FEF90931602809360
:10217000EA011092E90168C38091E7019091E801BA
:102180008F3F2FEF920709F45FC301969093E80108
:102190008093E70159C39091EC01992309F4ADC0F4
:1021A000882379F08091EA018F5F8093EA018A3E6B
:1021B00008F443C21092EE011092ED011092EA0170
:1021C00043C38091ED0191EE980F9B3030F49091D4
:1021D000EA019650953008F43AC392EA980F943584
:1021E00058F49091EA0122ED290F2C3208F432C301
:1021F0009751973108F431C394EC980F903130F433
:102200009091EA019C53903108F42AC398ED980FFD
:10221000973130F49091EA0193519D3008F423C333
:1022200095EF980F963020F09AEE980F9B3000F5BE
:102230009091EA0125EF290F263020F02AEE290F90
:102240002B30B0F49093E6018151803118F0915118
:10225000903140F41092E50180E48093E9016BE352
:1022600077E003C381E08093E5016BE377E0FDC293
:102270008650843080F48091EA019DED980F97306C
:1022800050F48093E60181E08093E4018093E501BE
:102290006AE277E0EAC21092EE0110921602809193
:1022A000150280FF22C0909105029731F1F099301C
:1022B000E1F0209107024091EA01241770F450E008
:1022C00030E0220F331F241735073CF086958170CC
:1022D00091E089270E94EF0E08C09091E5019111CD
:1022E00004C0869581700E94EF0E81E08093ED011D
:1022F0001092EA011092EC019BC19091EB0199239D
:1023000009F472C1882309F4B7C290911202209196
:10231000160292131CC0809113028130C1F4809187
:10232000150280FD0AC08091ED0190910A02891783
:1023300038F090910B02981718F0109213027DC19B
:102340001092EE011092ED011092EA017DC280918F
:10235000EA018F5F8093EA0130910502313031F557
:10236000482F50E04C3051050CF12B30F8F0E5E0EF
:10237000F2E081E0820F8587822F90E00B97982F03
:1023800088274091FA015091FB01842B952B909363
:10239000FB018093FA018385280F2F5F24878AE051
:1023A0008093EA01808980FFE5C06CC040911502EE
:1023B00040FF1DC0682F70E04091090250E0440FBB
:1023C000551F641775079CF0622F70E0492F50E08D
:1023D000425051096417750754F04091130241119E
:1023E00006C0E5E0F2E081E0868780894BC08A3E46
:1023F00008F423C1422F50E0892F90E0019748173D
:10240000590741F480911302811104C02F5F20937A
:10241000160213C1323011F03C3169F521112BC085
:102420008091E7019091E8018830974008F5E5E058
:10243000F2E081E0868782E0808315868091080142
:10244000909109019093FB018093FA01809106011C
:10245000909107019093F9018093F8018091FC011C
:1024600081608093FC011092E8011092E701E5C0C1
:1024700010920402E2C01092EE011092ED0110924F
:10248000EA01E2C19091ED0120910702291798F429
:102490008695817091E089270E94EF0EC5E0D2E019
:1024A0008889869581700E94EF0E88898695817053
:1024B0008093E50122C0809106029817D0F08091A8
:1024C00009022091E601821778F430E090E0880F4D
:1024D000991F8217930744F081E09091E5019111D3
:1024E00080E08093E50102C08091E5010E94EF0E3B
:1024F00004C01092EE011092EA018091EA018093EB
:10250000E6011092EB016CC080910502833091F5D9
:1025100080911602803171F58091ED0185508830EF
:1025200020F58091EA0194EC980F903130F41092EC
:10253000EB0181E18093160253C0E5E0F2E09AE0FE
:10254000908390E1938790E2948795878F508031B4
:1025500030F481E00E94EF0E1092EB0141C080E068
:102560000E94EF0E1092EB013BC01092EE01109210
:10257000EA0136C08091ED01909106028917A0F022
:1025800090910702981780F09091EA01209108023B
:10259000921750F020910902291730F081E00E9433
:1025A000EF0E1092EB011CC090910A028917A0F067
:1025B00090910B02981780F08091EA0190910C02A3
:1025C000891750F090910D02981730F080E00E942A
:1025D000EF0E1092EB0104C01092EE011092EA018E
:1025E00081E08093ED0124C0811106C08091ED014E
:1025F0008F5F8093ED0121C081E08093EB01809398
:10260000EA01809105028633C1F48091E4018823B8
:10261000A1F08091ED01873030F087508093ED017B
:102620001092E50103C081E08093E5011092E4017E
:102630008091EE01882309F407C1809112029091E4
:102640001602891301C1909113029111FDC02091CE
:102650000601309107014091F8015091F9012417CA
:10266000350789F44091E7015091E801403B54401F
:1026700050F49091E3019F5F9093E30190910502E4
:10268000913041F012C01092E30190910502913017
:1026900061F4F7C08091E3018150823008F0F1C00D
:1026A0001092E8011092E7018FC041E040930402CC
:1026B000923011F58111E9C04091E7015091E80194
:1026C00048305740B0F440910801509109015093AF
:1026D000FB014093FA013093F9012093F8018091B6
:1026E000FC0181608093FC011092E8011092E701E7
:1026F000CCC010920402C9C09530C1F5E0EFF1E002
:10270000808191814281282F2F7082958F7082273E
:10271000292F2F70822792959F709827892F90E0FC
:10272000242F2F7030E08217930711F010920402CB
:10273000E0EFF1E08381942F9827848189279581A8
:102740008913109204029091FC018091EF01892B72
:102750008093FC0185E0809303028091FA019091BF
:10276000FB0190930202809301021EC0909303022A
:102770002091FA013091FB01309302022093010273
:10278000923029F430930901209308010DC097304D
:1027900059F42091E9018091F8019091F901822B7F
:1027A0009093F9018093F8018091F8019091F901DB
:1027B000909300028093FF018091F6019091F701C0
:1027C0009093FE018093FD0180910402882391F192
:1027D0008091F8019091F901209106013091070153
:1027E00028173907B9F44091080150910901209147
:1027F000FA013091FB014217530761F42091E70180
:102800003091E8012A3C384028F42091FC012160F5
:102810002093FC012091FA013091FB0130930901D2
:102820002093080190930701809306011092E8011C
:102830001092E7011092EE011092F9011092F80146
:102840001092ED011092EA018091040229C060E922
:1028500077E00BC06FE777E008C06EE677E005C071
:102860006DE577E002C06CE477E041E150E085E09F
:1028700092E00E94091911CD8091150280FF44CE8B
:1028800001CE81E08093040271CF909303022091E6
:10289000FA013091FB01309302022093010272CFC2
:1028A000DF91CF9108951F920F920FB60F921124CE
:1028B0002F933F934F935F936F937F938F939F9348
:1028C000AF93BF93EF93FF930E945005FF91EF9159
:1028D000BF91AF919F918F917F916F915F914F9138
:1028E0003F912F910F900FBE0F901F9018951F9240
:1028F0000F920FB60F9211242F933F934F935F9334
:102900006F937F938F939F93AF93BF93EF93FF93B7
:102910000E948710FF91EF91BF91AF919F918F918E
:102920007F916F915F914F913F912F910F900FBECB
:102930000F901F90189510927C00EAE7F0E08FEA64
:10294000808380818064808381E080937E0008950D
:102950001F920F920FB60F9211248F939F93809125
:1029600078009091790090931B0280931A029F91B6
:102970008F910F900FBE0F901F90189583E392E0F8
:102980000E94551C809317024DEA51E064E870E004
:1029900083E593E00E94451C80E090E00E945D1C6E
:1029A000909352038093510380E284B984E087B905
:1029B00082E08DB98CE28AB918B880E00E94C40523
:1029C00082E392E00E94551C882311F0719A01C0A5
:1029D000719881E392E00E94551C882311F05D9A62
:1029E00001C05D980E94C40F84E192E09093890039
:1029F0008093880089E080938100C2E0C0936F00DB
:102A000088E080939100609151037091520380E0BF
:102A100090E00E94C91620E034E244EF5AE40E949C
:102A2000571720E030E040E85BE30E94571720E0B2
:102A300030E04AE754E40E9428160E949A167093E8
:102A4000990060939800C09371000E949B1488E0E5
:102A500090E00E94A5158AE999E00E94081685E990
:102A600099E00E94081682E999E00E9408162FEF6B
:102A700084E39CE0215080409040E1F700C00000DA
:102A800078940E94F40CFDCF1F920F920FB60F9214
:102A900011242F933F934F935F938F939F93EF93C3
:102AA000FF932091C0003091C600287180912002D0
:102AB00090E001968F77992740911F0250E084178C
:102AC000950739F080932002FC01ED5DFD4F3083C6
:102AD00001C022E020931E02FF91EF919F918F9100
:102AE0005F914F913F912F910F900FBE0F901F90CC
:102AF00018951F920F920FB60F9211248F939F93E8
:102B0000EF93FF939091220280912102981779F020
:102B10008091210290E001968F779927809321027E
:102B2000FC01ED55FD4F80818093C60005C0E1ECAE
:102B3000F0E080818F7D8083FF91EF919F918F9155
:102B40000F900FBE0F901F901895F89410922202CC
:102B5000109221021092200210921F027894992361
:102B600024F422E02093C0009F779093C5008093C7
:102B7000C40088E98093C10086E08093C200089574
:102B8000F8949091200280911F02981304C07894C9
:102B900080E091E00895789480911F0290E0019682
:102BA0008F77992780931F02FC01ED5DFD4F2081F7
:102BB00080911E0290E0982F8827820F911D089522
:102BC0004091220250E04F5F5F4F4F775527209191
:102BD000210230E042175307D1F3FA01ED55FD4FC2
:102BE000808340932202E1ECF0E080818062808368
:102BF0000895CF93DF93EC018881882331F02196EB
:102C00000E94E01589918111FBCFDF91CF9108954A
:102C1000CF93DF93EC012196FC018491882339F056
:102C20000E94E015FE01849121968111F9CFDF9178
:102C3000CF910895F8948091200220911F027894FA
:102C400090E080589F4F821B91098F7799270895B4
:102C50000E943C160C941D170E94161758F00E94F3
:102C60000F1740F029F45F3F29F00C94061751111B
:102C70000C9451170C940C170E942E1768F399238B
:102C8000B1F3552391F3951B550BBB27AA27621768
:102C90007307840738F09F5F5F4F220F331F441F75
:102CA000AA1FA9F335D00E2E3AF0E0E832D09150A9
:102CB0005040E695001CCAF72BD0FE2F29D0660F96
:102CC000771F881FBB1F261737074807AB07B0E8D9
:102CD00009F0BB0B802DBF01FF2793585F4F3AF0DF
:102CE0009E3F510578F00C9406170C9451175F3FE6
:102CF000E4F3983ED4F3869577956795B795F79565
:102D00009F5FC9F7880F911D9695879597F908954C
:102D1000E1E0660F771F881FBB1F621773078407E8
:102D2000BA0720F0621B730B840BBA0BEE1F88F7F7
:102D3000E09508950E94361788F09F5798F0B92FB4
:102D40009927B751B0F0E1F0660F771F881F991FE0
:102D50001AF0BA95C9F714C0B13091F00E9450171B
:102D6000B1E008950C945017672F782F8827B85F2B
:102D700039F0B93FCCF3869577956795B395D9F738
:102D80003EF490958095709561957F4F8F4F9F4F42
:102D90000895E89409C097FB3EF49095809570954E
:102DA00061957F4F8F4F9F4F9923A9F0F92F96E997
:102DB000BB279395F695879577956795B795F1110C
:102DC000F8CFFAF4BB0F11F460FF1BC06F5F7F4FA9
:102DD0008F4F9F4F16C0882311F096E911C07723BB
:102DE00021F09EE8872F762F05C0662371F096E8C4
:102DF000862F70E060E02AF09A95660F771F881F93
:102E0000DAF7880F9695879597F9089597F99F6750
:102E100080E870E060E008959FEF80EC0895002462
:102E20000A941616170618060906089500240A942F
:102E300012161306140605060895092E0394000CB5
:102E400011F4882352F0BB0F40F4BF2B11F460FF44
:102E500004C06F5F7F4F8F4F9F4F089557FD90586D
:102E6000440F551F59F05F3F71F04795880F97FB4E
:102E7000991F61F09F3F79F0879508951216130608
:102E80001406551FF2CF4695F1DF08C01616170637
:102E90001806991FF1CF869571056105089408956C
:102EA000E894BB2766277727CB0197F908950E94FE
:102EB0006A170C941D170E940F1738F00E941617FE
:102EC00020F0952311F00C9406170C940C17112484
:102ED0000C9451170E942E1770F3959FC1F3950F14
:102EE00050E0551F629FF001729FBB27F00DB11D8E
:102EF000639FAA27F00DB11DAA1F649F6627B00D1E
:102F0000A11D661F829F2227B00DA11D621F739F06
:102F1000B00DA11D621F839FA00D611D221F749F14
:102F20003327A00D611D231F849F600D211D822F5B
:102F3000762F6A2F11249F5750409AF0F1F0882382
:102F40004AF0EE0FFF1FBB1F661F771F881F9150AF
:102F50005040A9F79E3F510580F00C9406170C9441
:102F600051175F3FE4F3983ED4F3869577956795C4
:102F7000B795F795E7959F5FC1F7FE2B880F911DD9
:102F80009695879597F90895EE0FFF1F0590F49198
:102F9000E02D09940F931F93CF93DF938230910517
:102FA00010F482E090E0E0910205F091030520E04A
:102FB00030E0A0E0B0E0309719F14081518102810A
:102FC000138148175907C8F08417950769F41097BB
:102FD00031F012960C93129713961C9327C000930E
:102FE00002051093030522C02115310519F042177F
:102FF000530718F49A01BD01EF01DF01F801DBCF9F
:1030000021153105F9F0281B390B2430310580F4E6
:103010008A819B816115710521F0FB019383828375
:1030200004C09093030580930205FE01329644C0CC
:10303000FE01E20FF31F81939193225031093983EE
:1030400028833AC02091000530910105232B41F4DB
:103050002091020130910301309301052093000576
:1030600020910001309101012115310541F42DB766
:103070003EB74091040150910501241B350BE091AE
:103080000005F0910105E217F307A0F42E1B3F0B9A
:103090002817390778F0AC014E5F5F4F24173507CA
:1030A00048F04E0F5F1F5093010540930005819338
:1030B000919302C0E0E0F0E0CF01DF91CF911F914A
:1030C0000F910895CF93DF93009709F481C0FC011D
:1030D000329713821282A0910205B09103051097D6
:1030E00081F420813181820F931F2091000530915E
:1030F00001052817390751F5F0930105E093000504
:1031000067C0ED0120E030E0CE17DF0740F44A81D0
:103110005B819E0141155105F1F0EA01F5CFD383A2
:10312000C28340815181840F951FC817D90759F474
:1031300088819981840F951F0296918380838A816B
:103140009B81938382832115310529F4F093030534
:10315000E09302053DC0E901FB83EA83499159915F
:10316000C40FD51FEC17FD0761F480819181840F96
:10317000951F0296E90199838883828193819B83BD
:103180008A83E0E0F0E012968D919C91139700976E
:1031900019F0FD01DC01F7CF8D919C9111979D01F4
:1031A0002E5F3F4F820F931F209100053091010544
:1031B0002817390769F4309729F410920305109203
:1031C000020502C013821282B0930105A09300058C
:1031D000DF91CF910895FC0188279927E8942191E8
:1031E0002032E9F3293010F02E30C8F32B3241F0B1
:1031F0002D3239F4689404C00E948219820F911D07
:10320000219120532A30C0F31EF4909581959F4F51
:103210000895FB01DC0102C005900D924150504021
:10322000D8F70895FB01DC0105900D920020E1F72D
:1032300008954AEA51E00E9450190895FB01DC010B
:1032400004C08D910190801921F441505040C8F77D
:10325000881B990B0895FB01DC010D900020E9F714
:10326000119701900D920020E1F70895FB01DC0118
:103270008D91019080190110D9F3990B0895FB01EC
:10328000DC0101900D920020E1F70895DC016C91C2
:1032900061546A3108F060526F596D93C1F7089517
:1032A000FA01A191B081009719F41097E1F0CD01D6
:1032B000DC01CD010D90002011F4C00113C0FB0111
:1032C0002191222319F02015D9F7F3CFFB01219189
:1032D000201519F41E92119606C02223C1F70D90F5
:1032E0000020A1F7D001FA01A193B0830895BB2774
:1032F0004A3031F4992322F4BDE2909581959F4F95
:103300000C948B197AE0979F902D879F802D910DBB
:1033100011240895BB27FB015527AA27880F991F61
:10332000AA1FA41710F0A41B83955051B9F7A05DF4
:10333000AA3308F0A95DA193009779F7B111B19371
:103340001192CB010C949B1BABE0B0E0EAEAF9E1EF
:103350000C94A31C6C017B018A01FC01178216826C
:10336000838181FFCCC1CE0101963C01F60193819E
:10337000F70193FD859193FF81917F01882309F4E3
:10338000BAC1853239F493FD859193FF81917F0114
:10339000853229F4B60190E00E94AB1BE7CF912C57
:1033A000212C312CFFE1F315D8F08B3279F038F471
:1033B000803279F08332A1F4232D20611DC08D323B
:1033C00061F0803369F4232D216016C0832D826063
:1033D000382EE32DE4603E2E2AC0F32DF8601DC088
:1033E00037FC2DC020ED280F2A3040F08E32B9F482
:1033F00036FC81C1232D2064322E19C036FE06C052
:103400008AE0989E200D1124922E11C0EAE02E9E93
:10341000200D1124222EF32DF0623F2E08C08C3691
:1034200021F4832D8068382E02C0883641F4F701DC
:1034300093FD859193FF81917F018111B3CF982FE7
:103440009F7D9554933028F40C5F1F4F9FE3998321
:103450000DC0833631F0833771F0833509F059C0E0
:1034600021C0F801808189830E5F1F4F88248394D7
:10347000912C530113C02801F2E04F0E511CF801AA
:10348000A080B18036FE03C0692D70E002C06FEFEE
:103490007FEFC5010E94901B4C018201F32DFF7745
:1034A0003F2E16C0280122E0420E511CF801A080D8
:1034B000B18036FE03C0692D70E002C06FEF7FEF70
:1034C000C5010E94851B4C01F32DF0683F2E82013F
:1034D00033FC1BC0822D90E088169906B0F4B6012B
:1034E00080E290E00E94AB1B2A94F4CFF50137FCF8
:1034F000859137FE81915F01B60190E00E94AB1B80
:1035000021102A9421E0821A91088114910471F704
:10351000E8C0843611F0893641F5F80137FE07C05E
:1035200060817181828193810C5F1F4F08C060812F
:103530007181072E000C880B990B0E5F1F4FF32D26
:10354000FF763F2E97FF09C0909580957095619505
:103550007F4F8F4F9F4FF0683F2E2AE030E0A3014E
:103560000E94E71B882E861845C0853731F4232D2D
:103570002F7EB22E2AE030E025C0932D997FB92E00
:103580008F36C1F018F4883579F0B5C0803719F05E
:10359000883721F0B0C0E92FE061BE2EB4FE0DC027
:1035A000FB2DF460BF2E09C034FE0AC0292F26600F
:1035B000B22E06C028E030E005C020E130E002C0B5
:1035C00020E132E0F801B7FE07C06081718182819D
:1035D00093810C5F1F4F06C06081718180E090E095
:1035E0000E5F1F4FA3010E94E71B882E8618FB2D3C
:1035F000FF773F2E36FE0DC0232D2E7FA22E89147D
:1036000058F434FE0BC032FC09C0832D8E7EA82EE8
:1036100005C0B82CA32C03C0B82C01C0B92CA4FE43
:103620000FC0FE01E80DF11D8081803321F49A2D39
:10363000997EA92E09C0A2FE06C0B394B39404C01B
:103640008A2D867809F0B394A3FC11C0A0FE06C0B1
:10365000B21488F4280C922C9B180EC0B21460F49B
:10366000B60180E290E00E94AB1BB394F7CFB21496
:1036700018F42B1802C0982C212CA4FE10C0B601FF
:1036800080E390E00E94AB1BA2FE17C0A1FC03C028
:1036900088E790E002C088E590E0B6010CC08A2D72
:1036A000867859F0A1FE02C08BE201C080E2A7FC3F
:1036B0008DE2B60190E00E94AB1B891438F4B6018C
:1036C00080E390E00E94AB1B9A94F7CF8A94F301B9
:1036D000E80DF11D8081B60190E00E94AB1B8110C6
:1036E000F5CF222009F442CEB60180E290E00E949C
:1036F000AB1B2A94F6CFF6018681978102C08FEF2B
:103700009FEF2B96E2E10C94BF1CFC0105906150E9
:1037100070400110D8F7809590958E0F9F1F0895E7
:10372000FC016150704001900110D8F78095909590
:103730008E0F9F1F0895DC01FC01672F7191772385
:10374000E1F7329704C07C916D9370836291AE175C
:10375000BF07C8F308950F931F93CF93DF93FB0127
:10376000238121FD03C08FEF9FEF2CC022FF16C0E5
:1037700046815781248135814217530744F4A08143
:10378000B1819D012F5F3F4F318320838C93268130
:1037900037812F5F3F4F3783268314C08B01EC01A5
:1037A000FB010084F185E02D0995892BE1F6D80114
:1037B00016968D919C911797019617969C938E93D0
:1037C0001697CE01DF91CF911F910F910895FA01C5
:1037D000AA27283051F1203181F1E8946F936E7F50
:1037E0006E5F7F4F8F4F9F4FAF4FB1E03ED0B4E041
:1037F0003CD0670F781F891F9A1FA11D680F791F82
:103800008A1F911DA11D6A0F711D811D911DA11D92
:1038100020D009F468943F912AE0269F11243019A2
:10382000305D3193DEF6CF010895462F4770405D3D
:103830004193B3E00FD0C9F7F6CF462F4F70405DEC
:103840004A3318F0495D31FD4052419302D0A9F747
:10385000EACFB4E0A6959795879577956795BA9541
:10386000C9F700976105710508959B01AC010A2E07
:1038700006945795479537952795BA95C9F7620FDE
:10388000731F841F951FA01D0895DC01CB01FC014F
:10389000F999FECF06C0F2BDE1BDF89A319600B4A9
:1038A0000D9241505040B8F70895F999FECF92BD5E
:1038B00081BDF89A992780B50895A8E1B0E042E06B
:1038C00050E00C94471CDC01A40FB51F4150504040
:1038D00048F0CB01840F951F2E910E94741C41501B
:1038E0005040D0F70895262FF999FECF92BD81BDA3
:1038F000F89A019700B4021639F01FBA20BD0FB62E
:10390000F894FA9AF99A0FBE08950196272F0E940B
:10391000741C0C94731CDC01CB0103C02D910E941C
:10392000961C41505040D0F70895262FF999FECFAC
:103930001FBA92BD81BD20BD0FB6F894FA9AF99ACC
:103940000FBE019608952F923F924F925F926F9211
:103950007F928F929F92AF92BF92CF92DF92EF921F
:10396000FF920F931F93CF93DF93CDB7DEB7CA1BA0
:10397000DB0B0FB6F894DEBF0FBECDBF09942A88CB
:10398000398848885F846E847D848C849B84AA8473
:10399000B984C884DF80EE80FD800C811B81AA8100
:1039A000B981CE0FD11D0FB6F894DEBF0FBECDBFCB
:0839B000ED010895F894FFCF2A
:1039B800000004052000FFFFFFFF007505766F6C0F
:1039C80075700000000000008605766F6C646F77E4
:1039D8006E000000019705736574766F6C00000037
:1039E8000000160567657461646376616C000221E6
:1039F8000672656772656D0000000001370764652F
:103A08006C72656D0000000000DA0773686F7772EA
:103A1800656D00000001370973657435766C65645F
:103A280000000163097365743376336C65640001C3
:103A38008F09736574696E636475720000D40967D1
:103A48006574696E636475720030313233343536AB
:0A3A58003738394142434445460027
:00000001FF
